:10045900012C010234000002310FA0022D0002021A
:100469002405DC02260ABE06360015001F002D02EF
:090479002200050120010121010E
:1004B6005389F0438901758AE0758CB1C28DD28C5F
:0504C600D2A9D2AF2213
:030003000204B63E
:1004E000C374FF9FFF74FF9EC28C8F8AF58CD28CE1
:0104F00022E9
:03000B000203EFFE
:1003EF00C0E0C0D075D008E52024FE600E04701E5A
:1003FF00D2A0AF25AE241204E08013C2A0C3742094
:10040F009525FF744E9524FE1204E07520000520FB
:05041F00D0D0D0E03256
:1004F100C374FF9FFF74FF9EC28E8F8BF58DD28ECA
:0105010022D7
:1004CB0053890F438910758BF0758DD8C28FD28EDF
:0504DB00D2ABD2AF22FC
:09000E00D2B3C2B4C2B20204CBA9
:03001B00020424B8
:10042400C0E0C0D075D018E52124FE600E04701E13
:10043400D2B3AF27AE261204F18013C2B3C3741033
:100444009527FF74279526FE1204F17521000521D6
:05045400D0D0D0E03221
:10048300E4F5C9F5C875CC1875CDFC75CA1875CBDC
:0A049300FCD2CAC2BDD2ADD2AF2226
:030006000204836E
:03002B000203B617
:1003B600C0E0C0D075D000C000C007C2CFAF807506
:1003C60028008F29AF90752A008F2BEFF4540FF574
:1003D60033E52AC4F854F0C8E52BC4540F48F53069
:0903E600D007D000D0D0D0E032E5
:10002E008E108F1120A3030200DBE5106003020087
:10003E00D8E51112024D0063800066BF0074DF0028
:10004E0082EF0090F7009AFB00A8FD00B5FE00C2FB
:10005E00FF000000D8020106E4F534F535752C01D9
:10006E00752F040201B2E4F534F535752C01752FA8
:10007E0003020192E4F534F535752C01752F01025A
:10008E000172E4F534F535752C01803AE4F534F55A
:10009E0035752C01752F01020135E4F534F53575F2
:1000AE002C01752F038072E4F534F535752C01752E
:1000BE002F0480570535E53570020534D39532E5AA
:1000CE003495314005E4F52F8031020200E51060D1
:1000DE0003020200E51112024D0106800111BF015B
:1000EE001FDF012DEF014EF7016AFB018AFD01AA08
:1000FE00FE01DBFF00000200E4F52CAE22AF23FC74
:10010E000201F2E4F534F535752C01AE3AAF3B80C1
:10011E001AE4F534F535752C01AE38AF39800CE4A0
:10012E00F534F535752C01AE36AF37FC7D0B12026A
:10013E0005AD30120217C374DC9FFB74059E807AE6
:10014E00E4F534F535752C01AE22AF23FC7D0B1290
:10015E000205C374DC9FFF74059EFE22E4F534F5A0
:10016E0035752C01AE36AF37FC7D0B120205AD3066
:10017E00120217EF24DCFBEE3405803EE4F534F575
:10018E0035752C01AE38AF39FC7D0B120205AD3042
:10019E00120217EF24DCFBEE3405801EE4F534F575
:1001AE0035752C01AE3AAF3BFC7D0B120205AD301E
:1001BE00120217EF24DCFBEE3405FAAE22AF237CDD
:1001CE00007D0B120205EF2BFFEE3AFE220535E500
:1001DE003570020534D39532E53495314014AE2294
:1001EE00AF237C007D0B120205EF24DCFFEE3405FD
:0701FE00FE22AE24AF252212
:10035400D3E5359532E53495314031D2A1C2A2C2FC
:10036400B4D2B2AF337E007C017DC21202058E2668
:100374008F27AC2DAD2EAE31AF32120205D3E53549
:100384009FE5349E402BE4F534F53522E52CB40189
:100394001CD2B4C2B2C2A1C2A2E533252FFFE433FA
:1003A400FE7C017D2C1202058E268F2722C2B2C24A
:0203B400B42271
:10049D0012000612000312000EAF29AE2812002E14
:0904AD008E248F2512035480F007
:030000000202C831
:0C02C800787FE4F6D8FD75813B02030F3F
:1002D40002049DE493A3F8E493A34003F68001F29F
:1002E40008DFF48029E493A3F85407240CC8C3332B
:1002F400C4540F4420C8834004F456800146F6DFFA
:10030400E4800B0102040810204080900459E47E2C
:10031400019360BCA3FF543F30E509541FFEE493EE
:10032400A360010ECF54C025E060A840B8E493A3B5
:10033400FAE493A3F8E493A3C8C582C8CAC583CAE0
:10034400F0A3C8C582C8CAC583CADFE9DEE780BE98
:010482000079
:10020500EF8DF0A4A8F0CF8CF0A428CE8DF0A42E0D
:02021500FE22C7
:10021700C2D5EC30E709B2D5E4C39DFDE49CFCEE02
:1002270030E715B2D5E4C39FFFE49EFE120273C305
:10023700E49DFDE49CFC800312027330D507C3E400
:060247009FFFE49EFE2271
:10024D00D083D082F8E4937012740193700DA3A340
:10025D0093F8740193F5828883E473740293686054
:06026D00EFA3A3A380DF54
:10027300BC000BBE0029EF8DF084FFADF022E4CC6F
:10028300F875F008EF2FFFEE33FEEC33FCEE9DEC38
:10029300984005FCEE9DFE0FD5F0E9E4CEFD22ED7E
:1002A300F8F5F0EE8420D21CFEADF075F008EF2FC8
:1002B300FFED33FD4007985006D5F0F222C398FDB9
:0502C3000FD5F0EA2256
:00000001FF
