:0300000002026198
:0C026100787FE4F6D8FD7581360202A813
:1003D500022F0000022405DC02260ABE06310015A4
:0E03E500001F002D0222FFFB0120010121015B
:100427005389F0438901758AE0758CB1C28DD28CEE
:05043700D2A9D2AF22A2
:03000300020427CD
:10045100C374FF9FFF74FF9EC28C8F8AF58CD28C70
:010461002278
:03000B0002036B82
:07036B00C0E0C0D075D0080E
:10037200E52024FE600E04701ED2A0AF25AE24122A
:1003820004518013C2A0C374209525FF744E952496
:09039200FE120451752000052043
:05039B00D0D0D0E032DB
:10046200C374FF9FFF74FF9EC28E8F8BF58DD28E59
:010472002267
:10043C0053890F438910758BF0758DD8C28FD28E6E
:05044C00D2ABD2AF228B
:09000E00D2B3C2B4C2B202043C38
:03001B000203A03D
:0703A000C0E0C0D075D018C9
:1003A700E52124FE600E04701ED2B3AF27AE2612DD
:1003B70004628013C2B3C374109527FF7427952670
:0903C700FE1204627521000521FB
:0503D000D0D0D0E032A6
:1003F400E4F5C9F5C875CC1875CDFF75CA1875CB69
:0A040400FFD2CAC2BDD2ADD2AF22B2
:030006000203F4FE
:03002B000203329B
:10033200C0E0C0D075D000C000C007C2CFAF80758A
:1003420028008F29AF90752A008F2BEFF4540FF5F8
:100352002EE52AC4F854F0C8E52BC4540F48F52DF5
:09036200D007D000D0D0D0E03269
:10002E008E108F1120A3030200C1E51060030200A1
:10003E00BEE5112421602824F0602F24F8603624B8
:10004E00FC603924FE603F14604614604D2440600D
:10005E00030201BFE4F52FF530752C04020171E4A3
:10006E00F52FF530752C03020154E4F52FF530759C
:10007E002C01020137E4F52FF5308030E4F52FF531
:10008E0030752C018078E4F52FF530752C038063E4
:10009E00E4F52FF530752C04804E0530E5307002F6
:1000AE00052FD394B8E52F940B4005E4F52C806C06
:1000BE000201BFE51060030201BFE5112421602E8D
:1000CE0024F0603524F8604F24FC605824FE6071E3
:1000DE0014700302016C14700302019A2440600331
:1000EE000201BFE4F52FF530AE35AF368014E4F5DE
:1000FE002FF530AE33AF348009E4F52FF530AE3145
:10010E00AF32FC7D0B1201C4AD2D1201D6C374DCCF
:10011E009FFB74059E8062E4F52FF530AE22AF236F
:10012E00FC0201B1E4F52FF530AE31AF32FC7D0BA0
:10013E001201C4AD2D1201D6EF24DCFBEE34058086
:10014E0038E4F52FF530AE33AF34FC7D0B1201C41D
:10015E00AD2D1201D6EF24DCFBEE3405801BE4F549
:10016E002FF530AE35AF36FC7D0B1201C4AD2D121E
:10017E0001D6EF24DCFBEE3405FAAE22AF237C0071
:10018E007D0B1201C4EF2BFFEE3AFE220530E53057
:10019E007002052FD394B8E52F940B4014AE22AF06
:1001AE00237C007D0B1201C4EF24DCFFEE3405FE30
:0601BE0022AE24AF252251
:1002ED00D3E53094B8E52F940B401ED2A1C2A2C223
:1002FD00B4D2B2D3E5309498E52F943A4005E4F5A5
:10030D002FF530AF2E7E008010D2B4C2B2C2A1C282
:10031D00A2E52E252CFFE433FE7C017D2C1201C4B9
:05032D008E268F27223F
:10040E0012000612000312000E1202EDAF29AE28E2
:09041E0012002E8E248F2580F0BF
:10026D0002040EE493A3F8E493A34003F68001F295
:10027D0008DFF48029E493A3F85407240CC8C33392
:10028D00C4540F4420C8834004F456800146F6DF61
:10029D00E4800B01020408102040809003D5E47E19
:1002AD00019360BCA3FF543F30E509541FFEE49356
:1002BD00A360010ECF54C025E060A840B8E493A31D
:1002CD00FAE493A3F8E493A3C8C582C8CAC583CA48
:1002DD00F0A3C8C582C8CAC583CADFE9DEE780BE00
:0103F3000009
:1001C400EF8DF0A4A8F0CF8CF0A428CE8DF0A42E4F
:0201D400FE2209
:1001D600C2D5EC30E709B2D5E4C39DFDE49CFCEE44
:1001E60030E715B2D5E4C39FFFE49EFE12020CC3AE
:1001F600E49DFDE49CFC800312020C30D507C3E4A9
:060206009FFFE49EFE22B2
:10020C00BC000BBE0029EF8DF084FFADF022E4CCD6
:10021C00F875F008EF2FFFEE33FEEC33FCEE9DEC9F
:10022C00984005FCEE9DFE0FD5F0E9E4CEFD22EDE5
:10023C00F8F5F0EE8420D21CFEADF075F008EF2F2F
:10024C00FFED33FD4007985006D5F0F222C398FD20
:05025C000FD5F0EA22BD
:00000001FF
