:030000000200DC1F
:0C00DC00787FE4F6D8FD75812B0201232B
:1002D500022A0000022205DC01200102240ABE01D7
:0202E5002101F5
:10025B00AE28AF29FC7D0A1202E88E248F257F057C
:06026B00E4FEEE6F7017C7
:100271000000751005751190751247D512FDD51145
:05028100FAD510F70E94
:0202860080E511
:010288002253
:1002AB005389F0438901758AE0758CB1C28DD28C6C
:0502BB00D2A9D2AF2220
:030003000202AB4B
:1002FA00C374FF9FFF74FF9EC28C8F8AF58CD28CC9
:01030A0022D0
:03000B000201F1FE
:0701F100C0E0C0D075D0088A
:1001F800E52024FE600E04701ED2A0AF23AE2212AA
:1002080002FA8013C2A0C374209523FF744E95226E
:09021800FE1202FA752000052017
:05022100D0D0D0E03256
:10030B00C374FF9FFF74FF9EC28E8F8BF58DD28EB1
:01031B0022BF
:1002C00053890F438910758BF0758DD8C28FD28EEC
:0502D000D2ABD2AF2209
:09000E00D2B3C2B4C2B20202C0B6
:03001B00020226B8
:07022600C0E0C0D075D01844
:10022D00E52124FE600E04701ED2B3AF25AE24125C
:10023D00030B8013C2B3C374109525FF7427952447
:09024D00FE12030B7521000521CE
:05025600D0D0D0E03221
:10001E008E108F1130A33EE5107038E5112421604B
:10002E001C24F0601A24F8601824FC601624FE606C
:10003E001414601314601224407018807580698047
:10004E005D80548048803C8030052BE52B70020586
:10005E002A80718074E5107070E5112421602424CB
:10006E00F0602A24F8603024FC603324FE603914DA
:10007E00604014604724407050E4F52AF52B7E034F
:10008E007F4122E4F52AF52B7E037FE822E4F52A50
:10009E00F52B7E047FB022E4F52AF52B8026E4F5BD
:1000AE002AF52B7E077F0822E4F52AF52B7E077FA3
:1000BE00D022E4F52AF52B7E087F7622052BE52B40
:0E00CE007002052A7E057FDC22AE22AF2322BF
:10016800D3E52B9488E52A94134047D2A1C2A2C2B2
:10017800B4D2B2E52B64897004E52A6413702212A4
:10018800025BAE28AF297D141202E88E248F257FEA
:100198000812026BAE28AF297D1E1202E88E248F4A
:1001A80025D3E52B9438E52A944A403CE4F52AF512
:1001B8002B22D2B4C2B2C2A1C2A2E52B452A701921
:1001C80012025BAE28AF297D14120262AE28AF2955
:1001D8007D1E1202E88E248F25AE28AF297C007D73
:0901E8001E1202E88E248F25226C
:1002890012000312000EAF907528008F29AF8075F8
:1002990026008F27AE2612001E8E228F2312016898
:0202A90080E4EF
:1000E800020289E493A3F8E493A34003F68001F2A3
:1000F80008DFF48029E493A3F85407240CC8C33319
:10010800C4540F4420C8834004F456800146F6DFE7
:10011800E4800B01020408102040809002D5E47EA0
:10012800019360BCA3FF543F30E509541FFEE493DC
:10013800A360010ECF54C025E060A840B8E493A3A3
:10014800FAE493A3F8E493A3C8C582C8CAC583CACE
:10015800F0A3C8C582C8CAC583CADFE9DEE780BE86
:0102E7000016
:1002E800EF8DF0A4A8F0CF8CF0A428CE8DF0A42E2A
:0202F800FE22E4
:00000001FF
