:0300000002028970
:0C028900787FE4F6D8FD75813A0202D0BF
:100410000233000002300FA0022C0002022405DC8F
:1004200002260ABE06350015001F002D0222000517
:0604300001200101210181
:10046A005389F0438901758AE0758CB1C28DD28CAB
:05047A00D2A9D2AF225F
:0300030002046A8A
:10049400C374FF9FFF74FF9EC28C8F8AF58CD28C2D
:0104A4002235
:03000B000203A647
:0703A600C0E0C0D075D008D3
:1003AD00E52024FE600E04701ED2A0AF25AE2412EF
:1003BD0004948013C2A0C374209525FF744E952418
:0903CD00FE1204947520000520C5
:0503D600D0D0D0E032A0
:1004A500C374FF9FFF74FF9EC28E8F8BF58DD28E16
:0104B5002224
:10047F0053890F438910758BF0758DD8C28FD28E2B
:05048F00D2ABD2AF2248
:09000E00D2B3C2B4C2B202047FF5
:03001B000203DB02
:0703DB00C0E0C0D075D0188E
:1003E200E52124FE600E04701ED2B3AF27AE2612A2
:1003F20004A58013C2B3C374109527FF74279526F2
:09040200FE1204A575210005217C
:05040B00D0D0D0E0326A
:10043700E4F5C9F5C875CC1875CDFC75CA1875CB28
:0A044700FCD2CAC2BDD2ADD2AF2272
:03000600020437BA
:03002B0002036D60
:10036D00C0E0C0D075D000C000C007C2CFAF80754F
:10037D0028008F29AF90752A008F2BEFF4540FF5BD
:10038D0032E52AC4F854F0C8E52BC4540F48F52FB4
:09039D00D007D000D0D0D0E0322E
:10002E008E108F1120A3030200C5E510600302009D
:10003E00C2E51112020E0063000066BF0071DF0000
:10004E007CEF0087F7008EFB0098FD00A2FE00AC4F
:10005E00FF000000C20201ADE4F533F534752E0445
:10006E00020173E4F533F534752E03020156E4F5FF
:10007E0033F534752E01020139E4F533F534803051
:10008E00E4F533F534752E018076E4F533F53475E9
:10009E002E038061E4F533F534752E04804C05345F
:1000AE00E53470020533D39531E53395304005E4E0
:1000BE00F52E806A0201C1E51060030201C1E5114F
:1000CE0012020E00F00000F3BF00FEDF0109EF0187
:1000DE0027F70134FB0151FD016EFE019CFF00006C
:1000EE0001C10201ADE4F533F534AE39AF3A8014F7
:1000FE00E4F533F534AE37AF388009E4F533F53433
:10010E00AE35AF36FC7D0B1201C6AD2F1201D8C332
:10011E0074DC9FFB74059E8062E4F533F534AE22E9
:10012E00AF23FC0201B3E4F533F534AE35AF36FC44
:10013E007D0B1201C6AD2F1201D8EF24DCFBEE347D
:10014E00058038E4F533F534AE37AF38FC7D0B124D
:10015E0001C6AD2F1201D8EF24DCFBEE3405801B57
:10016E00E4F533F534AE39AF3AFC7D0B1201C6AD72
:10017E002F1201D8EF24DCFBEE3405FAAE22AF23AA
:10018E007C007D0B1201C6EF2BFFEE3AFE220534EA
:10019E00E53470020533D39531E53395304014AE16
:1001AE0022AF237C007D0B1201C6EF24DCFFEE3460
:0801BE0005FE22AE24AF25224C
:10031500D3E5349531E53395304031D2A1C2A2C23F
:10032500B4D2B2AF327E007C017DC21201C68E26E8
:100335008F27AC2CAD2DAE30AF311201C6D3E534CD
:100345009FE5339E4021E4F533F53422D2B4C2B2A1
:10035500C2A1C2A2E532252EFFE433FE7C017D2C2D
:080365001201C68E268F27222B
:1004510012000612000312000E120315AF29AE2876
:0904610012002E8E248F2580F07C
:10029500020451E493A3F8E493A34003F68001F22A
:1002A50008DFF48029E493A3F85407240CC8C3336A
:1002B500C4540F4420C8834004F456800146F6DF39
:1002C500E4800B0102040810204080900410E47EB5
:1002D500019360BCA3FF543F30E509541FFEE4932E
:1002E500A360010ECF54C025E060A840B8E493A3F5
:1002F500FAE493A3F8E493A3C8C582C8CAC583CA20
:10030500F0A3C8C582C8CAC583CADFE9DEE780BED7
:0104360000C5
:1001C600EF8DF0A4A8F0CF8CF0A428CE8DF0A42E4D
:0201D600FE2207
:1001D800C2D5EC30E709B2D5E4C39DFDE49CFCEE42
:1001E80030E715B2D5E4C39FFFE49EFE120234C384
:1001F800E49DFDE49CFC800312023430D507C3E47F
:060208009FFFE49EFE22B0
:10020E00D083D082F8E4937012740193700DA3A37F
:10021E0093F8740193F5828883E473740293686093
:06022E00EFA3A3A380DF93
:10023400BC000BBE0029EF8DF084FFADF022E4CCAE
:10024400F875F008EF2FFFEE33FEEC33FCEE9DEC77
:10025400984005FCEE9DFE0FD5F0E9E4CEFD22EDBD
:10026400F8F5F0EE8420D21CFEADF075F008EF2F07
:10027400FFED33FD4007985006D5F0F222C398FDF8
:050284000FD5F0EA2295
:00000001FF
