:10047F000234000002310FA0022D0002022505DC1C
:10048F0002270ABEC18006360015001F002D022369
:08049F00000701210101220107
:1004DB005389F0438901758AE0758CB1C28DD28C3A
:0504EB00D2A9D2AF22EE
:030003000204DB19
:10050500C374FF9FFF74FF9EC28C8F8AF58CD28CBB
:0105150022C3
:03000B00020415D7
:10041500C0E0C0D075D008E52124FE600E04701E32
:10042500D2A0AF26AE251205058013C2A0C3742045
:100435009526FF744E9525FE1205057521000521AB
:05044500D0D0D0E03230
:10051600C374FF9FFF74FF9EC28E8F8BF58DD28EA4
:0105260022B2
:1004F00053890F438910758BF0758DD8C28FD28EBA
:05050000D2ABD2AF22D6
:09000E00D2A6C2A5C2A70204F0AB
:03001B0002044A92
:10044A00C0E0C0D075D018E52224FE600E04701EEC
:10045A00D2A6AF28AE271205168013C2A6C37410FF
:10046A009528FF74279527FE120516752200052286
:05047A00D0D0D0E032FB
:1004A800E4F5C9F5C875CC1875CDFC75CA1875CBB7
:0A04B800FCD2CAC2BDD2ADD2AF2201
:030006000204A849
:03002B000203DCF1
:1003DC00C0E0C0D075D000C000C007C2CFAF8075E0
:1003EC0029008F2AAF90752B008F2CEFF4540FF54A
:1003FC0033E52BC4F854F0C8E52CC4540F48F53041
:09040C00D007D000D0D0D0E032BE
:10002E008E108F1120A3030200DAE5106003020088
:10003E00D7E51112025A0063800066BF0073DF001D
:10004E0080EF008DF70096FB00A3FD00AFFE00BB16
:10005E00FF000000D7020105E4F534F535D2007536
:10006E002F030201BFE4F534F535D200752F0202DD
:10007E00019DE4F534F535D200752F0102017BE4C4
:10008E00F534F535D2008037E4F534F535D2007508
:10009E002F0102013AE4F534F535D200752F0280B6
:1000AE007BE4F534F535D200752F03805F0535E519
:1000BE003570020534D39532E5349531400BE4F5B5
:1000CE002FAE23AF24FC0201FF02020DE5106003E8
:1000DE0002020DE51112025A0105800110BF012026
:1000EE00DF0130EF0154F70171FB0193FD01B5FE05
:1000FE0001E8FF0000020DC200AE23AF247C000217
:10010E0001FFE4F534F535D200752F04AE3AAF3B5E
:10011E00801EE4F534F535D200752F03AE38AF39B5
:10012E00800EE4F534F535D200752F02AE36AF37BA
:10013E00FC7D0B120212AD30120224C374DC9FFB45
:10014E0074059E0201D5E4F534F535D200F52FAED7
:10015E0023AF24FC7D0B120212C374DC9FFF7405C7
:10016E009EFE22E4F534F535D200752F02AE36AF81
:10017E0037FC7D0B120212AD30120224EF24DCFB91
:10018E00EE34058042E4F534F535D200752F03AE1A
:10019E0038AF39FC7D0B120212AD30120224EF245F
:1001AE00DCFBEE34058020E4F534F535D200752FF6
:1001BE0004AE3AAF3BFC7D0B120212AD301202249C
:1001CE00EF24DCFBEE3405FAAE23AF247C007D0B6E
:1001DE00120212EF2BFFEE3AFE220535E5357002C4
:1001EE000534D39532E53495314014AE23AF247CDB
:1001FE00007D0B120212EF24DCFFEE3405FE22AE60
:04020E0025AF2622D0
:10036100D3E5359532E5349531404CD2A1C2A2C2D4
:10037100A5D2A7E53224F4FFE5313401FEC3E5350A
:100381009FE5349E5008752717752870800FAF338D
:100391007E007C017D2C1202128E278F28AC2DADA0
:1003A1002EAE31AF32120212D3E5359FE5349E40B5
:1003B10029E4F534F5352230001CD2A5C2A7C2A12B
:1003C100C2A2E533252FFFE433FE7C017D2C12020E
:0B03D100128E278F2822C2A7C2A5228F
:1004C20012000612000312000EAF2AAE2912002EED
:0904D2008E258F2612036180F0D3
:030000000202D524
:0C02D500787FE4F6D8FD75813B02031C25
:1002E1000204C2E493A3F8E493A34003F68001F26D
:1002F10008DFF48029E493A3F85407240CC8C3331E
:10030100C4540F4420C8834004F456800146F6DFEC
:10031100E4800B010204081020408090047FE47EF9
:10032100019360BCA3FF543F30E509541FFEE493E1
:10033100A360010ECF54C025E060A840B8E493A3A8
:10034100FAE493A3F8E493A3C8C582C8CAC583CAD3
:10035100F0A3C8C582C8CAC583CADFE9DEE780BE8B
:0104A7000054
:10021200EF8DF0A4A8F0CF8CF0A428CE8DF0A42E00
:02022200FE22BA
:10022400C2D5EC30E709B2D5E4C39DFDE49CFCEEF5
:1002340030E715B2D5E4C39FFFE49EFE120280C3EB
:10024400E49DFDE49CFC800312028030D507C3E4E6
:060254009FFFE49EFE2264
:10025A00D083D082F8E4937012740193700DA3A333
:10026A0093F8740193F5828883E473740293686047
:06027A00EFA3A3A380DF47
:10028000BC000BBE0029EF8DF084FFADF022E4CC62
:10029000F875F008EF2FFFEE33FEEC33FCEE9DEC2B
:1002A000984005FCEE9DFE0FD5F0E9E4CEFD22ED71
:1002B000F8F5F0EE8420D21CFEADF075F008EF2FBB
:1002C000FFED33FD4007985006D5F0F222C398FDAC
:0502D0000FD5F0EA2249
:00000001FF
