:030000000202A257
:0C02A200787FE4F6D8FD75813A0202E98D
:100429000233000002300FA0022C0002022405DC76
:1004390002260ABE06350015001F002D0222000003
:0604490001200101210168
:100483005389F0438901758AE0758CB1C28DD28C92
:05049300D2A9D2AF2246
:0300030002048371
:1004AD00C374FF9FFF74FF9EC28C8F8AF58CD28C14
:0104BD00221C
:03000B000203BF2E
:0703BF00C0E0C0D075D008BA
:1003C600E52024FE600E04701ED2A0AF25AE2412D6
:1003D60004AD8013C2A0C374209525FF744E9524E6
:0903E600FE1204AD752000052093
:0503EF00D0D0D0E03287
:1004BE00C374FF9FFF74FF9EC28E8F8BF58DD28EFD
:0104CE00220B
:1004980053890F438910758BF0758DD8C28FD28E12
:0504A800D2ABD2AF222F
:09000E00D2B3C2B4C2B2020498DC
:03001B000203F4E9
:0703F400C0E0C0D075D01875
:1003FB00E52124FE600E04701ED2B3AF27AE261289
:10040B0004BE8013C2B3C374109527FF74279526BF
:09041B00FE1204BE75210005214A
:05042400D0D0D0E03251
:10045000E4F5C9F5C875CC1875CDFC75CA1875CB0F
:0A046000FCD2CAC2BDD2ADD2AF2259
:03000600020450A1
:03002B0002038647
:10038600C0E0C0D075D000C000C007C2CFAF807536
:1003960028008F29AF90752A008F2BEFF4540FF5A4
:1003A60032E52AC4F854F0C8E52BC4540F48F52F9B
:0903B600D007D000D0D0D0E03215
:10002E008E108F1120A3030200CCE5106003020096
:10003E00C9E5111202270063800066BF0071DF0060
:10004E007CEF0087F7008EFB0099FD00A3FE00AD4C
:10005E00FF000000C90200F7E4F533F534752E04F5
:10006E0002018CE4F533F534752E0302016FE4F5CD
:10007E0033F534752E01020152E4F533F534803137
:10008E00E4F533F534752E0102011BE4F533F53436
:10009E00752E03806DE4F533F534752E0480580506
:1000AE0034E53470020533D39531E5339530400B8A
:1000BE00E4F52EAE22AF23FC0201CC0201DAE510EC
:1000CE0060030201DAE51112022700F7800100BF7A
:1000DE00010BDF0116EF0134F7014DFB016AFD0143
:1000EE0087FE01B5FF000001DAAE22AF237C0002CD
:1000FE0001CCE4F533F534AE39AF3A8014E4F53380
:10010E00F534AE37AF388009E4F533F534AE35AF9C
:10011E0036FC7D0B1201DFAD2F1201F1C374DC9F93
:10012E00FB74059E806EE4F533F534AE22AF23FCEE
:10013E007D0B1201DFC374DC9FFF74059EFE22E46B
:10014E00F533F534AE35AF36FC7D0B1201DFAD2F36
:10015E001201F1EF24DCFBEE34058038E4F533F5C3
:10016E0034AE37AF38FC7D0B1201DFAD2F1201F12B
:10017E00EF24DCFBEE3405801BE4F533F534AE39A9
:10018E00AF3AFC7D0B1201DFAD2F1201F1EF24DC33
:10019E00FBEE3405FAAE22AF237C007D0B1201DF9D
:1001AE00EF2BFFEE3AFE220534E53470020533D311
:1001BE009531E53395304014AE22AF237C007D0B94
:1001CE001201DFEF24DCFFEE3405FE22AE24AF2554
:0101DE0022FE
:10032E00D3E5349531E53395304031D2A1C2A2C226
:10033E00B4D2B2AF327E007C017DC21201DF8E26B6
:10034E008F27AC2CAD2DAE30AF311201DFD3E5349B
:10035E009FE5339E4021E4F533F53422D2B4C2B288
:10036E00C2A1C2A2E532252EFFE433FE7C017D2C14
:08037E001201DF8E268F2722F9
:10046A0012000612000312000E12032EAF29AE2844
:09047A0012002E8E248F2580F063
:1002AE0002046AE493A3F8E493A34003F68001F2F8
:1002BE0008DFF48029E493A3F85407240CC8C33351
:1002CE00C4540F4420C8834004F456800146F6DF20
:1002DE00E4800B0102040810204080900429E47E83
:1002EE00019360BCA3FF543F30E509541FFEE49315
:1002FE00A360010ECF54C025E060A840B8E493A3DC
:10030E00FAE493A3F8E493A3C8C582C8CAC583CA06
:10031E00F0A3C8C582C8CAC583CADFE9DEE780BEBE
:01044F0000AC
:1001DF00EF8DF0A4A8F0CF8CF0A428CE8DF0A42E34
:0201EF00FE22EE
:1001F100C2D5EC30E709B2D5E4C39DFDE49CFCEE29
:1002010030E715B2D5E4C39FFFE49EFE12024DC351
:10021100E49DFDE49CFC800312024D30D507C3E44C
:060221009FFFE49EFE2297
:10022700D083D082F8E4937012740193700DA3A366
:1002370093F8740193F5828883E47374029368607A
:06024700EFA3A3A380DF7A
:10024D00BC000BBE0029EF8DF084FFADF022E4CC95
:10025D00F875F008EF2FFFEE33FEEC33FCEE9DEC5E
:10026D00984005FCEE9DFE0FD5F0E9E4CEFD22EDA4
:10027D00F8F5F0EE8420D21CFEADF075F008EF2FEE
:10028D00FFED33FD4007985006D5F0F222C398FDDF
:05029D000FD5F0EA227C
:00000001FF
