:03000000020156A4
:0C015600787FE4F6D8FD75812F02019D32
:10040D00022E0000022205DC01200102240ABE0199
:02041D002101BB
:10038200AE2CAF2DFC7D6412026D8E248F257F056D
:06039200E4FEEE6F70179F
:100398000000751005751190751247D512FDD5111D
:0503A800FAD510F70E6C
:0203AD0080E5E9
:0103AF00222B
:1003E3005389F0438901758AE0758CB1C28DD28C33
:0503F300D2A9D2AF22E7
:030003000203E312
:10042000C374FF9FFF74FF9EC28C8F8AF58CD28CA1
:0104300022A9
:03000B00020318D5
:07031800C0E0C0D075D00861
:10031F00E52024FE600E04701ED2A0AF23AE221281
:10032F0004208013C2A0C374209523FF744E95221E
:09033F00FE1204207520000520C7
:05034800D0D0D0E0322E
:10043100C374FF9FFF74FF9EC28E8F8BF58DD28E8A
:010441002298
:1003F80053890F438910758BF0758DD8C28FD28EB3
:05040800D2ABD2AF22CF
:09000E00D2B3C2B4C2B20203F87D
:03001B0002034D90
:07034D00C0E0C0D075D0181C
:10035400E52124FE600E04701ED2B3AF25AE241234
:1003640004318013C2B3C374109525FF74279524F8
:09037400FE12043175210005217F
:05037D00D0D0D0E032F9
:1003B000E4F5C9F5C875CC1875CDFF75CA1875CBAD
:0A03C000FFD2CAC2BDD2ADD2AF22F7
:030006000203B042
:03002B000202D4FA
:1002D400C0E0C0D075D000C000C007C2CFAF8075E9
:1002E40026008F27AF907528008F29E529F4FF7524
:1002F4002C00EF540FF52DE528C4F854F0C8E52977
:10030400C4540F48752A00540FF52BD007D000D0E1
:04031400D0D0E03233
:10002E008E108F1130A347E5107040E5112421602A
:10003E001F24F0601D24F8601B24FC601A24FE604F
:10004E001914601914601924406003020151805282
:10005E00806480760200F60200FD02011102012585
:10006E00052FE52F7002052E02014C020151E510FD
:10007E006003020151E5112441700302012524E0C1
:10008E00700302011124F0606624F8605B24FC60AA
:10009E003924FE602124FE70030201440460030231
:1000AE000151E4F52EF52FE52B2401FDE4352AFC54
:1000BE007E017FF48026E4F52EF52FE52B2401FD3D
:1000CE00E4352AFC7E017F4C8012E4F52EF52FE5F7
:1000DE002B2401FDE4352AFC7E007FA612027FEF61
:1000EE0024DCFFEE3405FE22E4F52EF52F804FE4DE
:1000FE00F52EF52FE52B2401FDE4352AFC7E007F3D
:10010E00A68026E4F52EF52FE52B2401FDE4352AF5
:10011E00FC7E017F4C8012E4F52EF52FE52B240199
:10012E00FDE4352AFC7E017FF412027FC374DC9F4E
:10013E00FF74059EFE22052FE52F7002052E7E050B
:08014E007FDC22AE22AF232268
:1001E200D3E52F94B8E52E940B4048D2A1C2A2C207
:1001F200B4D2B2E52F64D17004E52E6407702312E5
:100202000382AE2CAF2D7DC812026D8E248F257F06
:1002120008120392AE2CAF2D0C7D2C12026D8E248F
:100222008F25D3E52F9420E52E944E403DE4F52E04
:10023200F52F22D2B4C2B2C2A1C2A2E52F452E70BE
:100242001A120382AE2CAF2D7DC8120389AE2CAFD9
:100252002D0C7D2C12026D8E248F25AE2CAF2D7CA1
:0B026200017D2C12026D8E248F2522DE
:1003CA0012000612000312000EAF27AE2612002EEC
:0903DA008E228F231201E280F053
:100162000203CAE493A3F8E493A34003F68001F2E6
:1001720008DFF48029E493A3F85407240CC8C3339E
:10018200C4540F4420C8834004F456800146F6DF6D
:10019200E4800B010204081020408090040DE47EEC
:1001A200019360BCA3FF543F30E509541FFEE49362
:1001B200A360010ECF54C025E060A840B8E493A329
:1001C200FAE493A3F8E493A3C8C582C8CAC583CA54
:1001D200F0A3C8C582C8CAC583CADFE9DEE780BE0C
:01041F0000DC
:10026D00EF8DF0A4A8F0CF8CF0A428CE8DF0A42EA5
:02027D00FE225F
:10027F00BC000BBE0029EF8DF084FFADF022E4CC63
:10028F00F875F008EF2FFFEE33FEEC33FCEE9DEC2C
:10029F00984005FCEE9DFE0FD5F0E9E4CEFD22ED72
:1002AF00F8F5F0EE8420D21CFEADF075F008EF2FBC
:1002BF00FFED33FD4007985006D5F0F222C398FDAD
:0502CF000FD5F0EA224A
:00000001FF
