:03000000020141B9
:0C014100787FE4F6D8FD75813502018856
:10039B00022E0000022205DC01200102240ABE010C
:0A03AB00210106300015001F002D8F
:10036D00AE2CAF2DFC7D641202588E248F257F0597
:06037D00E4FEEE6F7017B4
:100383000000751005751190751247D512FDD51132
:05039300FAD510F70E81
:0203980080E5FE
:01039A002240
:1003E9005389F0438901758AE0758CB1C28DD28C2D
:0503F900D2A9D2AF22E1
:030003000203E90C
:10041300C374FF9FFF74FF9EC28C8F8AF58CD28CAE
:0104230022B6
:03000B00020303EA
:07030300C0E0C0D075D00876
:10030A00E52024FE600E04701ED2A0AF23AE221296
:10031A0004138013C2A0C374209523FF744E952240
:09032A00FE1204137520000520E9
:05033300D0D0D0E03243
:10042400C374FF9FFF74FF9EC28E8F8BF58DD28E97
:0104340022A5
:1003FE0053890F438910758BF0758DD8C28FD28EAD
:05040E00D2ABD2AF22C9
:09000E00D2B3C2B4C2B20203FE77
:03001B00020338A5
:07033800C0E0C0D075D01831
:10033F00E52124FE600E04701ED2B3AF25AE241249
:10034F0004248013C2B3C374109525FF742795241A
:09035F00FE1204247521000521A1
:05036800D0D0D0E0320E
:1003B600E4F5C9F5C875CC1875CDFF75CA1875CBA7
:0A03C600FFD2CAC2BDD2ADD2AF22F1
:030006000203B63C
:03002B000202BF0F
:1002BF00C0E0C0D075D000C000C007C2CFAF8075FE
:1002CF0026008F27AF907528008F29E529F4FF7539
:1002DF002C00EF540FF52DE528C4F854F0C8E5298C
:1002EF00C4540F48752A00540FF52BD007D000D0F7
:0402FF00D0D0E03249
:10002E008E108F1130A350E5107049E51124216018
:10003E001F24F0601D24F8601B24FC601A24FE604F
:10004E00191460191460192440600302013C805594
:10005E00805E80670200ED0200F40200FF02010ADA
:10006E00052FE52F7002052ED394B8E52E940B4084
:10007E000302013702013CE510600302013CE51169
:10008E002441607824E0606924F0605A24F8604FBF
:10009E0024FC602724FE601824FE700302012F0446
:1000AE00600302013CE4F52EF52FAE34AF3580141B
:1000BE00E4F52EF52FAE32AF338009E4F52EF52F91
:1000CE00AE30AF31FC7D0B120258E52B2401FDE45E
:1000DE00352AFC12026AEF24DCFFEE3405FE22E420
:1000EE00F52EF52F8043E4F52EF52FAE30AF31808F
:1000FE0014E4F52EF52FAE32AF338009E4F52EF56C
:10010E002FAE34AF35FC7D0B120258E52B2401FDCA
:10011E00E4352AFC12026AC374DC9FFF74059EFE4E
:10012E0022052FE52F7002052E7E057FDC22AE22E2
:03013E00AF2322CA
:1001CD00D3E52F94B8E52E940B4048D2A1C2A2C21C
:1001DD00B4D2B2E52F64B97004E52E640B7023120E
:1001ED00036DAE2CAF2D7DC81202588E248F257F46
:1001FD000812037DAE2CAF2D0C7D2D1202588E24CE
:10020D008F25D3E52F9450E52E9446403DE4F52EF1
:10021D00F52F22D2B4C2B2C2A1C2A2E52F452E70D3
:10022D001A12036DAE2CAF2D7DC8120374AE2CAF18
:10023D002D0C7D2C1202588E248F25AE2CAF2D7CCB
:0B024D00017D2C1202588E248F252208
:1003D00012000612000312000EAF27AE2612002EE6
:0903E0008E228F231201CD80F062
:10014D000203D0E493A3F8E493A34003F68001F2F5
:10015D0008DFF48029E493A3F85407240CC8C333B3
:10016D00C4540F4420C8834004F456800146F6DF82
:10017D00E4800B010204081020408090039BE47E74
:10018D00019360BCA3FF543F30E509541FFEE49377
:10019D00A360010ECF54C025E060A840B8E493A33E
:1001AD00FAE493A3F8E493A3C8C582C8CAC583CA69
:1001BD00F0A3C8C582C8CAC583CADFE9DEE780BE21
:0103B5000047
:10025800EF8DF0A4A8F0CF8CF0A428CE8DF0A42EBA
:02026800FE2274
:10026A00BC000BBE0029EF8DF084FFADF022E4CC78
:10027A00F875F008EF2FFFEE33FEEC33FCEE9DEC41
:10028A00984005FCEE9DFE0FD5F0E9E4CEFD22ED87
:10029A00F8F5F0EE8420D21CFEADF075F008EF2FD1
:1002AA00FFED33FD4007985006D5F0F222C398FDC2
:0502BA000FD5F0EA225F
:00000001FF
