:10043900012C010234000002310FA0022D0002023A
:100449002405DC02260ABE06360015001F002D020F
:090459002200050120010121012E
:100496005389F0438901758AE0758CB1C28DD28C7F
:0504A600D2A9D2AF2233
:030003000204965E
:1004C000C374FF9FFF74FF9EC28C8F8AF58CD28C01
:0104D0002209
:03000B000203CF1E
:1003CF00C0E0C0D075D008E52024FE600E04701E7A
:1003DF00D2A0AF25AE241204C08013C2A0C37420D4
:1003EF009525FF744E9524FE1204C075200005203C
:0503FF00D0D0D0E03277
:1004D100C374FF9FFF74FF9EC28E8F8BF58DD28EEA
:0104E10022F8
:1004AB0053890F438910758BF0758DD8C28FD28EFF
:0504BB00D2ABD2AF221C
:09000E00D2B3C2B4C2B20204ABC9
:03001B00020404D8
:10040400C0E0C0D075D018E52124FE600E04701E33
:10041400D2B3AF27AE261204D18013C2B3C3741073
:100424009527FF74279526FE1204D1752100052116
:05043400D0D0D0E03241
:10046300E4F5C9F5C875CC1875CDFC75CA1875CBFC
:0A047300FCD2CAC2BDD2ADD2AF2246
:030006000204638E
:03002B0002039637
:10039600C0E0C0D075D000C000C007C2CFAF807526
:1003A60028008F29AF90752A008F2BEFF4540FF594
:1003B60033E52AC4F854F0C8E52BC4540F48F53089
:0903C600D007D000D0D0D0E03205
:10002E008E108F1130A373E510706CE51112022D36
:10003E00005D80005FBF0062DF0065EF0073F700B8
:10004E007DFB008BFD008DFE008FFF000000A58064
:10005E0074020187020164E4F534F535752C0175DF
:10006E002F0102014CE4F534F535752C018024E4A2
:10007E00F534F535752C01752F0102010B80628068
:10008E004F0535E53570020534D39532E53495319B
:10009E004005E4F52F80310201E0E5106003020116
:1000AE00E0E51112022D00D38000DEBF00EFDF016C
:1000BE0000EF0125F70141FB0164FD0187FE01BB45
:1000CE00FF000001E0E4F52CAE22AF23FC0201D2CA
:1000DE00E4F534F535752C01752F04AE3AAF3B803F
:1000EE0020E4F534F535752C01752F03AE38AF3994
:1000FE00800FE4F534F535752C01752F02AE36AF51
:10010E0037FC7D0B1201E5AD301201F7C374DC9F95
:10011E00FB74059E0201A8E4F534F535752C01AE8D
:10012E0022AF23FC7D0B1201E5C374DC9FFF740527
:10013E009EFE22E4F534F535752C01752F02AE3690
:10014E00AF37FC7D0B1201E5AD301201F7EF24DC69
:10015E00FBEE34058044E4F534F535752C01752F2E
:10016E0003AE38AF39FC7D0B1201E5AD301201F74D
:10017E00EF24DCFBEE34058021E4F534F535752CE7
:10018E0001752F04AE3AAF3BFC7D0B1201E5AD308D
:10019E001201F7EF24DCFBEE3405FAAE22AF237C1E
:1001AE00007D0B1201E5EF2BFFEE3AFE220535E541
:1001BE003570020534D39532E53495314014AE22B4
:1001CE00AF237C007D0B1201E5EF24DCFFEE34053E
:0701DE00FE22AE24AF252232
:10033400D3E5359532E53495314031D2A1C2A2C21C
:10034400B4D2B2AF337E007C017DC21201E58E26A9
:100354008F27AC2DAD2EAE31AF321201E5D3E5358A
:100364009FE5349E402BE4F534F53522E52CB401A9
:100374001CD2B4C2B2C2A1C2A2E533252FFFE4331A
:10038400FE7C017D2C1201E58E268F2722C2B2C28B
:02039400B42291
:10047D0012000612000312000EAF29AE2812002E34
:09048D008E248F2512033480F047
:030000000202A851
:0C02A800787FE4F6D8FD75813B0202EF80
:1002B40002047DE493A3F8E493A34003F68001F2DF
:1002C40008DFF48029E493A3F85407240CC8C3334B
:1002D400C4540F4420C8834004F456800146F6DF1A
:1002E400E4800B0102040810204080900439E47E6D
:1002F400019360BCA3FF543F30E509541FFEE4930F
:10030400A360010ECF54C025E060A840B8E493A3D5
:10031400FAE493A3F8E493A3C8C582C8CAC583CA00
:10032400F0A3C8C582C8CAC583CADFE9DEE780BEB8
:010462000099
:1001E500EF8DF0A4A8F0CF8CF0A428CE8DF0A42E2E
:0201F500FE22E8
:1001F700C2D5EC30E709B2D5E4C39DFDE49CFCEE23
:1002070030E715B2D5E4C39FFFE49EFE120253C345
:10021700E49DFDE49CFC800312025330D507C3E440
:060227009FFFE49EFE2291
:10022D00D083D082F8E4937012740193700DA3A360
:10023D0093F8740193F5828883E473740293686074
:06024D00EFA3A3A380DF74
:10025300BC000BBE0029EF8DF084FFADF022E4CC8F
:10026300F875F008EF2FFFEE33FEEC33FCEE9DEC58
:10027300984005FCEE9DFE0FD5F0E9E4CEFD22ED9E
:10028300F8F5F0EE8420D21CFEADF075F008EF2FE8
:10029300FFED33FD4007985006D5F0F222C398FDD9
:0502A3000FD5F0EA2276
:00000001FF
