:0300000002026198
:0C026100787FE4F6D8FD75813A0202A80F
:1003E8000233000002300FA0022C0002022405DCB8
:1003F80002260ABE06350015001F002D0222FFFB4B
:06040800012001012101A9
:100442005389F0438901758AE0758CB1C28DD28CD3
:05045200D2A9D2AF2287
:03000300020442B2
:10046C00C374FF9FFF74FF9EC28C8F8AF58CD28C55
:01047C00225D
:03000B0002037E6F
:07037E00C0E0C0D075D008FB
:10038500E52024FE600E04701ED2A0AF25AE241217
:10039500046C8013C2A0C374209525FF744E952468
:0903A500FE12046C752000052015
:0503AE00D0D0D0E032C8
:10047D00C374FF9FFF74FF9EC28E8F8BF58DD28E3E
:01048D00224C
:1004570053890F438910758BF0758DD8C28FD28E53
:05046700D2ABD2AF2270
:09000E00D2B3C2B4C2B20204571D
:03001B000203B32A
:0703B300C0E0C0D075D018B6
:1003BA00E52124FE600E04701ED2B3AF27AE2612CA
:1003CA00047D8013C2B3C374109527FF7427952642
:0903DA00FE12047D7521000521CD
:0503E300D0D0D0E03293
:10040F00E4F5C9F5C875CC1875CDFC75CA1875CB50
:0A041F00FCD2CAC2BDD2ADD2AF229A
:0300060002040FE2
:03002B0002034588
:10034500C0E0C0D075D000C000C007C2CFAF807577
:1003550028008F29AF90752A008F2BEFF4540FF5E5
:1003650032E52AC4F854F0C8E52BC4540F48F52FDC
:09037500D007D000D0D0D0E03256
:10002E008E108F1120A3030200C1E51060030200A1
:10003E00BEE5112421602824F0602F24F8603624B8
:10004E00FC603924FE603F14604614604D2440600D
:10005E00030201BFE4F533F534752E04020171E499
:10006E00F533F534752E03020154E4F533F534758A
:10007E002E01020137E4F533F5348030E4F533F523
:10008E0034752E018078E4F533F534752E038063D4
:10009E00E4F533F534752E04804E0534E5347002E4
:1000AE000533D39531E53395304005E4F52E806C5C
:1000BE000201BFE51060030201BFE5112421602E8D
:1000CE0024F0603524F8604F24FC605824FE6071E3
:1000DE0014700302016C14700302019A2440600331
:1000EE000201BFE4F533F534AE39AF3A8014E4F5CE
:1000FE0033F534AE37AF388009E4F533F534AE3529
:10010E00AF36FC7D0B1201C4AD2F1201D6C374DCC9
:10011E009FFB74059E8062E4F533F534AE22AF2367
:10012E00FC0201B1E4F533F534AE35AF36FC7D0B90
:10013E001201C4AD2F1201D6EF24DCFBEE34058084
:10014E0038E4F533F534AE37AF38FC7D0B1201C40D
:10015E00AD2F1201D6EF24DCFBEE3405801BE4F547
:10016E0033F534AE39AF3AFC7D0B1201C4AD2F120C
:10017E0001D6EF24DCFBEE3405FAAE22AF237C0071
:10018E007D0B1201C4EF2BFFEE3AFE220534E5344F
:10019E0070020533D39531E53395304014AE22AF5E
:1001AE00237C007D0B1201C4EF24DCFFEE3405FE30
:0601BE0022AE24AF252251
:1002ED00D3E5349531E53395304031D2A1C2A2C268
:1002FD00B4D2B2AF327E007C017DC21201C48E2613
:10030D008F27AC2CAD2DAE30AF311201C4D3E534F7
:10031D009FE5339E4021E4F533F53422D2B4C2B2C9
:10032D00C2A1C2A2E532252EFFE433FE7C017D2C55
:08033D001201C48E268F272255
:1004290012000612000312000E1202EDAF29AE28C7
:0904390012002E8E248F2580F0A4
:10026D00020429E493A3F8E493A34003F68001F27A
:10027D0008DFF48029E493A3F85407240CC8C33392
:10028D00C4540F4420C8834004F456800146F6DF61
:10029D00E4800B01020408102040809003E8E47E06
:1002AD00019360BCA3FF543F30E509541FFEE49356
:1002BD00A360010ECF54C025E060A840B8E493A31D
:1002CD00FAE493A3F8E493A3C8C582C8CAC583CA48
:1002DD00F0A3C8C582C8CAC583CADFE9DEE780BE00
:01040E0000ED
:1001C400EF8DF0A4A8F0CF8CF0A428CE8DF0A42E4F
:0201D400FE2209
:1001D600C2D5EC30E709B2D5E4C39DFDE49CFCEE44
:1001E60030E715B2D5E4C39FFFE49EFE12020CC3AE
:1001F600E49DFDE49CFC800312020C30D507C3E4A9
:060206009FFFE49EFE22B2
:10020C00BC000BBE0029EF8DF084FFADF022E4CCD6
:10021C00F875F008EF2FFFEE33FEEC33FCEE9DEC9F
:10022C00984005FCEE9DFE0FD5F0E9E4CEFD22EDE5
:10023C00F8F5F0EE8420D21CFEADF075F008EF2F2F
:10024C00FFED33FD4007985006D5F0F222C398FD20
:05025C000FD5F0EA22BD
:00000001FF
