:030000000202C831
:0C02C800787FE4F6D8FD75813B02030F3F
:10045500012C010234000002310FA0022D0002021E
:100465002405DC02260ABE06360015001F002D02F3
:0904750022000001200101210117
:1004B2005389F0438901758AE0758CB1C28DD28C63
:0504C200D2A9D2AF2217
:030003000204B242
:1004DC00C374FF9FFF74FF9EC28C8F8AF58CD28CE5
:0104EC0022ED
:03000B000203EB02
:0703EB00C0E0C0D075D0088E
:1003F200E52024FE600E04701ED2A0AF25AE2412AA
:1004020004DC8013C2A0C374209525FF744E95248A
:09041200FE1204DC752000052037
:05041B00D0D0D0E0325A
:1004ED00C374FF9FFF74FF9EC28E8F8BF58DD28ECE
:0104FD0022DC
:1004C70053890F438910758BF0758DD8C28FD28EE3
:0504D700D2ABD2AF2200
:09000E00D2B3C2B4C2B20204C7AD
:03001B00020420BC
:07042000C0E0C0D075D01848
:10042700E52124FE600E04701ED2B3AF27AE26125C
:1004370004ED8013C2B3C374109527FF7427952664
:09044700FE1204ED7521000521EF
:05045000D0D0D0E03225
:10047F00E4F5C9F5C875CC1875CDFC75CA1875CBE0
:0A048F00FCD2CAC2BDD2ADD2AF222A
:0300060002047F72
:03002B000203B21B
:1003B200C0E0C0D075D000C000C007C2CFAF80750A
:1003C20028008F29AF90752A008F2BEFF4540FF578
:1003D20033E52AC4F854F0C8E52BC4540F48F5306D
:0903E200D007D000D0D0D0E032E9
:10002E008E108F1120A3030200DBE5106003020087
:10003E00D8E51112024D0063800066BF0074DF0028
:10004E0082EF0090F7009AFB00A8FD00B5FE00C2FB
:10005E00FF000000D8020106E4F534F535752C01D9
:10006E00752F040201B2E4F534F535752C01752FA8
:10007E0003020192E4F534F535752C01752F01025A
:10008E000172E4F534F535752C01803AE4F534F55A
:10009E0035752C01752F01020135E4F534F53575F2
:1000AE002C01752F038072E4F534F535752C01752E
:1000BE002F0480570535E53570020534D39532E5AA
:1000CE003495314005E4F52F8031020200E51060D1
:1000DE0003020200E51112024D0106800111BF015B
:1000EE001FDF012DEF014EF7016AFB018AFD01AA08
:1000FE00FE01DBFF00000200E4F52CAE22AF23FC74
:10010E000201F2E4F534F535752C01AE3AAF3B80C1
:10011E001AE4F534F535752C01AE38AF39800CE4A0
:10012E00F534F535752C01AE36AF37FC7D0B12026A
:10013E0005AD30120217C374DC9FFB74059E807AE6
:10014E00E4F534F535752C01AE22AF23FC7D0B1290
:10015E000205C374DC9FFF74059EFE22E4F534F5A0
:10016E0035752C01AE36AF37FC7D0B120205AD3066
:10017E00120217EF24DCFBEE3405803EE4F534F575
:10018E0035752C01AE38AF39FC7D0B120205AD3042
:10019E00120217EF24DCFBEE3405801EE4F534F575
:1001AE0035752C01AE3AAF3BFC7D0B120205AD301E
:1001BE00120217EF24DCFBEE3405FAAE22AF237CDD
:1001CE00007D0B120205EF2BFFEE3AFE220535E500
:1001DE003570020534D39532E53495314014AE2294
:1001EE00AF237C007D0B120205EF24DCFFEE3405FD
:0701FE00FE22AE24AF252212
:10035400D3E5359532E53495314031D2A1C2A2C2FC
:10036400B4D2B2AF337E007C017DC21202058E2668
:100374008F27AC2DAD2EAE31AF32120205D3E53549
:100384009FE5349E4027E4F534F53522D2B4C2B259
:10039400C2A1C2A2E533252FFFE433FE7C017D2CEC
:0E03A400120205AD2C1C1202058E268F272298
:1004990012000612000312000E120354AF29AE28EF
:0904A90012002E8E248F2580F034
:1002D400020499E493A3F8E493A34003F68001F2A3
:1002E40008DFF48029E493A3F85407240CC8C3332B
:1002F400C4540F4420C8834004F456800146F6DFFA
:10030400E4800B0102040810204080900455E47E30
:10031400019360BCA3FF543F30E509541FFEE493EE
:10032400A360010ECF54C025E060A840B8E493A3B5
:10033400FAE493A3F8E493A3C8C582C8CAC583CAE0
:10034400F0A3C8C582C8CAC583CADFE9DEE780BE98
:01047E00007D
:10020500EF8DF0A4A8F0CF8CF0A428CE8DF0A42E0D
:02021500FE22C7
:10021700C2D5EC30E709B2D5E4C39DFDE49CFCEE02
:1002270030E715B2D5E4C39FFFE49EFE120273C305
:10023700E49DFDE49CFC800312027330D507C3E400
:060247009FFFE49EFE2271
:10024D00D083D082F8E4937012740193700DA3A340
:10025D0093F8740193F5828883E473740293686054
:06026D00EFA3A3A380DF54
:10027300BC000BBE0029EF8DF084FFADF022E4CC6F
:10028300F875F008EF2FFFEE33FEEC33FCEE9DEC38
:10029300984005FCEE9DFE0FD5F0E9E4CEFD22ED7E
:1002A300F8F5F0EE8420D21CFEADF075F008EF2FC8
:1002B300FFED33FD4007985006D5F0F222C398FDB9
:0502C3000FD5F0EA2256
:00000001FF
