:0604EE000015001F002DA7
:100449000234000002310FA0022D0002022505DC52
:1004590002270ABEC181C100022300050121010151
:0204690022016E
:0B000E00D2A8C288C2B2C2B6C2B7229C
:03000300020006F2
:05000600B200B28E32D1
:1004A2005389F0438901758AE0758CB1C28DD28C73
:0504B200D2A9D2AF2227
:030027000204A22E
:1004CC00C374FF9FFF74FF9EC28C8F8AF58CD28CF5
:0104DC0022FD
:03000B000203DF0E
:1003DF00C0E0C0D075D008E52124FE600E04701E69
:1003EF00D2A0AF26AE251204CC8013C2A0C37420B6
:1003FF009526FF744E9525FE1204CC75210005211C
:05040F00D0D0D0E03266
:1004DD00C374FF9FFF74FF9EC28E8F8BF58DD28EDE
:0104ED0022EC
:1004B70053890F438910758BF0758DD8C28FD28EF3
:0504C700D2ABD2AF2210
:09001E00D2A6C2A5C2A70204B7D4
:03001B00020414C8
:10041400C0E0C0D075D018E52224FE600E04701E22
:10042400D2A6AF28AE271204DD8013C2A6C374106F
:100434009528FF74279527FE1204DD7522000522F6
:05044400D0D0D0E03231
:10048800E4F5C9F5C875CC1875CDFC75CA1875CBD7
:0A049800FCD2CAC2BDD2ADD2AF2221
:0304F40002048877
:03002B000203A627
:1003A600C0E0C0D075D000C000C007C2CFAF807516
:1003B60029008F2AAF90752B008F2CEFF4540FF580
:1003C60033E52BC4F854F0C8E52CC4540F48F53077
:0903D600D007D000D0D0D0E032F5
:10002E008E108F1130A376E510706FE51112023F1E
:10003E00005D80005FBF0062DF0065EF0072F700B9
:10004E007BFB0088FD008AFE008CFF000000A8806C
:10005E007702019402016CE4F534F535D201752F67
:10006E000102014EE4F534F535D2018023E4F53476
:10007E00F535D201752F01020109806680550535CF
:10008E00E53570020534D39532E5349531400BE4F5
:10009E00F52FAE23AF24FC0201E40201F2E510605D
:1000AE00030201F2E51112023F00D68000E1BF000B
:1000BE00F0DF00FFEF0129F70144FB016CFD019415
:1000CE00FE01CDFF000001F2C201AE23AF247C0081
:1000DE000201E4E4F534F535D201752F049004F2F3
:1000EE00801CE4F534F535D201752F039004F080B1
:1000FE000DE4F534F535D201752F029004EE93FE22
:10010E00740193FF7C007D0B1201F7AD30120209D2
:10011E00C374DC9FFB74059E0201BAE4F534F53519
:10012E00D201AE23AF24FC7D0B1201F7C374DC9F0A
:10013E00FF74059EFE22E4F534F535D201752F02CB
:10014E009004EE93FE740193FF7C007D0B1201F779
:10015E00AD30120209EF24DCFBEE3405804EE4F5DF
:10016E0034F535D201752F039004F093FE7401938C
:10017E00FF7C007D0B1201F7AD30120209EF24DC7B
:10018E00FBEE34058026E4F534F535D201752F04E7
:10019E009004F293FE740193FF7C007D0B1201F725
:1001AE00AD30120209EF24DCFBEE3405FAAE23AFBC
:1001BE00247C007D0B1201F7EF2BFFEE3AFE220599
:1001CE0035E53570020534D39532E534953140145A
:1001DE00AE23AF247C007D0B1201F7EF24DCFFEE83
:0901EE003405FE22AE25AF2622E5
:10034600D3E5359532E53495314031D2A1C2A2C20A
:10035600A5D2A7AF337E007C017DC21201F78E279E
:100366008F28AC2DAD2EAE31AF321201F7D3E53565
:100376009FE5349E4029E4F534F5352230011CD240
:10038600A5C2A7C2A1C2A2E533252FFFE433FE7C96
:10039600017D2C1201F78E278F2822C2A7C2A52223
:10046C0012000E1204F412002712001EAF2AAE293D
:0C047C0012002E8E258F2612034680F001
:030000000202BA3F
:0C02BA00787FE4F6D8FD75813502030161
:1002C60002046CE493A3F8E493A34003F68001F2DE
:1002D60008DFF48029E493A3F85407240CC8C33339
:1002E600C4540F4420C8834004F456800146F6DF08
:1002F600E4800B0102040810204080900449E47E4B
:10030600019360BCA3FF543F30E509541FFEE493FC
:10031600A360010ECF54C025E060A840B8E493A3C3
:10032600FAE493A3F8E493A3C8C582C8CAC583CAEE
:10033600F0A3C8C582C8CAC583CADFE9DEE780BEA6
:01046B000090
:1001F700EF8DF0A4A8F0CF8CF0A428CE8DF0A42E1C
:02020700FE22D5
:10020900C2D5EC30E709B2D5E4C39DFDE49CFCEE10
:1002190030E715B2D5E4C39FFFE49EFE120265C321
:10022900E49DFDE49CFC800312026530D507C3E41C
:060239009FFFE49EFE227F
:10023F00D083D082F8E4937012740193700DA3A34E
:10024F0093F8740193F5828883E473740293686062
:06025F00EFA3A3A380DF62
:10026500BC000BBE0029EF8DF084FFADF022E4CC7D
:10027500F875F008EF2FFFEE33FEEC33FCEE9DEC46
:10028500984005FCEE9DFE0FD5F0E9E4CEFD22ED8C
:10029500F8F5F0EE8420D21CFEADF075F008EF2FD6
:1002A500FFED33FD4007985006D5F0F222C398FDC7
:0502B5000FD5F0EA2264
:00000001FF
