:030000000200DC1F
:0C00DC00787FE4F6D8FD75812D02012329
:10026200022A0000022205DC01200102240ABE0249
:060272002C0ABE0121016F
:100279005389F0438901758AE0758CB1C28DD28C9E
:05028900D2A9D2AF2252
:030003000202797D
:1002B500C374FF9FFF74FF9EC28C8F8AF58CD28C0E
:0102C5002216
:03000B000201D31C
:0701D300C0E0C0D075D008A8
:1001DA00E52024FE600E04701ED2A0AF23AE2212C8
:1001EA0002B58013C2A0C374209523FF744E9522D2
:0901FA00FE1202B575200005207B
:05020300D0D0D0E03274
:1002C600C374FF9FFF74FF9EC28E8F8BF58DD28EF7
:0102D6002205
:10028E0053890F438910758BF0758DD8C28FD28E1E
:05029E00D2ABD2AF223B
:09000E00D2B3C2B4C2B202028EE8
:03001B0002016877
:07016800C0E0C0D075D01803
:10016F00C3E52B9488E52A9413502BE52124FE60D8
:10017F000E04701ED2B2AF25AE241202C68013C277
:10018F00B2C374109525FF74279524FE1202C6750D
:10019F00210005218029E52124FE600E04701ED266
:1001AF00B4AF2DAE2C1202C68013C2B4C374109517
:0F01BF002DFF7427952CFE1202C6752100052115
:0501CE00D0D0D0E032AA
:10001E008E108F1130A33EE5107038E5112421604B
:10002E001C24F0601A24F8601824FC601624FE606C
:10003E00141460131460122438701880758069804F
:10004E005D80548048803C8030052BE52B70020586
:10005E002A80718074E5107070E5112421602424CB
:10006E00F0602A24F8603024FC603324FE603914DA
:10007E00604014604724407050E4F52AF52B7E034F
:10008E007F4122E4F52AF52B7E037FE822E4F52A50
:10009E00F52B7E047FB022E4F52AF52B8026E4F5BD
:1000AE002AF52B7E077F0822E4F52AF52B7E077FA3
:1000BE00D022E4F52AF52B7E087F7622052BE52B40
:0E00CE007002052A7E057FDC22AE22AF2322BF
:10023D00D3E52B9488E52A94134015D2A1C2A2D3FD
:10024D00E52B9498E52A943A400AE4F52AF52B22F9
:05025D00C2A1C2A222B3
:1002080012000312000EAF907528008F29AF807579
:1002180026008F27AE2612001E8E228F23AE28AF0F
:10022800297C007D1E1202A38E248F258E2C8F2DF3
:0502380012023D80D11F
:1000E800020208E493A3F8E493A34003F68001F224
:1000F80008DFF48029E493A3F85407240CC8C33319
:10010800C4540F4420C8834004F456800146F6DFE7
:10011800E4800B0102040810204080900262E47E13
:10012800019360BCA3FF543F30E509541FFEE493DC
:10013800A360010ECF54C025E060A840B8E493A3A3
:10014800FAE493A3F8E493A3C8C582C8CAC583CACE
:10015800F0A3C8C582C8CAC583CADFE9DEE780BE86
:010278000085
:1002A300EF8DF0A4A8F0CF8CF0A428CE8DF0A42E6F
:0202B300FE2229
:00000001FF
