:020000040800F2
:10000000005000207D230008FD1F00080320000889
:10001000092000080F20000815200008000000003B
:100020000000000000000000000000001B2000088D
:100030002720000800000000332000083F200008AF
:10004000C5230008C5230008C5230008C5230008F0
:10005000C5230008C5230008C5230008C5230008E0
:10006000C5230008C5230008C52300084D2000084B
:10007000C5230008C5230008C5230008C5230008C0
:10008000C5230008C5230008C5230008C5230008B0
:10009000C5230008C5230008C5230008C5230008A0
:1000A000C5230008C5230008C5230008C523000890
:1000B000C5230008C5230008C5230008C523000880
:1000C000C5230008C5230008C5230008C523000870
:1000D000C5230008C5230008C5230008C523000860
:1000E00061200008C5230008C523000800000000A7
:1000F0000000000000000000000000000000000000
:0C01000000000000000000005FF808F1A3
:1001100010B5054C237833B9044B13B10448AFF341
:1001200000800123237010BD0C000020000000009F
:10013000BC58000808B5034B1BB103490348AFF393
:10014000008008BD0000000010000020BC5800081E
:1001500081F0004102E000BF83F0004330B54FEA78
:1001600041044FEA430594EA050F08BF90EA020FE5
:100170001FBF54EA000C55EA020C7FEA645C7FEA78
:10018000655C00F0E2804FEA5454D4EB5555B8BF9B
:100190006D420CDD2C4480EA020281EA030382EA0C
:1001A000000083EA010180EA020281EA0303362D9E
:1001B00088BF30BD11F0004F4FEA01314FF4801C71
:1001C0004CEA113102D0404261EB410113F0004F83
:1001D0004FEA03334CEA133302D0524263EB43033A
:1001E00094EA050F00F0A780A4F10104D5F1200ED8
:1001F0000DDB02FA0EFC22FA05F2801841F1000133
:1002000003FA0EF2801843FA05F359410EE0A5F106
:1002100020050EF1200E012A03FA0EFC28BF4CF037
:10022000020C43FA05F3C01851EBE37101F00045ED
:1002300007D54FF0000EDCF1000C7EEB00006EEBFA
:100240000101B1F5801F1BD3B1F5001F0CD3490884
:100250005FEA30004FEA3C0C04F101044FEA4452DB
:1002600012F5800F80F09A80BCF1004F08BF5FEA62
:10027000500C50F1000041EB045141EA050130BD42
:100280005FEA4C0C404141EB0101013C28BFB1F554
:10029000801FE9D291F0000F04BF01460020B1FA9F
:1002A00081F308BF2033A3F10B03B3F120020CDA72
:1002B0000C3208DD02F1140CC2F10C0201FA0CF050
:1002C00021FA02F10CE002F11402D8BFC2F1200CB5
:1002D00001FA02F120FA0CFCDCBF41EA0C0190406B
:1002E000E41AA2BF01EB0451294330BD6FEA0404B4
:1002F0001F3C1CDA0C340EDC04F11404C4F120029F
:1003000020FA04F001FA02F340EA030021FA04F3B0
:1003100045EA030130BDC4F10C04C4F1200220FA07
:1003200002F001FA04F340EA0300294630BD21FA45
:1003300004F0294630BD94F0000F83F4801306BF0B
:1003400081F480110134013D4EE77FEA645C18BFFF
:100350007FEA655C29D094EA050F08BF90EA020F96
:1003600005D054EA000C04BF1946104630BD91EA8E
:10037000030F1EBF0021002030BD5FEA545C05D191
:100380004000494128BF41F0004130BD14F58004D0
:100390003CBF01F5801130BD01F0004545F0FE4144
:1003A00041F470014FF0000030BD7FEA645C1ABF79
:1003B000194610467FEA655C1CBF0B46024650EAB0
:1003C000013406BF52EA033591EA030F41F40021DC
:1003D00030BD00BF90F0000F04BF0021704730B562
:1003E0004FF4806404F132044FF000054FF0000137
:1003F00050E700BF90F0000F04BF0021704730B5F8
:100400004FF4806404F1320410F0004548BF4042CC
:100410004FF000013EE700BF42004FEAE2014FEA21
:1004200031014FEA02701FBF12F07F4393F07F4FFC
:1004300081F06051704732F07F4208BF704793F0FF
:100440007F4F04BF41F40021704730B54FF4607412
:1004500001F0004521F000411CE700BF50EA010215
:1004600008BF704730B54FF000050AE050EA0102BE
:1004700008BF704730B511F0004502D5404261EB2E
:1004800041014FF4806404F132045FEA915C3FF46F
:10049000D8AE4FF003025FEADC0C18BF03325FEA0C
:1004A000DC0C18BF033202EBDC02C2F1200300FABD
:1004B00003FC20FA02F001FA03FE40EA0E0021FAE2
:1004C00002F11444BDE600BF70B54FF0FF0C4CF4D0
:1004D000E06C1CEA11541DBF1CEA135594EA0C0F82
:1004E00095EA0C0F00F0DEF82C4481EA030621EABD
:1004F0004C5123EA4C5350EA013518BF52EA0335F8
:1005000041F4801143F4801338D0A0FB02CE4FF0A9
:100510000005E1FB02E506F00042E0FB03E54FF0D9
:100520000006E1FB03569CF0000F18BF4EF0010ED1
:10053000A4F1FF04B6F5007F64F5407404D25FEACD
:100540004E0E6D4146EB060642EAC62141EA555180
:100550004FEAC52040EA5E504FEACE2EB4F1FD0CC2
:1005600088BFBCF5E06F1ED8BEF1004F08BF5FEA40
:10057000500E50F1000041EB045170BD06F00046F2
:1005800046EA010140EA020081EA0301B4EB5C049F
:10059000C2BFD4EB0C0541EA045170BD41F4801197
:1005A0004FF0000E013C00F3AB8014F1360FDEBFBC
:1005B000002001F0004170BDC4F10004203C35DA98
:1005C0000C341BDC04F11404C4F1200500FA05F31B
:1005D00020FA04F001FA05F240EA020001F00042BC
:1005E00021F0004110EBD37021FA04F642EB060132
:1005F0005EEA430E08BF20EAD37070BDC4F10C045C
:10060000C4F1200500FA04F320FA05F001FA04F21F
:1006100040EA020001F0004110EBD37041F100010B
:100620005EEA430E08BF20EAD37070BDC4F1200516
:1006300000FA05F24EEA020E20FA04F301FA05F27E
:1006400043EA020321FA04F001F0004121FA04F226
:1006500020EA020000EBD3705EEA430E08BF20EAF6
:10066000D37070BD94F0000F0FD101F00046400030
:1006700041EB010111F4801F08BF013CF7D041EAB2
:10068000060195F0000F18BF704703F000465200B6
:1006900043EB030313F4801F08BF013DF7D043EA87
:1006A0000603704794EA0C0F0CEA135518BF95EA3D
:1006B0000C0F0CD050EA410618BF52EA4306D1D1C4
:1006C00081EA030101F000414FF0000070BD50EAE3
:1006D000410606BF1046194652EA430619D094EA6D
:1006E0000C0F02D150EA013613D195EA0C0F05D157
:1006F00052EA03361CBF104619460AD181EA0301AB
:1007000001F0004141F0FE4141F470014FF0000062
:1007100070BD41F0FE4141F4780170BD70B54FF0FD
:10072000FF0C4CF4E06C1CEA11541DBF1CEA13557D
:1007300094EA0C0F95EA0C0F00F0A7F8A4EB05045F
:1007400081EA030E52EA03354FEA013100F0888056
:100750004FEA03334FF0805545EA131343EA12631F
:100760004FEA022245EA111545EA10654FEA0026D4
:100770000EF000419D4208BF964244F1FD0404F58D
:10078000407402D25B084FEA3202B61A65EB0305E9
:100790005B084FEA32024FF480104FF4002CB6EBA6
:1007A000020E75EB030E22BFB61A754640EA0C0026
:1007B0005B084FEA3202B6EB020E75EB030E22BF66
:1007C000B61A754640EA5C005B084FEA3202B6EBA7
:1007D000020E75EB030E22BFB61A754640EA9C0066
:1007E0005B084FEA3202B6EB020E75EB030E22BF36
:1007F000B61A754640EADC0055EA060E18D04FEAF4
:10080000051545EA16754FEA06164FEAC30343EA93
:1008100052734FEAC2025FEA1C1CC0D111F4801F60
:100820000BD141EA00014FF000004FF0004CB6E759
:1008300011F4801F04BF01430020B4F1FD0C88BFF8
:10084000BCF5E06F3FF6AFAEB5EB030C04BFB6EB03
:10085000020C5FEA500C50F1000041EB045170BDF6
:100860000EF0004E4EEA113114EB5C04C2BFD4EB23
:100870000C0541EA045170BD41F480114FF0000EA7
:10088000013C90E645EA060E8DE60CEA135594EA23
:100890000C0F08BF95EA0C0F3FF43BAF94EA0C0F26
:1008A0000AD150EA01347FF434AF95EA0C0F7FF49B
:1008B00025AF104619462CE795EA0C0F06D152EAEF
:1008C00003353FF4FDAE1046194622E750EA4106D3
:1008D00018BF52EA43067FF4C5AE50EA41047FF4E4
:1008E0000DAF52EA43057FF4EBAE12E74FF0FF3C49
:1008F00006E000BF4FF0010C02E000BF4FF0010C1A
:100900004DF804CD4FEA410C7FEA6C5C4FEA430C92
:1009100018BF7FEA6C5C1BD001B050EA410C0CBFE1
:1009200052EA430C91EA030F02BF90EA020F002043
:10093000704710F1000F91EA030F58BF994208BFAA
:1009400090422CBFD8176FEAE37040F00100704767
:100950004FEA410C7FEA6C5C02D150EA013C07D1BE
:100960004FEA430C7FEA6C5CD6D152EA033CD3D009
:100970005DF8040B704700BF8446104662468C4603
:100980001946634600E000BF01B5FFF7B7FF002836
:1009900048BF10F1000F01BD4DF808EDFFF7F4FF5F
:1009A0000CBF012000205DF808FB00BF4DF808EDEA
:1009B000FFF7EAFF34BF012000205DF808FB00BF0D
:1009C0004DF808EDFFF7E0FF94BF012000205DF82F
:1009D00008FB00BF4DF808EDFFF7CEFF94BF0120E4
:1009E00000205DF808FB00BF4DF808EDFFF7C4FFDD
:1009F00034BF012000205DF808FB00BF4FEA410230
:100A0000B2F1E04324BFB3F5001CDCF1FE5C0DD96C
:100A100001F0004C4FEAC0024CEA5070B2F1004FB6
:100A200040EB830008BF20F00100704711F0804FB9
:100A300021D113F13872BCBF01F00040704741F47E
:100A400080114FEA5252C2F11802C2F1200C10FA82
:100A50000CF320FA02F018BF40F001004FEAC12366
:100A60004FEAD32303FA0CFC40EA0C0023FA02F30A
:100A70004FEA4303CCE77FEA625307D150EA0133E0
:100A80001EBF4FF0FE4040F44000704701F00040B0
:100A900040F0FE4040F40000704700BF80F000408E
:100AA00002E000BF81F0004142001FBF5FEA410346
:100AB00092EA030F7FEA226C7FEA236C6AD04FEA46
:100AC0001262D2EB1363C1BFD2184140484041408B
:100AD000B8BF5B42192B88BF704710F0004F40F43D
:100AE000000020F07F4018BF404211F0004F41F459
:100AF000000121F07F4118BF494292EA030F3FD025
:100B0000A2F1010241FA03FC10EB0C00C3F1200337
:100B100001FA03F100F0004302D5494260EB4000C6
:100B2000B0F5000F13D3B0F1807F06D340084FEA31
:100B3000310102F10102FE2A51D2B1F1004F40EB26
:100B4000C25008BF20F0010040EA0300704749008E
:100B500040EB0000013A28BFB0F5000FEDD2B0FA2B
:100B600080FCACF1080CB2EB0C0200FA0CF0AABF4E
:100B700000EBC25052421843BCBFD04018437047EC
:100B800092F0000F81F4000106BF80F400000132F2
:100B9000013BB5E74FEA41037FEA226C18BF7FEAC9
:100BA000236C21D092EA030F04D092F0000F08BF0B
:100BB0000846704790EA010F1CBF0020704712F0F2
:100BC0007F4F04D1400028BF40F00040704712F131
:100BD00000723CBF00F50000704700F0004343F096
:100BE000FE4040F4000070477FEA226216BF0846CC
:100BF0007FEA23630146420206BF5FEA412390EA8F
:100C0000010F40F4800070474FF0000304E000BF84
:100C100010F0004348BF40425FEA000C08BF704735
:100C200043F0964301464FF000001CE050EA0102F9
:100C300008BF70474FF000030AE000BF50EA01020E
:100C400008BF704711F0004302D5404261EB4101FB
:100C50005FEA010C02BF84460146002043F0B64320
:100C600008BFA3F18053A3F50003BCFA8CF2083A45
:100C7000A3EBC25310DB01FA02FC634400FA02FC4E
:100C8000C2F12002BCF1004F20FA02F243EB020055
:100C900008BF20F00100704702F1200201FA02FCB7
:100CA000C2F1200250EA4C0021FA02F243EB0200AA
:100CB00008BF20EADC7070474FF0FF0C1CEAD052EE
:100CC0001EBF1CEAD15392EA0C0F93EA0C0F6FD0AF
:100CD0001A4480EA010C400218BF5FEA41211ED08D
:100CE0004FF0006343EA501043EA5111A0FB013179
:100CF0000CF00040B1F5000F3EBF490041EAD3714E
:100D00005B0040EA010062F17F02FD2A1DD8B3F1C9
:100D1000004F40EBC25008BF20F00100704790F038
:100D2000000F0CF0004C08BF49024CEA502040EA8A
:100D300051207F3AC2BFD2F1FF0340EAC250704750
:100D400040F400004FF00003013A5DDC12F1190F8E
:100D5000DCBF00F000407047C2F10002410021FA00
:100D600002F1C2F1200200FA02FC5FEA310040F118
:100D7000000053EA4C0308BF20EADC70704792F091
:100D8000000F00F0004C02BF400010F4000F013AC9
:100D9000F9D040EA0C0093F0000F01F0004C02BFC4
:100DA000490011F4000F013BF9D041EA0C018FE733
:100DB0000CEAD15392EA0C0F18BF93EA0C0F0AD039
:100DC00030F0004C18BF31F0004CD8D180EA01005F
:100DD00000F00040704790F0000F17BF90F0004FF8
:100DE000084691F0000F91F0004F14D092EA0C0FDA
:100DF00001D142020FD193EA0C0F03D14B0218BF6D
:100E0000084608D180EA010000F0004040F0FE40B2
:100E100040F40000704740F0FE4040F4400070474E
:100E20004FF0FF0C1CEAD0521EBF1CEAD15392EACD
:100E30000C0F93EA0C0F69D0A2EB030280EA010CBD
:100E400049024FEA402037D04FF0805343EA111156
:100E500043EA10130CF000408B4238BF5B0042F1B4
:100E60007D024FF4000C8B4224BF5B1A40EA0C0059
:100E7000B3EB510F24BFA3EB510340EA5C00B3EB8B
:100E8000910F24BFA3EB910340EA9C00B3EBD10F79
:100E900024BFA3EBD10340EADC001B0118BF5FEACB
:100EA0001C1CE0D1FD2A3FF650AF8B4240EBC250F4
:100EB00008BF20F0010070470CF0004C4CEA5020B5
:100EC0007F32C2BFD2F1FF0340EAC250704740F404
:100ED00000004FF00003013A37E792F0000F00F0F6
:100EE000004C02BF400010F4000F013AF9D040EA74
:100EF0000C0093F0000F01F0004C02BF490011F408
:100F0000000F013BF9D041EA0C0195E70CEAD153FF
:100F100092EA0C0F08D142027FF47DAF93EA0C0FE6
:100F20007FF470AF084676E793EA0C0F04D14B02CA
:100F30003FF44CAF08466EE730F0004C18BF31F07C
:100F4000004CCAD130F000427FF45CAF31F0004376
:100F50007FF43CAF5FE700BF4FF0FF3C06E000BF0F
:100F60004FF0010C02E000BF4FF0010C4DF804CD32
:100F70004FEA40024FEA41037FEA226C18BF7FEA42
:100F8000236C11D001B052EA530C18BF90EA010F44
:100F900058BFB2EB030088BFC81738BF6FEAE170D3
:100FA00018BF40F0010070477FEA226C02D15FEA6F
:100FB000402C05D17FEA236CE4D15FEA412CE1D0DB
:100FC0005DF8040B704700BF844608466146FFE7A2
:100FD0000FB5FFF7C9FF002848BF10F1000F0FBD84
:100FE0004DF808EDFFF7F4FF0CBF012000205DF87D
:100FF00008FB00BF4DF808EDFFF7EAFF34BF012002
:1010000000205DF808FB00BF4DF808EDFFF7E0FF9A
:1010100094BF012000205DF808FB00BF4DF808EDEB
:10102000FFF7D2FF94BF012000205DF808FB00BF4E
:101030004DF808EDFFF7C8FF34BF012000205DF830
:1010400008FB00BF4FEA4002B2F1FE4F0FD34FF052
:101050009E03B3EB12620DD94FEA002343F0004325
:1010600010F0004F23FA02F018BF404270474FF0D3
:101070000000704712F1610F01D1420205D110F05A
:10108000004008BF6FF0004070474FF0000070470D
:1010900042000ED2B2F1FE4F0BD34FF09E03B3EBE2
:1010A000126209D44FEA002343F0004323FA02F00E
:1010B00070474FF00000704712F1610F01D14202FA
:1010C00002D14FF0FF3070474FF00000704700BF73
:1010D00080B500AF0021084803F032FC0421064827
:1010E00003F02EFC0821044803F02AFC0C210248DE
:1010F00003F026FC00BF80BD7001002090B583B0D6
:1011000000AF78607B681B68124A14681846FFF7C6
:10111000BFFF034663637B685B680E4A146818462A
:10112000FFF7B6FF0346A3637B689B68094A146810
:101130001846FFF7ADFF0346E3637B68DB68054AAB
:1011400014681846FFF7A4FF0346236400BF0C375A
:10115000BD4690BD7001002080B586B000AF7860BC
:1011600039601F497868FFF74FFF0346002B00D115
:1011700032E04FF000017868FFF750FF0346002B84
:1011800000D129E016493868FFF73EFF0346002BDF
:1011900000D121E04FF000013868FFF73FFF034620
:1011A000002B00D118E04FF00003BB607B681946AC
:1011B0001846FFF779FC0346FB604FF000033B61E4
:1011C0003B6819461846FFF76FFC03467B6107F141
:1011D00008031846FFF792FF00BF1837BD4680BDD1
:1011E0000000C84280B584B000AF3B1D00221A60E9
:1011F0005A609A60274B284A1A60264B4FF4807237
:101200009A60244B01221A73224B00221A75214B3B
:101210004FF46022DA611F4B00225A601D4B0322FB
:101220001A611C4801F056F90346002B01D000F06A
:10123000A8FC07237B600123BB600123FB603B1DEF
:101240001946144801F018FB0346002B01D000F0AA
:1012500098FC08237B600223BB603B1D19460D48A8
:1012600001F00AFB0346002B01D000F08AFC0923A1
:101270007B600323BB603B1D1946064801F0FCFA66
:101280000346002B01D000F07CFC00BF1037BD46A8
:1012900080BD00BF280000200024014080B58AB036
:1012A00000AF786007F1180300221A605A609A6054
:1012B000DA607B681B68334A93425FD1324B9B698B
:1012C000314A43F4007393612F4B9B6903F400731D
:1012D0007B617B692C4B9B692B4A43F00403936130
:1012E000294B9B6903F004033B613B69264B9B69D7
:1012F000254A43F008039361234B9B6903F00803DD
:10130000FB60FB688023BB610323FB6107F11803CB
:1013100019461E4801F0A6FF0323BB610323FB61AE
:1013200007F1180319461A4801F09CFF194B1A4A95
:101330001A60184B00225A60164B00229A60154B17
:101340008022DA60134B4FF480721A61114B4FF414
:1013500080625A610F4B20229A610E4B0022DA61A3
:101360000C4801F091FD0346002B01D000F009FC70
:101370007B68084A1A62074A7B68536200BF2837B5
:10138000BD4680BD0024014000100240000801401D
:10139000000C0140580000200800024080B582B0D7
:1013A00000AF0C4B5B690B4A43F001035361094BDF
:1013B0005B6903F001037B607B68002200210B2046
:1013C00001F02BFD0B2001F044FD00BF0837BD46A6
:1013D00080BD00BF0010024080B588B000AF07F1AB
:1013E000100300221A605A609A60DA60244B9B69ED
:1013F000234A43F020039361214B9B6903F02003B0
:10140000FB60FB681E4B9B691D4A43F0040393611C
:101410001B4B9B6903F00403BB60BB68184B9B69C3
:10142000174A43F008039361154B9B6903F00803C7
:101430007B607B684FF480533B61124B7B610123DF
:10144000BB6107F1100319460F4801F00BFF182389
:101450003B6100237B610123BB6107F11003194647
:10146000094801F0FFFE00220021282001F0D5FCF0
:10147000282001F0EEFC00BF2037BD4680BD00BF34
:101480000010024000001110000C014080B500AFB8
:10149000124B134A1A60114B124A5A600F4B00222A
:1014A0009A600E4B0022DA600C4B4FF480421A61B6
:1014B0000A4B00225A61094B00229A61074B002215
:1014C000DA61064B00221A62044802F067F803460C
:1014D000002B01D000F055FB00BF80BD9C00002018
:1014E00000540040A086010080B588B000AF78604D
:1014F00007F1100300221A605A609A60DA607B6874
:101500001B68154A934223D1144B9B69134A43F03D
:1015100008039361114B9B6903F00803FB60FB68B0
:10152000C0233B6112237B610323FB6107F110039E
:1015300019460B4801F096FE084BDB69074A43F455
:101540000013D361054BDB6903F40013BB60BB6878
:1015500000BF2037BD4680BD00540040001002404F
:10156000000C014080B584B000AFF860C7E90023EB
:10157000FB684FF07E521A60FB684FF000025A6021
:10158000FB684FF000029A60FB684FF00002DA60DF
:10159000D7E90001FFF732FA0246FB681A61D7E982
:1015A0000601FFF72BFA0246FB685A6100BF1037AD
:1015B000BD4680BDB0B582B000AF786039607B6851
:1015C0001A687B681B6919461046FFF76DFA0346D7
:1015D0001A467B685A607B685C687B685A687B68DF
:1015E0005B6919461046FFF75FFA03461946204625
:1015F000FFF716FC03461A467B68DA607B689C6836
:101600007B68DD687B689B6819463868FFF74AFA93
:10161000034619462846FFF74FFB03461946204666
:10162000FFF742FA03461A467B689A607B68DB68DC
:1016300019464FF07E50FFF735FA03461A467B688D
:101640005B6819461046FFF737FB03461A467B686E
:101650001A607B689B6818460837BD46B0BD80B5E8
:1016600084B000AFF860B9607A607968B868FFF755
:10167000D7FB03461946F868FFF79CFF0346184658
:101680001037BD4680BD000090B589B002AF00F0B4
:101690009BFE00F01BFAFFF79FFEFFF77FFEFFF7B0
:1016A000A1FD00F0F5FD00F011FDFFF7EFFE00F0E9
:1016B000BDFBFFF70DFD4FF000014FF00000FFF7FD
:1016C0004BFDA74A0121012000F034FB4FF000023E
:1016D000A44BCDE900234FF00002A34BA348FFF732
:1016E00041FF9BA3D3E90023CDE900239AA3D3E9CB
:1016F00000239F48FFF736FF95A3D3E90023CDE9E8
:10170000002395A3D3E900239A48FFF72BFF90A36A
:10171000D3E90023CDE900238FA3D3E90023964822
:10172000FFF720FF03229549954800F0ABFF934B4C
:101730001B881846FFF768FA0346924A19468C48F8
:10174000FFF78DFF03461846FFF7A2FC03469AB247
:101750008D4B1A80894B5B881846FFF755FA034674
:10176000884A19468348FFF77AFF03461846FFF771
:101770008FFC03469AB2844B5A80804B9B88184654
:10178000FFF742FA03467F4A19467B48FFF767FF97
:1017900003461846FFF77CFC03469AB27A4B9A80C0
:1017A0000A2000F073FE754B1B881846FFF72CFAD1
:1017B0000346744A19466E48FFF751FF0346184620
:1017C000FFF766FC03469AB2704B1A806B4B5B883E
:1017D0001846FFF719FA03466A4A19466548FFF7A3
:1017E0003EFF03461846FFF753FC03469AB2674B89
:1017F0005A80624B9B881846FFF706FA0346614AF7
:1018000019465D48FFF72BFF03461846FFF740FCDB
:1018100003469AB25D4B9A80584B1B881A460423A4
:101820000121022000F0C4FA574B1A88574B1B883D
:101830009A427FF47CAF544B5A88544B5B889A424F
:101840007FF475AF504B9A88504B9B889A427FF437
:101850006EAF4F4A0121012000F06CFA00BF4D4BE2
:10186000BB60BB687B6000F0E8F94B4B1B78002B3A
:10187000FBD1424B1B881846FFF7C6F90346414A85
:1018800019463B48FFF7EBFE0446404B1B881846C1
:10189000FFF7BEF9034619462046FFF703F9034652
:1018A0001846FFF7F5FB03469AB2374B1A80334BC5
:1018B0009B881846FFF7A8F90346324A19462E4876
:1018C000FFF7CDFE0446314B9B881846FFF7A0F981
:1018D000034619462046FFF7E5F803461846FFF78A
:1018E000D7FB03469AB2284B9A80274B9B881A460F
:1018F000254B1B88D31A1846FFF78AF90346274A57
:101900001360264B1B681846FFF79CFB03461BB26F
:10191000184600F0D9FA0346204A13601F4B1A6894
:1019200000231F491F4800F0FBFA7861012000F0F6
:10193000ADFD124B1B881846FFF766F90346114AA6
:1019400019460B48FFF78BFE2EE000BFAFF3008077
:101950007B14AE47E17A843F88855AD3BCE3743F59
:10196000D85800080000F03F0000E03F08010020C8
:10197000200100203801002050010020F00000204C
:101980002800002000002041F80000200001002075
:10199000E4580008000020426C010020680100208B
:1019A0000000D6426666034304463F4B1B88184638
:1019B000FFF72EF9034619462046FFF773F8034652
:1019C0001846FFF765FB03469AB2384B1A80384B2E
:1019D0009B881846FFF718F90346364A19463648D9
:1019E000FFF73DFE0446304B9B881846FFF710F981
:1019F000034619462046FFF755F803461846FFF7F9
:101A000047FB03469AB2294B9A80284B9B881A467B
:101A1000264B1B88D31A1846FFF7FAF80346274AC5
:101A20001360264B1B681846FFF70CFB03461BB2DE
:101A3000184600F049FA0346204A13601F4B1A6803
:101A400000231F491F4800F06BFA38617969386933
:101A5000FFF728F803461846FEF7DEFC10A3D3E98B
:101A60000023FEF731FD02460B4610461946FEF7ED
:101A7000C5FF0346FB601449F868FFF715F80346F5
:101A80007B60F9681048FFF70DF80346BB607B6880
:101A9000BA6811461846FFF75FFBE6E6AFF3008031
:101AA000CDCCCCCCCC6C604000010020F8000020F4
:101AB000F0000020000020415001002068010020BB
:101AC0000000D642666603430000204280B594B011
:101AD00000AF07F1280328220021184603F0E6FE94
:101AE00007F1140300221A605A609A60DA601A61E2
:101AF0003B1D00221A605A609A60DA600123BB62C3
:101B00004FF48033FB6200233B630123BB6302235A
:101B10007B644FF48033BB644FF4E013FB6407F144
:101B20002803184602F094F90346002B01D000F078
:101B300028F80F237B610223BB610023FB614FF474
:101B400080633B6200237B6207F114030221184685
:101B500002F000FC0346002B01D000F012F8022333
:101B60007B604FF40043FB603B1D184602F08AFD8A
:101B70000346002B01D000F004F800BF5037BD46EB
:101B800080BD80B400AF72B600BFFEE780B588B0FC
:101B900004AF0346FB71FB1DFB606423029301232A
:101BA0000193FB680093012300227821034801F090
:101BB00039FE00BF1037BD4680BD00BF9C0000202D
:101BC00080B588B004AF0346FB71FB1DFB60642346
:101BD000029301230193FB680093012340227821A3
:101BE000034801F01FFE00BF1037BD4680BD00BF97
:101BF0009C00002080B582B000AF03460A46FB710E
:101C00001346BB71FB7963F04F03DBB21846FFF755
:101C1000BDFFBB791B09DBB243F01003DBB21846F2
:101C2000FFF7B4FFBB7903F00F03DBB21846FFF7F1
:101C3000ADFF00BF0837BD4680BD80B582B000AFA4
:101C40000023BB7114E0BB7900211846FFF7D2FFD7
:101C50000023FB7105E00020FFF7B2FFFB790133A1
:101C6000FB7197F90730002BF5DABB790133BB71B3
:101C7000BB79072BE7D900BF00BF0837BD4680BD41
:101C800080B584B000AF0346FB710B46BB711346B1
:101C90007B71FB79013BDBB25B00DAB2BB79013BC4
:101CA000DBB2DB00DBB219461046FFF7A3FF0023CF
:101CB000FB730EE07B79A3F12002FB7B1C49120130
:101CC0000A4413441B781846FFF77AFFFB7B013365
:101CD000FB73FB7B072BEDD9FB79013BDBB25B0090
:101CE000DBB20133DAB2BB79013BDBB2DB00DBB242
:101CF00019461046FFF77EFF0023FB730FE07B7948
:101D0000A3F12002FB7B0833094912010A44134462
:101D10001B781846FFF754FFFB7B0133FB73FB7BFB
:101D2000072BECD900BF00BF1037BD4680BD00BFF8
:101D30001059000880B584B000AF03463A60FB71CB
:101D40000B46BB710023FB730EE0BA79FB7B134497
:101D5000D9B2FB7B3A6813441A78FB791846FFF72F
:101D60008FFFFB7B0133FB73FB7B3A6813441B78CB
:101D7000002BEAD100BF00BF1037BD4680BD80B444
:101D800085B000AF786039600123FB6004E0FB6838
:101D90007A6802FB03F3FB603B685A1E3A60002B33
:101DA000F5D1FB6818461437BD4680BC704700006B
:101DB00090B585B000AF3A601A460346FB710B46FA
:101DC000BB7113467B710023FB7323E0BA79FB7B65
:101DD0001344DCB27A79FB7BD31A013B19460A2003
:101DE000FFF7CDFF02463B68B3FBF2F10E4BA3FBBE
:101DF0000123DA0813469B0013445B00CA1AD3B2CE
:101E00003033DAB2FB7921461846FFF739FFFB7B06
:101E10000133FB73FA7B7B799A42D7D300BF00BFB3
:101E20001437BD4690BD00BFCDCCCCCC80B500AF43
:101E3000C82000F02BFBAE20FFF7A8FED520FFF74F
:101E4000A5FE8020FFF7A2FEA820FFF79FFE3F20FF
:101E5000FFF79CFED320FFF799FE0020FFF796FEC8
:101E60004020FFF793FEA120FFF790FEC820FFF768
:101E70008DFEDA20FFF78AFE1220FFF787FE812011
:101E8000FFF784FECF20FFF781FED920FFF77EFE0B
:101E9000F120FFF77BFEDB20FFF778FE3020FFF715
:101EA00075FEA420FFF772FEA620FFF76FFE8D20BF
:101EB000FFF76CFE1420FFF769FEAF20FFF766FE08
:101EC000FFF7BBFE00BF80BD80B582B000AF034608
:101ED000FB80B7F906301846FEF78CFA0CA3D3E95D
:101EE0000023FEF7F1FA02460B46104619460AA3F4
:101EF000D3E90023FEF732F902460B461046194695
:101F0000FEF77CFD034618460837BD4680BD00BF7E
:101F1000158C4AEA0434E33F38F8C264AA60E23F11
:101F200080B586B000AFF860B9607A603B60B96890
:101F30007868FEF775FF03461846FEF76DFA02460D
:101F40000B461046194603F0FFFA02460B461046B0
:101F50001946FEF753FD03463B613B68002B10D04A
:101F60003869FEF759FA0AA3D3E90023FEF7D6FB36
:101F700002460B4610461946FEF740FD03467B61BC
:101F800001E03B697B617B6918461837BD4680BD1F
:101F90001F85EB51B81E094080B485B000AF154BCA
:101FA0009B69144A43F001039361124B9B6903F050
:101FB0000103BB60BB680F4BDB690E4A43F08053E3
:101FC000D3610C4BDB6903F080537B607B680A4B69
:101FD0005B68FB60FB6823F0E063FB60FB6843F039
:101FE0000073FB60044AFB68536000BF1437BD46B2
:101FF00080BC7047001002400000014080B400AF78
:10200000FEE780B400AFFEE780B400AFFEE780B427
:1020100000AFFEE780B400AFFEE780B400AF00BFC2
:10202000BD4680BC704780B400AF00BFBD4680BCD9
:10203000704780B400AF00BFBD4680BC704780B51C
:1020400000AF00F007FA00BF80BD000080B500AF10
:10205000024800F0D3FF00BF80BD00BF5800002041
:1020600080B500AF4FF4805001F080FA00BF80BD12
:1020700080B582B000AF0346FB800E4B1B78013366
:10208000DAB20C4B1A700B4B1B78032B0ED9094B91
:1020900000221A70FFF7D1FD074A01210120FFF746
:1020A00049FE064A07210420FFF744FE00BF083717
:1020B000BD4680BD6C010020F4580008FC580008A3
:1020C00080B400AF00BFBD4680BC704780B58EB005
:1020D00000AF07F1280300221A605A609A60DA60A4
:1020E00007F1200300221A605A603B1D00221A608B
:1020F0005A609A60DA601A615A619A613D4B4FF0FA
:1021000080421A603B4B4FF4E1525A60394B002237
:102110009A60384BC822DA60364B00221A61354B80
:1021200080229A61334802F063FB0346002B01D002
:10213000FFF727FD4FF48053BB6207F128031946D0
:102140002C4802F05DFD0346002B01D0FFF719FD7E
:10215000284802F09CFB0346002B01D0FFF711FD3D
:1021600000233B6200237B6207F1200319462148CC
:1021700003F0AEF80346002B01D0FFF702FD602309
:102180007B606423BB600023FB6000237B613B1DFD
:1021900000221946174802F075FC0346002B01D0B7
:1021A000FFF7EFFC3B1D04221946124802F06AFCBF
:1021B0000346002B01D0FFF7E4FC3B1D0822194623
:1021C0000C4802F05FFC0346002B01D0FFF7D9FC5E
:1021D0003B1D0C221946074802F054FC0346002B15
:1021E00001D0FFF7CEFC034800F022F800BF3837DB
:1021F000BD4680BD7001002080B485B000AF78601E
:102200007B681B68B3F1804F0BD1084BDB69074A31
:1022100043F00103D361054BDB6903F00103FB606D
:10222000FB6800BF1437BD4680BC704700100240F9
:1022300080B588B000AF786007F1100300221A6003
:102240005A609A60DA607B681B68B3F1804F17D1DF
:102250000D4B9B690C4A43F0040393610A4B9B6945
:1022600003F00403FB60FB680F233B6102237B61E7
:102270000223FB6107F110031946044800F0F2FF46
:1022800000BF2037BD4680BD00100240000801405D
:1022900080B500AF114B124A1A60104B4FF4E13277
:1022A0005A600E4B00229A600C4B0022DA600B4BF6
:1022B00000221A61094B0C225A61084B00229A61D4
:1022C000064B0022DA61054803F060F80346002B54
:1022D00001D0FFF756FC00BF80BD00BFB801002051
:1022E0000038014080B588B000AF786007F1100376
:1022F00000221A605A609A60DA607B681B681C4A88
:10230000934231D11B4B9B691A4A43F4804393613A
:10231000184B9B6903F48043FB60FB68154B9B697A
:10232000144A43F004039361124B9B6903F00403C6
:10233000BB60BB684FF400733B6102237B610323E6
:10234000FB6107F1100319460B4800F08BFF4FF4B7
:1023500080633B6100237B610023BB6107F11003B5
:102360001946054800F07EFF00BF2037BD4680BDFE
:102370000038014000100240000801400C480D499F
:102380000D4A002302E0D458C4500433C4188C42D0
:10239000F9D30A4A0A4C002301E013600432A24236
:1023A000FBD3FFF78DFE03F05DFAFFF76DF9704781
:1023B000000000200C000020605F00080C000020DE
:1023C00000020020FEE7000080B500AF084B1B684C
:1023D000074A43F010031360032000F013FD0F20A1
:1023E00000F008F8FFF7D8FD0023184680BD00BFB5
:1023F0000020024080B582B000AF7860124B1A68AE
:10240000124B1B7819464FF47A73B3FBF1F3B2FB0E
:10241000F3F3184600F02BFD0346002B01D00123F7
:102420000EE07B680F2B0AD8002279684FF0FF304E
:1024300000F0F3FC064A7B681360002300E00123F0
:1024400018460837BD4680BD000000200800002067
:102450000400002080B400AF054B1B781A46054BE2
:102460001B681344034A136000BFBD4680BC70471D
:1024700008000020FC01002080B400AF024B1B6864
:102480001846BD4680BC7047FC01002080B584B072
:1024900000AF7860FFF7F0FFB8607B68FB60FB6817
:1024A000B3F1FF3F05D00A4B1B781A46FB68134473
:1024B000FB6000BFFFF7E0FF0246BB68D31AFA6873
:1024C0009A42F7D800BF00BF1037BD4680BD00BF9D
:1024D0000800002080B586B000AF78600023FB754F
:1024E00000233B610023BB600023FB607B68002B63
:1024F00001D10123BEE07B689B68002B7B689B6A4F
:10250000002B09D17B680022DA627B68002283F805
:1025100024207868FEF7C2FE786800F0FFFA0346D0
:10252000FB757B689B6A03F01003002B40F09980D9
:10253000FB7D002B40F095807B689B6A23F48853D9
:1025400023F0020343F002027B689A627B685A68B8
:102550007B68DB691A437B681B7B5B001343BA68AB
:102560001343BB607B689B68B3F5807F03D07B68B7
:102570009B68012B02D14FF4807300E000233A697D
:1025800013433B617B681B7D012B19D17B681B7B4F
:10259000002B09D17B689B69013B5A033B691343BC
:1025A00043F400633B610BE07B689B6A43F02002CD
:1025B0007B689A627B68DB6A43F001027B68DA62BF
:1025C0007B681B685B6823F469417B681B683A6918
:1025D0000A435A607B681B689A68284B13407A68E4
:1025E0001268B9680B4393607B689B68B3F5807F82
:1025F00003D07B689B68012B04D17B681B69013B7E
:102600001B05FB607B681B68DB6A23F470017B6839
:102610001B68FA680A43DA627B681B689A68184B81
:102620001340BA689A420BD17B680022DA627B6859
:102630009B6A23F0030343F001027B689A6218E06F
:102640007B689B6A23F0120343F010027B689A6256
:102650007B68DB6A43F001027B68DA620123FB7569
:1026600007E07B689B6A43F010027B689A62012353
:10267000FB75FB7D18461837BD4680BDFDF7E1FFB1
:10268000FE0E1FFF80B586B000AFF860B9607A60BB
:102690000023FB75FB681B68644A934204D0FB6807
:1026A0001B68634A934206D1604B5B6803F4702356
:1026B000002B40F0B380FB6893F82430012B01D14C
:1026C0000223AEE0FB68012283F82420F86800F0C2
:1026D000CBF90346FB75FB7D002B40F09A80FB682D
:1026E0009B6A23F4706323F0010343F48072FB6858
:1026F0009A62FB681B684E4A934205D14B4B5B685C
:1027000003F47023002B15D1FB689B6A23F480121D
:10271000FB689A62FB681B685B6803F48063002BAC
:1027200026D0FB689B6A23F4405343F48052FB6835
:102730009A621DE0FB689B6A43F48012FB689A6210
:10274000FB681B68394A934204D0FB681B68384A0F
:1027500093420DD1354B5B6803F48063002B07D0A7
:10276000FB689B6A23F4405343F48052FB689A62EF
:10277000FB689B6A03F48053002B06D0FB68DB6A7E
:1027800023F00602FB68DA6202E0FB680022DA62EC
:10279000FB68002283F82420FB681B6A254A9A62A2
:1027A000FB681B6A244ADA62FB681B6A234A1A63C5
:1027B000FB681B686FF002021A60FB681B689A686E
:1027C000FB681B6842F480729A60FB68186AFB68B9
:1027D0001B684C331946BA687B6800F0AFFBFB6896
:1027E0001B689B6803F46023B3F5602F08D1FB6876
:1027F0001B689A68FB681B6842F4A0029A600FE0AD
:10280000FB681B689A68FB681B6842F480129A6038
:1028100006E0FB68002283F8242001E00123FB7519
:10282000FB7D18461837BD4680BD00BF002401401F
:10283000002801409F2B00081B2C0008372C0008A3
:1028400080B483B000AF786000BF0C37BD4680BC59
:10285000704780B483B000AF786000BF0C37BD46CE
:1028600080BC704780B483B000AF786000BF0C3785
:10287000BD4680BC7047000080B485B000AF786072
:1028800039600023FB730023BB607B6893F824301E
:10289000012B01D10223DCE07B68012283F8242094
:1028A0003B685B68062B1CD87B681B68596B3B68D0
:1028B0005A6813469B001344053B1F2202FA03F398
:1028C000DB4319403B6818683B685A6813469B0015
:1028D0001344053B00FA03F27B681B680A435A6302
:1028E0003CE03B685B680C2B1CD87B681B68196B51
:1028F0003B685A6813469B001344233B1F2202FA8D
:1029000003F3DB4319403B6818683B685A68134679
:102910009B001344233B00FA03F27B681B680A43C5
:102920001A631BE07B681B68D96A3B685A681346C8
:102930009B001344413B1F2202FA03F3DB4319407F
:102940003B6818683B685A6813469B001344413B38
:1029500000FA03F27B681B680A43DA623B681B6873
:10296000092B1CD97B681B68D9683B681A68134619
:102970005B0013441E3B072202FA03F3DB431940BA
:102980003B6898683B681A6813465B0013441E3B1B
:1029900000FA03F27B681B680A43DA6019E07B687F
:1029A0001B6819693B681A6813465B0013440722C9
:1029B00002FA03F3DB4319403B6898683B681A68E6
:1029C00013465B00134400FA03F27B681B680A435A
:1029D0001A613B681B68102B03D03B681B68112BE6
:1029E00032D17B681B681D4A934225D17B681B68E6
:1029F0009B6803F40003002B26D17B681B689A6850
:102A00007B681B6842F400029A603B681B68102BCD
:102A10001AD1134B1B68134AA2FB03239A0C1346CB
:102A20009B0013445B00BB6002E0BB68013BBB60E2
:102A3000BB68002BF9D107E07B689B6A43F020025A
:102A40007B689A620123FB737B68002283F8242051
:102A5000FB7B18461437BD4680BC704700240140FC
:102A60000000002083DE1B4380B584B000AF786097
:102A70000023FB600023BB607B681B689B6803F03E
:102A80000103012B40D07B681B689A687B681B6838
:102A900042F001029A601F4B1B681F4AA2FB0323EE
:102AA0009B0CBB6002E0BB68013BBB60BB68002BBA
:102AB000F9D1FFF7E1FCF8601FE0FFF7DDFC02460B
:102AC000FB68D31A022B18D97B681B689B6803F03C
:102AD0000103012B11D07B689B6A43F010027B68D5
:102AE0009A627B68DB6A43F001027B68DA627B688A
:102AF000002283F82420012307E07B681B689B6881
:102B000003F00103012BD8D1002318461037BD462E
:102B100080BD00BF0000002083DE1B4380B584B071
:102B200000AF78600023FB607B681B689B6803F044
:102B30000103012B2ED17B681B689A687B681B6898
:102B400022F001029A60FFF797FCF8601BE0FFF7A4
:102B500093FC0246FB68D31A022B14D97B681B68CE
:102B60009B6803F00103012B0DD17B689B6A43F046
:102B700010027B689A627B68DB6A43F001027B6823
:102B8000DA62012307E07B681B689B6803F001039E
:102B9000012BDCD0002318461037BD4680BD80B520
:102BA00084B000AF78607B685B6AFB60FB689B6AFF
:102BB00003F05003002B27D1FB689B6A43F400729B
:102BC000FB689A62FB681B689B6803F46023B3F59B
:102BD000602F15D1FB681B7B002B11D1FB689B6A12
:102BE00023F48072FB689A62FB689B6A03F480534B
:102BF000002B05D1FB689B6A43F00102FB689A62D7
:102C0000F868FFF71DFE04E0FB681B6A1B6B786821
:102C1000984700BF1037BD4680BD80B584B000AF77
:102C200078607B685B6AFB60F868FFF712FE00BFA4
:102C30001037BD4680BD80B584B000AF78607B683A
:102C40005B6AFB60FB689B6A43F04002FB689A6228
:102C5000FB68DB6A43F00402FB68DA62F868FFF79E
:102C600001FE00BF1037BD4680BD000080B485B0B6
:102C700000AF78607B6803F00703FB600C4BDB68F8
:102C8000BB60BA684FF6FF031340BB60FB681A02D3
:102C9000BB68134343F0BF6343F40033BB60044A93
:102CA000BB68D36000BF1437BD4680BC704700BF0F
:102CB00000ED00E080B400AF044BDB681B0A03F0BA
:102CC00007031846BD4680BC704700BF00ED00E01A
:102CD00080B483B000AF0346FB7197F90730002B37
:102CE0000BDBFB7903F01F02064997F907305B09FC
:102CF000012000FA02F241F8232000BF0C37BD4644
:102D000080BC704700E100E080B483B000AF0346B0
:102D10003960FB7197F90730002B0ADB3B68DAB2A8
:102D20000C4997F907301201D2B20B4483F8002303
:102D30000AE03B68DAB20849FB7903F00F03043B71
:102D40001201D2B20B441A7600BF0C37BD4680BCCC
:102D5000704700BF00E100E000ED00E080B489B002
:102D600000AFF860B9607A60FB6803F00703FB61AD
:102D7000FB69C3F10703042B28BF0423BB61FB6974
:102D80000433062B02D9FB69033B00E000237B617F
:102D90004FF0FF32BB6902FA03F3DA43BB681A4013
:102DA0007B699A404FF0FF317B6901FA03F3D94305
:102DB0007B680B40134318462437BD4680BC7047E0
:102DC00080B582B000AF78607B68013BB3F1807F53
:102DD00001D301230FE00A4A7B68013B53600F21B6
:102DE0004FF0FF30FFF790FF054B00229A60044B35
:102DF00007221A60002318460837BD4680BD00BF71
:102E000010E000E080B582B000AF78607868FFF72E
:102E10002DFF00BF0837BD4680BD80B586B000AF2E
:102E20000346B9607A60FB7300237B61FFF742FFC2
:102E300078617A68B9687869FFF790FF024697F978
:102E40000F3011461846FFF75FFF00BF1837BD4629
:102E500080BD80B582B000AF0346FB7197F90730A3
:102E60001846FFF735FF00BF0837BD4680BD80B567
:102E700082B000AF78607868FFF7A2FF034618467B
:102E80000837BD4680BD000080B485B000AF7860D3
:102E90000023FB607B68002B01D1012343E07B68AA
:102EA0001B681A46224B1344224AA2FB03231B0928
:102EB0009A007B681A647B681F4ADA637B68022287
:102EC00083F821207B681B681B68FB60FB6823F488
:102ED0007F5323F03003FB607B685A687B689B68F4
:102EE0001A437B68DB681A437B681B691A437B685B
:102EF0005B691A437B689B691A437B68DB691343F0
:102F0000FA681343FB607B681B68FA681A607B6889
:102F100000229A637B68012283F821207B680022CB
:102F200083F82020002318461437BD4680BC704724
:102F3000F8FFFDBFCDCCCCCC0000024080B586B000
:102F400000AFF860B9607A603B600023FB75FB68F6
:102F500093F82030012B01D102234AE0FB680122C3
:102F600083F82020FB6893F82130012B3AD1FB68CD
:102F7000022283F82120FB6800229A63FB681B6809
:102F80001A68FB681B6822F001021A603B687A68C5
:102F9000B968F86800F038F9FB68DB6A002B08D0E4
:102FA000FB681B681A68FB681B6842F00E021A6017
:102FB0000FE0FB681B681A68FB681B6822F00402BC
:102FC0001A60FB681B681A68FB681B6842F00A02FB
:102FD0001A60FB681B681A68FB681B6842F00102F4
:102FE0001A6005E0FB68002283F820200223FB75AD
:102FF000FB7D18461837BD4680BD000080B584B003
:1030000000AF78607B68DB6B1B68FB607B681B68CC
:103010001B68BB607B681B6C04229A40FB681340F2
:10302000002B4FD0BB6803F00403002B4AD07B6811
:103030001B681B6803F02003002B07D17B681B680B
:103040001A687B681B6822F004021A607B681B68A0
:10305000664A934229D07B681B68654A934222D016
:103060007B681B68634A93421AD07B681B68624A7C
:10307000934212D07B681B68604A93420AD07B68F7
:103080001B685F4A934202D14FF480030EE04FF079
:1030900080630BE04FF4802308E04FF4804305E0A9
:1030A0004FF4806302E0402300E00423554A53605C
:1030B0007B68DB6A002B00F094807B68DB6A7868B1
:1030C00098478EE07B681B6C02229A40FB68134095
:1030D000002B56D0BB6803F00203002B51D07B6855
:1030E0001B681B6803F02003002B0BD17B681B6857
:1030F0001A687B681B6822F00A021A607B6801224A
:1031000083F821207B681B68384A934229D07B686A
:103110001B68374A934222D07B681B68354A93422A
:103120001AD07B681B68344A934212D07B681B68B4
:10313000324A93420AD07B681B68314A934202D1DB
:103140004FF400130EE04FF000730BE04FF4003328
:1031500008E04FF4005305E04FF4007302E0202331
:1031600000E00223274A53607B68002283F8202076
:103170007B689B6A002B34D07B689B6A7868984791
:103180002FE07B681B6C08229A40FB681340002BE1
:1031900028D0BB6803F00803002B23D07B681B6892
:1031A0001A687B681B6822F00E021A607B681A6C32
:1031B0007B68DB6B012101FA02F25A607B68012215
:1031C0009A637B68012283F821207B68002283F8C0
:1031D00020207B681B6B002B04D07B681B6B7868FE
:1031E000984700BF00BF1037BD4680BD08000240B1
:1031F0001C000240300002404400024058000240DF
:103200006C0002400000024080B485B000AFF8605E
:10321000B9607A603B60FB681A6CFB68DB6B01216C
:1032200001FA02F25A60FB681B683A685A60FB6850
:103230005B68102B08D1FB681B687A689A60FB6892
:103240001B68BA68DA6007E0FB681B68BA689A60B6
:10325000FB681B687A68DA6000BF1437BD4680BC23
:103260007047000080B48BB000AF786039600023F5
:103270007B6200233B6269E101227B6A02FA03F36D
:10328000FB613B681B68FA691340BB61BA69FB6963
:103290009A4240F058813B685B689A4A93425ED0FC
:1032A000984A934275D8984A934258D0964A934286
:1032B0006FD8964A934252D0944A934269D8944A1E
:1032C00093424CD0924A934263D8924A934246D05A
:1032D000904A93425DD8122B2AD8122B59D801A2BA
:1032E00052F823F05F330008393300084B330008ED
:1032F0008D3300089333000893330008933300089C
:103300009333000893330008933300089333000885
:103310009333000893330008933300089333000875
:1033200093330008933300084133000855330008F5
:10333000794A934213D02CE03B68DB683B6229E07A
:103340003B68DB6804333B6224E03B68DB6808339E
:103350003B621FE03B68DB680C333B621AE03B6872
:103360009B68002B02D104233B6213E03B689B68FF
:10337000012B05D108233B627B68FA691A6109E0D9
:1033800008233B627B68FA695A6103E000233B62D1
:1033900000E000BFBB69FF2B01D87B6801E07B68C0
:1033A00004337B61BB69FF2B02D87B6A9B0002E080
:1033B0007B6A083B9B003B617B691A680F213B6974
:1033C00001FA03F3DB431A40396A3B6901FA03F35C
:1033D0001A437B691A603B685B6803F08053002BDB
:1033E00000F0B1804D4B9B694C4A43F0010393615F
:1033F0004A4B9B6903F00103BB60BB68484A7B6A88
:103400009B08023352F82330FB607B6A03F003030E
:103410009B000F2202FA03F3DB43FA681340FB60C0
:103420007B68404A934213D07B683F4A93420DD059
:103430007B683E4A934207D07B683D4A934201D164
:10344000032306E0042304E0022302E0012300E05A
:1034500000237A6A02F0030292009340FA68134351
:10346000FB602F497B6A9B080233FA6841F82320EE
:103470003B685B6803F48033002B06D02D4B1A6841
:103480002C49BB6913430B6006E02A4B1A68BB69E1
:10349000DB43284913400B603B685B6803F400334F
:1034A000002B06D0234B5A682249BB6913434B605B
:1034B00006E0204B5A68BB69DB431E4913404B6052
:1034C0003B685B6803F48013002B06D0194B9A68A5
:1034D0001849BB6913438B6006E0164B9A68BB69B9
:1034E000DB43144913408B603B685B6803F40013B3
:1034F000002B21D00F4BDA680E49BB691343CB6018
:1035000021E000BF00003210000031100000221046
:1035100000002110000012100000111000100240E5
:103520000000014000080140000C01400010014073
:1035300000140140000401400B4BDA68BB69DB4317
:1035400009491340CB607B6A01337B623B681A6890
:103550007B6A22FA03F3002B7FF48EAE00BF00BF1C
:103560002C37BD4680BC70470004014080B582B056
:1035700000AF0346FB80084B5A69FB881340002BC1
:1035800006D0054AFB885361FB881846FEF770FD9C
:1035900000BF0837BD4680BD0004014080B584B03F
:1035A00000AF78607B68002B01D101232BE17B68A1
:1035B00093F83D30DBB2002B06D17B68002283F804
:1035C0003C207868FDF790FF7B68242283F83D203B
:1035D0007B681B681A687B681B6822F001021A600E
:1035E0007B681B681A687B681B6842F400421A609B
:1035F0007B681B681A687B681B6822F400421A60AB
:1036000000F0FAFFF8607B685B68814A934207D854
:10361000FB68804A934294BF01230023DBB206E09B
:10362000FB687D4A934294BF01230023DBB2002B49
:1036300001D00123E7E0FB68784AA2FB03239B0C3F
:10364000BB607B681B685B6823F03F017B681B687D
:10365000BA680A435A607B681B681B6A23F03F0103
:103660007B685B686A4A934202D8BB68013309E011
:10367000BB684FF4967202FB03F3694AA2FB032373
:103680009B0901337A6812680B4313627B681B68DD
:10369000DB6923F44F4222F0FF027B685B685C49E0
:1036A0008B4219D8FB68591E7B685B685B00B1FBD5
:1036B000F3F3591C40F6FC730B40002B0AD0FB6857
:1036C000591E7B685B685B00B1FBF3F30133C3F306
:1036D0000B0351E004234FE07B689B68002B11D162
:1036E000FB68581E7B6859680B465B000B44B0FBB7
:1036F000F3F30133C3F30B03002B0CBF01230023AF
:10370000DBB212E0FB68581E7B6859680B469B00D1
:103710000B4499000B44B0FBF3F30133C3F30B03E9
:10372000002B0CBF01230023DBB2002B01D00123AF
:1037300022E07B689B68002B0ED1FB68581E7B68DB
:1037400059680B465B000B44B0FBF3F30133C3F342
:103750000B0343F400430FE0FB68581E7B68596875
:103760000B469B000B4499000B44B0FBF3F3013371
:10377000C3F30B0343F44043796809681343CB61F7
:103780007B681B681B6823F0C0017B68DA697B6873
:103790001B6A1A437B681B680A431A607B681B68B4
:1037A0009B6823F4034323F0FF037A6811697A6866
:1037B000D26811437A6812680B4393607B681B6878
:1037C000DB6823F0FF017B685A697B689B691A43B9
:1037D0007B681B680A43DA607B681B681A687B6831
:1037E0001B6842F001021A607B6800221A647B6841
:1037F000202283F83D207B6800221A637B68002228
:1038000083F83E20002318461037BD4680BD00BF18
:10381000A08601007F841E00FF083D0083DE1B435D
:10382000D34D621080B588B002AFF86008461146EB
:103830001A4603467B810B463B811346FB80FEF70D
:103840001BFE7861FB6893F83D30DBB2202B40F023
:10385000D9807B690093192301226D49F86800F033
:1038600071F90346002B01D00223CCE0FB6893F8EA
:103870003C30012B01D10223C5E0FB68012283F813
:103880003C20FB681B681B6803F00103012B07D079
:10389000FB681B681A68FB681B6842F001021A602B
:1038A000FB681B681A68FB681B6822F400621A60D8
:1038B000FB68212283F83D20FB68402283F83E20EC
:1038C000FB6800221A64FB683A6A5A62FB68BA8C89
:1038D0005A85FB685B8D9AB2FB681A85FB684D4A76
:1038E000DA62F8883A8979897B690193BB6A009327
:1038F0000346F86800F090F80346002B52D00123ED
:1039000081E07A69B96AF86800F0F2F90346002BA1
:103910000DD0FB681B6C042B07D1FB681B681A6871
:10392000FB681B6842F400721A6001236BE0FB68BD
:103930005B6A1A78FB681B681A61FB685B6A5A1C31
:10394000FB685A62FB681B8D013B9AB2FB681A85C3
:10395000FB685B8D9BB2013B9AB2FB685A85FB68A2
:103960001B685B6903F00403042B1BD1FB681B8DF0
:10397000002B17D0FB685B6A1A78FB681B681A611A
:10398000FB685B6A5A1CFB685A62FB681B8D013B33
:103990009AB2FB681A85FB685B8D9BB2013B9AB2B9
:1039A000FB685A85FB681B8D002BAAD17A69B96A1E
:1039B000F86800F0DEF90346002B0DD0FB681B6CA5
:1039C000042B07D1FB681B681A68FB681B6842F46C
:1039D00000721A60012316E0FB681B681A68FB6816
:1039E0001B6842F400721A60FB68202283F83D20B5
:1039F000FB68002283F83E20FB68002283F83C200D
:103A0000002300E0022318461837BD4680BD00BFE2
:103A1000020010000000FFFF80B588B002AFF86020
:103A2000084611461A4603467B810B463B811346E6
:103A3000FB80FB681B681A68FB681B6842F4807295
:103A40001A607B6A00933B6A00224FF00111F8680C
:103A500000F078F80346002B0DD0FB681B681B684C
:103A600003F48073B3F5807F03D1FB684FF40072D9
:103A70001A6403235FE07B89DBB21A46FB681B688C
:103A800002F0FE021A617B6A3A6A2D49F86800F07A
:103A9000B0F80346002B01D001234CE000237B61EA
:103AA000FB681B685B697B61FB681B689B697B61CA
:103AB0007B697A6A396AF86800F01AF90346002BC4
:103AC0000DD0FB681B6C042B07D1FB681B681A68C0
:103AD000FB681B6842F400721A6001232BE0FB882C
:103AE000012B05D13B89DAB2FB681B681A6121E022
:103AF0003B891B0A9BB2DAB2FB681B681A617A6ABF
:103B0000396AF86800F0F4F80346002B0DD0FB6822
:103B10001B6C042B07D1FB681B681A68FB681B68C9
:103B200042F400721A60012305E03B89DAB2FB68B7
:103B30001B681A61002318461837BD4680BD00BFB8
:103B40000200010080B584B000AFF860B9603B604E
:103B50001346FB7125E03B68B3F1FF3F21D0FEF730
:103B60008BFC0246BB69D31A3A689A4202D33B687F
:103B7000002B16D1FB6800221A63FB68202283F811
:103B80003D20FB68002283F83E20FB681B6C43F05D
:103B90002002FB681A64FB68002283F83C200123A2
:103BA00023E0BB681B0CDBB2012B0DD1FB681B684B
:103BB0005B69DA43BB6813409BB2002B0CBF012347
:103BC0000023DBB21A460CE0FB681B689B69DA43F2
:103BD000BB6813409BB2002B0CBF01230023DBB258
:103BE0001A46FB799A42B6D0002318461037BD46D4
:103BF00080BD80B584B000AFF860B9607A603B608A
:103C000051E0FB681B685B6903F48063B3F5806F68
:103C100023D1FB681B681A68FB681B6842F40072BA
:103C20001A60FB681B686FF480625A61FB680022AF
:103C30001A63FB68202283F83D20FB68002283F88A
:103C40003E20FB681B6C43F00402FB681A64FB68AF
:103C5000002283F83C20012346E07B68B3F1FF3F5C
:103C600021D0FEF709FC02463B68D31A7A689A42D3
:103C700002D37B68002B16D1FB6800221A63FB6815
:103C8000202283F83D20FB68002283F83E20FB6859
:103C90001B6C43F02002FB681A64FB68002283F867
:103CA0003C20012320E0BB681B0CDBB2012B0CD1B4
:103CB000FB681B685B69DA43BB6813409BB2002B4F
:103CC00014BF01230023DBB20BE0FB681B689B6978
:103CD000DA43BB6813409BB2002B14BF01230023BF
:103CE000DBB2002B8DD1002318461037BD4680BDB6
:103CF00080B584B000AFF860B9607A602DE0F868F4
:103D000000F078F80346002B01D001232DE0BB68BA
:103D1000B3F1FF3F21D0FEF7AFFB02467B68D31A19
:103D2000BA689A4202D3BB68002B16D1FB68002206
:103D30001A63FB68202283F83D20FB68002283F889
:103D40003E20FB681B6C43F02002FB681A64FB6892
:103D5000002283F83C20012307E0FB681B685B69B5
:103D600003F08003802BCAD1002318461037BD46CC
:103D700080BD80B584B000AFF860B9607A602DE096
:103D8000F86800F037F80346002B01D001232DE03E
:103D9000BB68B3F1FF3F21D0FEF76EFB02467B68A4
:103DA000D31ABA689A4202D3BB68002B16D1FB68BB
:103DB00000221A63FB68202283F83D20FB68002262
:103DC00083F83E20FB681B6C43F02002FB681A64FA
:103DD000FB68002283F83C20012307E0FB681B6896
:103DE0005B6903F00403042BCAD100231846103783
:103DF000BD4680BD80B483B000AF78607B681B682F
:103E00005B6903F48063B3F5806F1BD17B681B682B
:103E10006FF480625A617B6800221A637B682022FB
:103E200083F83D207B68002283F83E207B681B6C72
:103E300043F004027B681A647B68002283F83C200C
:103E4000012300E0002318460C37BD4680BC7047B4
:103E500080B586B000AF78607B68002B01D101236C
:103E600072E27B681B6803F00103002B00F087807F
:103E7000924B5B6803F00C03042B0CD08F4B5B68F8
:103E800003F00C03082B12D18C4B5B6803F48033D6
:103E9000B3F5803F0BD1894B1B6803F40033002B33
:103EA0006CD07B685B68002B68D101234CE27B6897
:103EB0005B68B3F5803F06D1804B1B687F4A43F4B3
:103EC000803313602EE07B685B68002B0CD17B4B4A
:103ED0001B687A4A23F480331360784B1B68774A57
:103EE00023F4802313601DE07B685B68B3F5A02F8B
:103EF0000CD1724B1B68714A43F4802313606F4BE3
:103F00001B686E4A43F4803313600BE06B4B1B68F5
:103F10006A4A23F480331360684B1B68674A23F4B2
:103F2000802313607B685B68002B13D0FEF7A4FA34
:103F3000386108E0FEF7A0FA02463B69D31A642B09
:103F400001D9032300E25D4B1B6803F40033002B0F
:103F5000F0D014E0FEF790FA386108E0FEF78CFA32
:103F600002463B69D31A642B01D90323ECE1534B7E
:103F70001B6803F40033002BF0D100E000BF7B6826
:103F80001B6803F00203002B63D04C4B5B6803F00B
:103F90000C03002B0BD0494B5B6803F00C03082B80
:103FA0001CD1464B5B6803F48033002B16D1434B86
:103FB0001B6803F00203002B05D07B681B69012BF3
:103FC00001D00123C0E13D4B1B6823F0F8027B6860
:103FD0005B69DB00394913430B603AE07B681B697E
:103FE000002B20D0364B01221A60FEF745FA3861CB
:103FF00008E0FEF741FA02463B69D31A022B01D9C9
:104000000323A1E12D4B1B6803F00203002BF0D02A
:104010002A4B1B6823F0F8027B685B69DB002749A9
:1040200013430B6015E0264B00221A60FEF724FABA
:10403000386108E0FEF720FA02463B69D31A022BEA
:1040400001D9032380E11D4B1B6803F00203002B01
:10405000F0D17B681B6803F00803002B3AD07B6823
:104060009B69002B19D0174B01221A60FEF704FA46
:10407000386108E0FEF700FA02463B69D31A022BCA
:1040800001D9032360E10D4B5B6A03F00203002BAF
:10409000F0D0012000F0D8FA1CE00A4B00221A6090
:1040A000FEF7EAF938610FE0FEF7E6F902463B69F0
:1040B000D31A022B08D9032346E100BF00100240A7
:1040C0000000424280044242924B5B6A03F00203CA
:1040D000002BE9D17B681B6803F00403002B00F080
:1040E000A6800023FB758B4BDB6903F08053002B0C
:1040F0000DD1884BDB69874A43F08053D361854BF0
:10410000DB6903F08053BB60BB680123FB75824B06
:104110001B6803F48073002B18D17F4B1B687E4A09
:1041200043F480731360FEF7A7F9386108E0FEF7E7
:10413000A3F902463B69D31A642B01D9032303E197
:10414000754B1B6803F48073002BF0D07B68DB6831
:10415000012B06D16F4B1B6A6E4A43F001031362B9
:104160002DE07B68DB68002B0CD16A4B1B6A694A27
:1041700023F001031362674B1B6A664A23F00403B2
:1041800013621CE07B68DB68052B0CD1614B1B6A5A
:10419000604A43F0040313625E4B1B6A5D4A43F0BE
:1041A000010313620BE05B4B1B6A5A4A23F00103C5
:1041B0001362584B1B6A574A23F0040313627B684F
:1041C000DB68002B15D0FEF757F938610AE0FEF7DF
:1041D00053F902463B69D31A41F28832934201D91E
:1041E0000323B1E04B4B1B6A03F00203002BEED01C
:1041F00014E0FEF741F938610AE0FEF73DF90246A6
:104200003B69D31A41F28832934201D903239BE0E0
:10421000404B1B6A03F00203002BEED1FB7D012B08
:1042200005D13C4BDB693B4A23F08053D3617B686B
:10423000DB69002B00F08780364B5B6803F00C03D2
:10424000082B61D07B68DB69022B46D1334B0022FF
:104250001A60FEF711F9386108E0FEF70DF9024621
:104260003B69D31A022B01D903236DE0294B1B684C
:1042700003F00073002BF0D17B681B6AB3F5803F1D
:1042800008D1244B5B6823F400327B689B6821498A
:1042900013434B601F4B5B6823F474127B68196AED
:1042A0007B685B6A0B431B4913434B601B4B01222A
:1042B0001A60FEF7E1F8386108E0FEF7DDF8024623
:1042C0003B69D31A022B01D903233DE0114B1B6834
:1042D00003F00073002BF0D035E0104B00221A6081
:1042E000FEF7CAF8386108E0FEF7C6F802463B69F7
:1042F000D31A022B01D9032326E0064B1B6803F0D7
:104300000073002BF0D11EE07B68DB69012B07D125
:10431000012319E00010024000700040600042429A
:104320000B4B5B68FB60FB6803F480327B681B6AA5
:104330009A4206D1FB6803F470127B685B6A9A426A
:1043400001D0012300E0002318461837BD4680BD88
:104350000010024080B584B000AF786039607B689F
:10436000002B01D10123D0E06A4B1B6803F0070347
:104370003A689A4210D9674B1B6823F007026549D7
:104380003B6813430B60634B1B6803F007033A68F9
:104390009A4201D00123B8E07B681B6803F0020356
:1043A000002B20D07B681B6803F00403002B05D092
:1043B000594B5B68584A43F4E06353607B681B6861
:1043C00003F00803002B05D0534B5B68524A43F4BB
:1043D00060535360504B5B6823F0F0027B689B682E
:1043E0004D4913434B607B681B6803F00103002BAE
:1043F00040D07B685B68012B07D1474B1B6803F4F7
:104400000033002B15D101237FE07B685B68022B12
:1044100007D1414B1B6803F00073002B09D1012326
:1044200073E03D4B1B6803F00203002B01D1012315
:104430006BE0394B5B6823F003027B685B683649AD
:1044400013434B60FEF718F8F8600AE0FEF714F823
:104450000246FB68D31A41F28832934201D9032302
:1044600053E02D4B5B6803F00C027B685B689B009C
:104470009A42EBD1274B1B6803F007033A689A4234
:1044800010D2244B1B6823F0070222493B681343D8
:104490000B60204B1B6803F007033A689A4201D077
:1044A000012332E07B681B6803F00403002B08D073
:1044B000194B5B6823F4E0627B68DB6816491343A1
:1044C0004B607B681B6803F00803002B09D0124B7C
:1044D0005B6823F460527B681B69DB000E49134361
:1044E0004B6000F021F802460B4B5B681B0903F0A0
:1044F0000F030A49CB5C22FA03F3094A1360094B04
:104500001B681846FDF776FF002318461037BD4696
:1045100080BD00BF0020024000100240005F000884
:10452000000000200400002090B48AB000AF294BA6
:104530003C1D0FCB84E80F0040F201233B80002399
:10454000FB610023BB6100237B6200237B610023AE
:104550003B62214B5B68FB61FB6903F00C03042B9E
:1045600002D0082B03D02BE01C4B3B622BE0FB69F5
:104570009B0C03F00F0328333B4413F8243C7B616E
:10458000FB6903F48033002B12D0134B5B685B0C88
:1045900003F0010328333B4413F8283CBB617B69DB
:1045A0000E4A03FB02F2BB69B2FBF3F37B6204E049
:1045B0007B690B4A02FB03F37B627B6A3B6202E08E
:1045C000064B3B6200BF3B6A18462837BD4690BC8D
:1045D000704700BF005900080010024000127A0026
:1045E00000093D0080B400AF024B1B681846BD4671
:1045F00080BC70470000002080B500AFFFF7F2FFDD
:104600000246054B5B681B0A03F007030349CB5CBA
:1046100022FA03F3184680BD00100240105F000824
:1046200080B500AFFFF7DEFF0246054B5B68DB0A93
:1046300003F007030349CB5C22FA03F3184680BD5D
:1046400000100240105F000880B485B000AF7860B1
:104650000A4B1B680A4AA2FB03235B0A7A6802FB27
:1046600003F3FB6000BFFB685A1EFA60002BF9D110
:1046700000BF00BF1437BD4680BC7047000000205B
:10468000D34D621080B586B000AF786000233B61E7
:104690000023FB607B681B6803F00103002B7DD0C7
:1046A0000023FB754F4BDB6903F08053002B0DD1CA
:1046B0004C4BDB694B4A43F08053D361494BDB6978
:1046C00003F08053BB60BB680123FB75464B1B683E
:1046D00003F48073002B18D1434B1B68424A43F408
:1046E00080731360FDF7C8FE386108E0FDF7C4FE73
:1046F00002463B69D31A642B01D903236DE03A4B80
:104700001B6803F48073002BF0D0364B1B6A03F454
:104710004073FB60FB68002B2ED07B685B6803F462
:104720004073FA689A4227D02E4B1B6A23F44073D9
:10473000FB602E4B01221A602C4B00221A60294A82
:10474000FB681362FB6803F00103002B14D0FDF734
:1047500093FE38610AE0FDF78FFE02463B69D31AEB
:1047600041F28832934201D9032336E01D4B1B6A84
:1047700003F00203002BEED01A4B1B6A23F44072A5
:104780007B685B68174913430B62FB7D012B05D1E6
:10479000144BDB69134A23F08053D3617B681B6899
:1047A00003F00203002B08D00E4B5B6823F4404259
:1047B0007B689B680B4913434B607B681B6803F065
:1047C0001003002B08D0074B5B6823F480027B6842
:1047D000DB68044913434B60002318461837BD4675
:1047E00080BD00BF00100240007000404004424203
:1047F00080B582B000AF78607B68002B01D10123C7
:1048000041E07B6893F83D30DBB2002B06D17B683A
:10481000002283F83C207868FDF7EEFC7B680222DA
:1048200083F83D207B681A687B680433194610467C
:1048300000F0AAFA7B68012283F846207B680122F7
:1048400083F83E207B68012283F83F207B680122A9
:1048500083F840207B68012283F841207B68012295
:1048600083F842207B68012283F843207B68012281
:1048700083F844207B68012283F845207B6801226D
:1048800083F83D20002318460837BD4680BD80B51B
:1048900082B000AF78607B68002B01D1012341E03A
:1048A0007B6893F83D30DBB2002B06D17B68002299
:1048B00083F83C20786800F039F87B68022283F89E
:1048C0003D207B681A687B6804331946104600F067
:1048D0005BFA7B68012283F846207B68012283F81B
:1048E0003E207B68012283F83F207B68012283F809
:1048F00040207B68012283F841207B68012283F8F5
:1049000042207B68012283F843207B68012283F8E0
:1049100044207B68012283F845207B68012283F8CC
:104920003D20002318460837BD4680BD80B483B0C3
:1049300000AF786000BF0C37BD4680BC70470000F8
:1049400080B584B000AF786039603B68002B09D136
:104950007B6893F83E30DBB2012B14BF01230023A8
:10496000DBB222E03B68042B09D17B6893F83F302F
:10497000DBB2012B14BF01230023DBB215E03B683F
:10498000082B09D17B6893F84030DBB2012B14BFB0
:1049900001230023DBB208E07B6893F84130DBB2EF
:1049A000012B14BF01230023DBB2002B01D0012314
:1049B0005EE03B68002B04D17B68022283F83E2036
:1049C00013E03B68042B04D17B68022283F83F206C
:1049D0000BE03B68082B04D17B68022283F840205F
:1049E00003E07B68022283F841207B681B68012278
:1049F0003968184600F048FC7B681B681E4A9342E1
:104A000007D17B681B685A6C7B681B6842F40042C4
:104A10005A647B681B68184A93420ED07B681B68F7
:104A2000B3F1804F09D07B681B68144A934204D0CD
:104A30007B681B68124A934211D17B681B689B6894
:104A400003F00703FB60FB68062B10D07B681B6834
:104A50001A687B681B6842F001021A6007E07B68F5
:104A60001B681A687B681B6842F001021A60002309
:104A700018461037BD4680BD002C014000040040A0
:104A80000008004080B584B000AFF860B9607A607B
:104A9000FB6893F83C30012B01D10223ACE0FB68AA
:104AA000012283F83C207B680C2B00F29F8001A23E
:104AB00052F823F0E94A0008ED4B0008ED4B0008DE
:104AC000ED4B0008294B0008ED4B0008ED4B0008AA
:104AD000ED4B00086B4B0008ED4B0008ED4B000858
:104AE000ED4B0008AB4B0008FB681B68B968184623
:104AF00000F0ACF9FB681B689A69FB681B6842F020
:104B000008029A61FB681B689A69FB681B6822F0BF
:104B100004029A61FB681B689969BB681A69FB68A3
:104B20001B680A439A6162E0FB681B68B968184613
:104B300000F0F2F9FB681B689A69FB681B6842F495
:104B400000629A61FB681B689A69FB681B6822F423
:104B500080629A61FB681B689969BB681B691A02CD
:104B6000FB681B680A439A6141E0FB681B68B968EF
:104B7000184600F03BFAFB681B68DA69FB681B68A3
:104B800042F00802DA61FB681B68DA69FB681B689F
:104B900022F00402DA61FB681B68D969BB681A69F4
:104BA000FB681B680A43DA6121E0FB681B68B9688F
:104BB000184600F085FAFB681B68DA69FB681B6819
:104BC00042F40062DA61FB681B68DA69FB681B6803
:104BD00022F48062DA61FB681B68D969BB681B69D3
:104BE0001A02FB681B680A43DA6100E000BFFB6839
:104BF000002283F83C20002318461037BD4680BDB4
:104C000080B584B000AF786039607B6893F83C3041
:104C1000012B01D10223B3E07B68012283F83C2001
:104C20007B68022283F83D207B681B689B68FB60E1
:104C3000FB6823F07703FB60FB6823F47F43FB6092
:104C40007B681B68FA689A603B681B68B3F5005F75
:104C50003ED0B3F5005F00F28780B3F5805F00F0CF
:104C60008580B3F5805F7FD8702B1AD0702B7BD8EE
:104C7000602B50D0602B77D8502B3CD0502B73D862
:104C8000402B58D0402B6FD8302B64D0302B6BD8B2
:104C9000202B60D0202B67D8002B5CD0102B5AD053
:104CA00062E07B6818683B6899683B685A683B68B3
:104CB000DB6800F0CAFA7B681B689B68FB60FB68D6
:104CC00043F07703FB607B681B68FA689A604EE0EC
:104CD0007B6818683B6899683B685A683B68DB6882
:104CE00000F0B3FA7B681B689A687B681B6842F423
:104CF00080429A603BE07B6818683B6859683B6873
:104D0000DB681A4600F02AFA7B681B6850211846B7
:104D100000F081FA2BE07B6818683B6859683B68B3
:104D2000DB681A4600F048FA7B681B686021184669
:104D300000F071FA1BE07B6818683B6859683B68B3
:104D4000DB681A4600F00AFA7B681B6840211846A7
:104D500000F061FA0BE07B681A683B681B68194633
:104D6000104600F058FA02E000BF00E000BF7B6888
:104D7000012283F83D207B68002283F83C20002339
:104D800018461037BD4680BD80B485B000AF78604E
:104D900039607B681B68FB607B68294A93420BD0B3
:104DA0007B68B3F1804F07D07B68264A934203D0DB
:104DB0007B68254A934208D1FB6823F07003FB60AF
:104DC0003B685B68FA681343FB607B681C4A93424C
:104DD0000BD07B68B3F1804F07D07B68194A9342B0
:104DE00003D07B68184A934208D1FB6823F44073D0
:104DF000FB603B68DB68FA681343FB60FB6823F0E9
:104E000080023B685B691343FB607B68FA681A6049
:104E10003B689A687B68DA623B681A687B689A62CA
:104E20007B68074A934203D13B681A697B681A631F
:104E30007B6801225A6100BF1437BD4680BC7047B1
:104E4000002C0140000400400008004080B487B0FE
:104E500000AF786039607B681B6A23F001027B68D1
:104E60001A627B681B6A7B617B685B683B617B685D
:104E70009B69FB60FB6823F07003FB60FB6823F019
:104E80000303FB603B681B68FA681343FB607B69A4
:104E900023F002037B613B689B687A6913437B6163
:104EA0007B681C4A93420CD17B6923F008037B6129
:104EB0003B68DB687A6913437B617B6923F00403F9
:104EC0007B617B68134A934211D13B6923F4807361
:104ED0003B613B6923F400733B613B685B693A6962
:104EE00013433B613B689B693A6913433B617B68B1
:104EF0003A695A607B68FA689A613B685A687B68CD
:104F00005A637B687A691A6200BF1C37BD4680BC51
:104F1000704700BF002C014080B487B000AF7860BC
:104F200039607B681B6A23F010027B681A627B6819
:104F30001B6A7B617B685B683B617B689B69FB608C
:104F4000FB6823F4E043FB60FB6823F44073FB60E1
:104F50003B681B681B02FA681343FB607B6923F004
:104F600020037B613B689B681B017A6913437B616B
:104F70007B681D4A93420DD17B6923F080037B61DE
:104F80003B68DB681B017A6913437B617B6923F013
:104F900040037B617B68144A934213D13B6923F43D
:104FA00080633B613B6923F400633B613B685B6961
:104FB0009B003A6913433B613B689B699B003A69DC
:104FC00013433B617B683A695A607B68FA689A616F
:104FD0003B685A687B689A637B687A691A6200BF8B
:104FE0001C37BD4680BC7047002C014080B487B0A0
:104FF00000AF786039607B681B6A23F480727B683D
:105000001A627B681B6A7B617B685B683B617B68BB
:10501000DB69FB60FB6823F07003FB60FB6823F037
:105020000303FB603B681B68FA681343FB607B6902
:1050300023F400737B613B689B681B027A6913430E
:105040007B617B681D4A93420DD17B6923F4006329
:105050007B613B68DB681B027A6913437B617B6978
:1050600023F480637B617B68144A934213D13B69CC
:1050700023F480533B613B6923F400533B613B685D
:105080005B691B013A6913433B613B689B691B01E8
:105090003A6913433B617B683A695A607B68FA68F6
:1050A000DA613B685A687B68DA637B687A691A62FE
:1050B00000BF1C37BD4680BC704700BF002C0140BC
:1050C00080B487B000AF786039607B681B6A23F4D6
:1050D00080527B681A627B681B6A3B617B685B68F5
:1050E0007B617B68DB69FB60FB6823F4E043FB606A
:1050F000FB6823F44073FB603B681B681B02FA6883
:105100001343FB603B6923F400533B613B689B689E
:105110001B033A6913433B617B680F4A934209D1F1
:105120007B6923F480437B613B685B699B017A69FF
:1051300013437B617B687A695A607B68FA68DA613D
:105140003B685A687B681A647B683A691A6200BFD8
:105150001C37BD4680BC7047002C014080B487B02E
:1051600000AFF860B9607A60FB681B6A7B61FB681E
:105170001B6A23F00102FB681A62FB689B693B61B2
:105180003B6923F0F0033B617B681B013A691343E1
:105190003B617B6923F00A037B617A69BB68134337
:1051A0007B61FB683A699A61FB687A691A6200BFA1
:1051B0001C37BD4680BC704780B487B000AFF86034
:1051C000B9607A60FB681B6A23F01002FB681A6200
:1051D000FB689B697B61FB681B6A3B617B6923F40D
:1051E00070437B617B681B037A6913437B613B6976
:1051F00023F0A0033B61BB681B013A6913433B6189
:10520000FB687A699A61FB683A691A6200BF1C37C9
:10521000BD4680BC704780B485B000AF786039600F
:105220007B689B68FB60FB6823F07003FB603A6857
:10523000FB68134343F00703FB607B68FA689A60DE
:1052400000BF1437BD4680BC704780B487B000AF44
:10525000F860B9607A603B60FB689B687B617B6942
:1052600023F47F437B613B681A027B681A43BB6867
:1052700013437A6913437B61FB687A699A6000BFC4
:105280001C37BD4680BC704780B487B000AFF86063
:10529000B9607A60BB6803F01F03012202FA03F3CE
:1052A0007B61FB681A6A7B69DB431A40FB681A6200
:1052B000FB681A6ABB6803F01F03796801FA03F3FD
:1052C0001A43FB681A6200BF1C37BD4680BC70479A
:1052D00080B485B000AF786039607B6893F83C306B
:1052E000012B01D1022346E07B68012283F83C2098
:1052F0007B68022283F83D207B681B685B68FB604B
:105300007B681B689B68BB60FB6823F07003FB60D5
:105310003B681B68FA681343FB607B681B68FA688C
:105320005A607B681B68164A93420ED07B681B68E4
:10533000B3F1804F09D07B681B68124A934204D0B6
:105340007B681B68104A93420CD1BB6823F0800332
:10535000BB603B685B68BA681343BB607B681B68D3
:10536000BA689A607B68012283F83D207B6800223E
:1053700083F83C20002318461437BD4680BC704794
:10538000002C0140000400400008004080B582B0BD
:1053900000AF78607B68002B01D101233FE07B6880
:1053A00093F83D30DBB2002B06D17B68002283F8F6
:1053B0003C207868FCF796FF7B68242283F83D2028
:1053C0007B681B68DA687B681B6822F40052DA602D
:1053D000786800F029F87B681B681A697B681B688D
:1053E00022F490421A617B681B685A697B681B68CB
:1053F00022F02A025A617B681B68DA687B681B68A6
:1054000042F40052DA607B6800221A647B68202232
:1054100083F83D207B68202283F83E200023184635
:105420000837BD4680BD000080B584B000AF78600D
:105430007B681B681B6923F440517B68DA687B68D2
:105440001B680A431A617B689A687B681B691A4368
:105450007B685B691343BB607B681B68DB6823F474
:10546000B05323F00C037A681268B9680B43D36019
:105470007B681B685B6923F440717B689A697B6871
:105480001B680A435A617B681B682C4A934203D10C
:10549000FFF7C6F8F86002E0FFF7AEF8F860FA68C8
:1054A00013469B0013449A001A447B685B689B0078
:1054B000B2FBF3F3224AA2FB03235B091901FA684A
:1054C00013469B0013449A001A447B685B689B0058
:1054D000B2FBF3F21A4BA3FB02035B09642000FB4F
:1054E00003F3D31A1B013233154AA2FB03235B09D2
:1054F00003F0F0031944FA6813469B0013449A0022
:105500001A447B685B689B00B2FBF3F20C4BA3FB75
:1055100002035B09642000FB03F3D31A1B0132333F
:10552000074AA2FB03235B0903F00F027B681B6899
:105530000A449A6000BF1037BD4680BD0038014064
:105540001F85EB51000000002DE9F84FB64B21F00C
:1055500000469E4204460D468B4617DDB34B9E42E5
:1055600001DC09D140B122462B4620462946FAF7F4
:10557000F5FD04460D4605E0BBF1000FAC4C00F311
:105580002181AC4D20462946BDE8F88FAA4B9E42AA
:1055900011DCA3F1DE739E420ADC8BA3D3E9002366
:1055A000FAF7DCFD0022A54BFBF71EFA0028E9D133
:1055B0004FF0FF3A27E000F051F9A14B04469E421C
:1055C0000D4600F3B880A3F550239E4200F39C8063
:1055D00002460B46FAF7C2FD0022984BFAF7BCFDD3
:1055E000002206460F464FF0804320462946FAF730
:1055F000B5FD02460B4630463946FBF78FF84FF0B3
:10560000000A04460D4622462B4620462946FAF754
:105610005BFF02460B4680468946FAF755FF6CA3AE
:10562000D3E9002306460F46FAF74EFF6AA3D3E9F3
:105630000023FAF793FD32463B46FAF745FF68A38D
:10564000D3E90023FAF78AFD32463B46FAF73CFFDE
:1056500065A3D3E90023FAF781FD32463B46FAF70A
:1056600033FF63A3D3E90023FAF778FD32463B46C4
:10567000FAF72AFF60A3D3E90023FAF76FFD424649
:105680004B46FAF721FF5EA3D3E900238046894603
:1056900030463946FAF718FF5BA3D3E90023FAF73F
:1056A0005BFD32463B46FAF70FFF59A3D3E90023CF
:1056B000FAF752FD32463B46FAF706FF56A3D3E906
:1056C0000023FAF749FD32463B46FAF7FDFE54A3A4
:1056D000D3E90023FAF740FD32463B46FAF7F4FEE1
:1056E00002460B4640464946FAF738FD22462B460D
:1056F000FAF7EAFEBAF1FF3F02460B4644D12046D4
:105700002946FAF729FD34E700224C4BFAF724FD2D
:10571000002206460F4620462946484BFAF71EFD52
:1057200002460B4630463946FAF7F8FF4FF0010AB9
:1057300004460D4667E7434B9E421ADA0022424B6D
:10574000FAF70AFD002206460F46204629463E4B40
:10575000FAF7BAFE0022394BFAF700FD02460B4673
:1057600030463946FAF7DAFF4FF0020A04460D4692
:1057700049E702460B4600203449FAF7CFFF4FF0C5
:10578000030A04460D463EE7314B324E06EBCA068D
:1057900003EBCA0ADAE90023FAF7DEFC22462B46BD
:1057A000FAF7DAFC02460B46D6E90001FAF7D4FC18
:1057B000BBF1000F04460D46BFF6E4AE01F1004315
:1057C0001D46DFE6244DDDE69C7500883CE4377E0F
:1057D00011DA22E33AAD903FEB0D76244B7BA93FE3
:1057E000513DD0A0660DB13F6E204CC5CD45B73FB1
:1057F000FF8300922449C23F0D5555555555D53F5D
:105800002F6C6A2C44B4A2BF9AFDDE522DDEAD3F50
:105810006D9A74AFF2B0B33F711623FEC671BC3FF0
:10582000C4EB98999999C93FFFFF0F440000F07F9E
:10583000182D4454FB21F9BFFFFFDB3F0000F03F70
:10584000FFFFF23F008003400000F83F0000F0BF80
:10585000385F0008185F0008FB21F93F21F0004184
:105860007047000070B500260C4D0D4C641BA41051
:10587000A64209D100F022F800260A4D0A4C641B0A
:10588000A410A64205D170BD55F8043B98470136D7
:10589000EEE755F8043B98470136F2E7585F0008F9
:1058A000585F0008585F00085C5F00080346024428
:1058B000934200D1704703F8011BF9E7F8B500BF28
:1058C000F8BC08BC9E467047F8B500BFF8BC08BCE1
:0458D0009E46704739
:1058D80053797374656D5F496E6974005359535FEA
:1058E800496E69745F454E44000000004E6F726D4A
:1058F800616C000020200000020304050607080967
:105908000A0B0C0D0E0F1010000000000000000024
:105918000000000000000000000000F80000000087
:10592800000000333000000000100C06100C0600C8
:10593800000000000000000040C07840C07840002F
:10594800043F04043F040400007088FC0830000091
:10595800001820FF211E0000F008F000E0180000E9
:1059680000211C031E211E0000F0088870000000A2
:105978001E2123241927211010160E0000000000F4
:105988000000000000000000000000E01804020011
:10599800000000071820400000020418E000000082
:1059A8000040201807000000404080F08040400080
:1059B8000202010F01020200000000F000000000D6
:1059C8000101011F010101000000000000000000AA
:1059D80080B070000000000000000000000000001F
:1059E80000010101010101010000000000000000A8
:1059F8000030300000000000000000008060180443
:105A0800006018060100000000E010080810E0001F
:105A1800000F102020100F00001010F800000000E8
:105A28000020203F2020000000700808088870002F
:105A380000302824222130000030088888483000AF
:105A48000018202020110E000000C02010F80000CF
:105A580000070424243F240000F808888808080068
:105A68000019212020110E0000E01088881800007D
:105A7800000F112020110E0000380808C83808004F
:105A88000000003F000000000070880808887000CF
:105A9800001C222121221C0000E010080810E00050
:105AA8000000312222110F00000000C0C0000000D9
:105AB80000000030300000000000008000000000FE
:105AC80000008060000000000000804020100800F6
