:020000040800F2
:100000000006002001010008F727000891220008DF
:10001000F5270008510A0008E12D00080000000043
:10002000000000000000000000000000632A00083B
:10003000F30A000800000000612A0008652A000891
:100040001B0100081B0100081B0100081B01000820
:100050001B0100081B0100081B0100081B01000810
:100060001B0100081B0100081B010008BD0A000855
:100070001B0100081B0100081B0100081B010008F0
:100080001B0100081B0100081B0100081B010008E0
:100090001B0100081B0100081B0100081B010008D0
:1000A0001B0100081B0100081B0100081B010008C0
:1000B0001B0100081B0100081B0100081B010008B0
:1000C0001B0100081B0100081B0100081B010008A0
:1000D0001B0100081B0100081B0100081B01000890
:1000E000F50A00081B0100081B010008DFF80CD00E
:1000F00000F0FCFB00480047F13500080006002036
:100100000648804706480047FEE7FEE7FEE7FEE7B1
:10011000FEE7FEE7FEE7FEE7FEE7FEE7E32A00086C
:10012000ED000008202A04DB203A21FA02F0002129
:10013000704721FA02F3D040C2F1200291400843F7
:1001400019467047D2B201E000F8012B491EFBD2DC
:1001500070470022F6E710B513460A4604461946D2
:10016000FFF7F0FF204610BDF0B480EA0102D40F83
:100170004200B2EB410F02D20246084611464A0045
:1001800042D0C30DDDB2C1F3C752AD1A202D35DA0E
:10019000C1F3160141F4000204B15242C5F1200638
:1001A00002FA06F12A411044B3EBD05F23D0C4B168
:1001B000012DA0EBC35009DCF0BC4FF0004202EA75
:1001C000C352DBB200F5000000F0EEBA400000F1CF
:1001D000807000EBC350A0F1807040EAD1704900FC
:1001E00009E0490841EAC071A0EBC35000F50000E6
:1001F000400800EBC350F0BC00F0CDBA61420122D0
:1002000002EB4101001BF6E7F0BC704781F00041B2
:10021000AAE780F00040A7E780EA010210B502F0EB
:100220000043400022D04A001FD0010E01EB1261B2
:10023000C0F35600C2F3560240F4000042F400023C
:10024000A0FB022000047F39140400D0401C50EAB7
:10025000124001D44000491EC2B20C0604EBD0107B
:10026000401C4008802A02D003E0002010BD20F08E
:100270000100002900DA0020184310BD30B480EAE4
:10028000010202F0004530F0004221F0004013D09E
:1002900090B1C30DD40DC2F31601C0F31600E41AD9
:1002A00041F4000140F400027D34914201D3641C0A
:1002B00000E04900002C02DA30BC002070474FF407
:1002C00000000023914201D3891A034340084FEAFA
:1002D0004101F7D151B1914202D14FF0004105E007
:1002E00002D24FF0010101E06FF0010103EBC450B5
:1002F000284430BC00F04FBA420005D0C0F3C752CA
:100300005242914201DC0020704700EBC15070471F
:100310002DE9FE4F804681EA0300C00F0C46009095
:1003200021F0004123F00045B8EB0200A94105D2BD
:100330004046214690461C460B46024623F00040AC
:10034000104347D0270DC7F30A00C3F30A510290A8
:10035000401A019040286BDAC3F3130040F4801B6D
:100360000098924620B10023D2EB030A63EB0B0BFB
:1003700001985946C0F14002504600F0EBF906469C
:100380000D4650465946019A00F0F3F910EB08006B
:100390006141002487EA115284EAE7731A4340D08E
:1003A000009A62B3019A012A4FEA075215DC001B3A
:1003B00061EB02014FF0004202EA0752CDE9004230
:1003C000001C41F5801132462B4600F02AFA03B09A
:1003D000BDE8F08F40462146F9E7001B61EB0201C2
:1003E000001C41F5801300185B412018A2F500178E
:1003F00047EB030140EAD570B6196D4111E06D0875
:100400004FEA360645EAC0754FEA0752001B61EB1A
:100410000201001C41F5801149084FEA3000001923
:10042000514132462B4603B0BDE8F04F00F0EAB927
:100430000098012240000023D0EB020263EBE0733E
:10044000009821464FEAE074B8EB000061EB04012C
:10045000E9E783F000435BE781F0004158E72DE9CD
:10046000FE4F81EA030404F0004421F000410094AF
:100470004FF0000B23F0004350EA01045ED052EA33
:1004800003045BD0C3F30A54C1F30A552C44A4F20D
:10049000F3340194A0FB0254C1F3130141F4801121
:1004A000C3F3130343F4801301FB024400FB034E28
:1004B000840A970A44EA815447EA8357A4FB0768F1
:1004C00002958D0A05FB07854FEA932C04FB0C541B
:1004D0002705029D4FEA065847EA1637B5EB08058F
:1004E0006EEB070C870E920E47EA811742EA8312E1
:1004F000A7FB0201B6EB0B0164EB00042B0D43EAF2
:100500000C335E1844EB1C50DA465146E7FB0201FF
:10051000C5F313044FEA0B3343EA14534FEA043292
:10052000019C43EA0603A4F10C040294009CCDE96B
:1005300000B400F076F903B0BDE8F08F002001466A
:10054000F9E72DE9F04D81EA030404F0004B21F0B6
:10055000004514464FF0000A23F0004150EA05021E
:1005600020D054EA01021DD0C5F30A570246C5F354
:100570001303C1F31300C1F30A5640F4801543F48A
:100580008013A7EB0608101BD64608F2FD3873EB64
:10059000050002D308F1010801E092185B41B8F1AF
:1005A000000F03DA00200146BDE8F08D00204FF473
:1005B0008011064684460EE0171B73EB050705D332
:1005C000121B63EB050306434CEA010C49084FEA92
:1005D000300092185B4150EA0107EDD152EA030066
:1005E00012D082EA040083EA0501084305D0101BFB
:1005F000AB4106D20122002306E000224FF0004367
:1006000002E06FF0010253101AEB06004CEB0851A8
:1006100010EB0A0041EB0B01BDE8F04D00F0F2B821
:10062000C10F80EAE0700844CA079623002100F059
:10063000BBB896230022114600F0B6B80EB5C10F24
:1006400080EAE0700844CA07002140F233438DE895
:100650000E000A460B4600F0E4F803B000BD00F0BF
:10066000004220F00040C10DC0F3160040F400002D
:100670007F2901DA00207047962903DCC1F1960139
:10068000C84001E096398840002AF4D040427047C3
:1006900020F00040C10DC0F3160040F400007F2997
:1006A00001DA00207047962903DCC1F19601C840A9
:1006B000704796398840704770B5C1F30A5201F00F
:1006C00000450024C1F3130140F2FF3341F48011CF
:1006D0009A4201DA002070BD40F233439A42A2F2FE
:1006E000334203DC5242FFF71DFD00E090402C43F3
:1006F000F1D0404270BD00F0004230F000400AD01E
:10070000C10D01F56071C0F3160042EA0151C20843
:1007100040071143704700200146704701F0004335
:1007200030B421F0004150EA010206D00A0DA2F5D2
:100730006072C1F31301002A02DC30BC0020704754
:10074000440F44EAC104C100E01830BC00EBC250C1
:1007500000F021B8202A04DB203A00FA02F1002040
:1007600070479140C2F1200320FA03F319439040EF
:100770007047202A06DBCB17203A41FA02F043EA01
:10078000E07306E041FA02F3D040C2F1200291404A
:100790000843194670470029A8BF7047401C49000C
:1007A00008BF20F00100704710B4B0FA80FC00FAD6
:1007B0000CF050EA010404BF10BC704749B1CCF101
:1007C000200421FA04F411FA0CF118BF012121438D
:1007D0000843A3EB0C01CB1D4FEA00614FEA102048
:1007E00042BF002010BC704700EBC35010440029EA
:1007F000A4BF10BC7047401C490008BF20F0010096
:1008000010BC704710B5141E73F1000408DA401CC8
:1008100041F1000192185B411A4301D120F001001F
:1008200010BD2DE9F04D92469B4611B1B1FA81F20F
:1008300002E0B0FA80F220329046FFF78BFF0446C8
:100840000F4640EA0A0041EA0B0153465A46084364
:1008500013D0114653EA010019D0C8F140025046A6
:10086000FFF760FC05460E46504659464246FFF7E4
:1008700071FF084305D0012004E020463946BDE859
:10088000F08D0020054346EAE0762C4337430A9872
:100890006305E40AA0EB08000022FD0A44EA47547D
:1008A0000A3002D500200146E9E701051019694127
:1008B000DDE9084500196941BDE8F04DA2E770B5D2
:1008C00021F0004303430CD0C1F30A550024D5EBBB
:1008D000040564EB0403D617AD1AB34102DB002014
:1008E000014670BD201841EB025170BD064C074D0A
:1008F00006E0E06840F0010394E8070098471034F0
:10090000AC42F6D3FFF7F6FBB04A0008D04A000825
:1009100070B5044600688168C943C90716D181686B
:1009200021F00101816000F035FD054609E000F08D
:1009300031FD401B022804D920688068C043C007ED
:1009400006D020688068C043C007F0D0002070BD8A
:10095000A06A40F01000A062E06A40F00100E0628E
:10096000012070BD10B50146406A826A12F0500F36
:1009700005D0006A026BBDE8104008461047816A46
:1009800041F40071816201688968C1F3424107291D
:100990000CD1017B51B9816A21F480718162816A35
:1009A000C90403D4816A41F00101816200F046F973
:1009B00010BD10B5406A816A41F040018162C16A90
:1009C00041F00401C16200F03BF910BD10B5406A6E
:1009D00000F035F910BD0000F8B500260446009679
:1009E00000688168C943C9072CD0816841F00101C2
:1009F0008160154815490068B0FBF1F000E0401E29
:100A000000900028FBD100F0C5FC054615E000F081
:100A1000C1FC401B022810D920688068C043C00771
:100A20000BD0A06A40F01000A062E06A40F0010024
:100A3000E06284F824600120F8BD20688068C0432B
:100A4000C007E4D10020F8BD3C00002040420F0068
:100A5000FEE7000010B5FFF7F1FD064A064BFFF771
:100A6000FEFC064A064BFFF753FCBDE81040FFF7BB
:100A700055BE0000158C4AEA0434E33F38F8C264DE
:100A8000AA60E23F10B51C461046FFF7F7FBFFF7E0
:100A900032FE02F047FAFFF741FE002C09D0FFF7C3
:100AA0002AFE044A044BFFF74CFDBDE81040FFF757
:100AB00035BE10BD1F85EB51B81E0940014800F03E
:100AC0002BBA0000DC00002030B590F84050012423
:100AD000AC40C56B6C60046863604368102B0368AE
:100AE00003D099600068C26030BD9A600068C16040
:100AF00030BD70474FF4805000F054BB72B6FEE733
:100B00007FB50C460C49884215DC0C4A904212D243
:100B10008C4210DC94420ED2002501210095FFF793
:100B2000EBFBCDE9010501212046FFF7E5FB039032
:100B3000684601F07BFF7FBD0000C8420000808056
:100B4000F8B50023009390F824201C46012A12D007
:100B5000012280F824204A681F26072A0DD2056842
:100B60006F6B521E02EB82029640B7430E689640AE
:100B700037436F6319E00220F8BD05680D2A0AD2D9
:100B80002F6BD21F02EB82029640B7430E6896404D
:100B900037432F6309E0EF6A0D3A02EB8202964079
:100BA000B7430E6896403743EF620A680726056828
:100BB0000A2A0AD3EF680A3A02EB42029640B74388
:100BC0008E6896403743EF6008E02F6902EB4202DF
:100BD0009640B7438E68964037432F610A68102AC3
:100BE00001D0112A20D1124D0268AA4217D195686E
:100BF0002D0219D4956845F40005956009681029FF
:100C000012D10C490C4A0968B1FBF2F101EB8101E8
:100C1000490000E0491E00910029FBD104E0816AEF
:100C200041F020018162012380F824401846F8BD7C
:100C3000002401403C00002040420F0070477047F4
:100C4000704700002DE9F0414FF0000604003546E2
:100C50007DD0A06A002728B9E76284F82470204676
:100C600000F07EF82046FFF753FEA16AC90600D4C3
:100C700020B1A06A40F01000A06268E0A16A21F4EF
:100C8000885141F00201A1626268E169237B0A4355
:100C900046EA43010A43A1684FF48076B14208D086
:100CA000012906D0002194F814C0BCF1010F02D034
:100CB0000AE03146F7E7F3B1A36A43F02003A362E9
:100CC000E36A43F00103E3622368D3F804C02CF421
:100CD000694C4CEA010CC3F804C021688B68DFF84A
:100CE00074C003EA0C0313438B60A168B1420BD0BC
:100CF000012909D00CE0DFF860C0A3690CEB433395
:100D00000B4343F40061DFE7218A0D05A5F580154B
:100D10002168CB6A23F470032B43CB622168896876
:100D20000E4B1940914208D1E762A16A21F00201FD
:100D300041F00101A162BDE8F081A06A20F002004B
:100D400040F01000A062E06A40F00100E062012083
:100D5000F1E70000FDF7E1FF00E0FFFFFE0E1FFFDF
:100D6000F0B585B0002406460094019402940394E3
:100D70000068204988423BD11F49886940F40070CF
:100D80008861886900F400700490886940F004006C
:100D90008861886900F004000490886940F00800C8
:100DA000886188698027032500F00800CDE9007577
:100DB00004906946114800F001FA00956946104810
:100DC000019500F0FBF9104D0E48C5E900048015AF
:100DD000AC60C5E90370800068612020C5E90604A5
:100DE000284600F045F908B1FFF788FE35626E62CB
:100DF00005B0F0BD00240140001002400008014091
:100E0000000C014008000240DC0000202DE9F04702
:100E1000894604463B4900683B4F0E1D9046884278
:100E200001D0B84207D1306810F4702F03D00125EB
:100E30002846BDE8F08794F8240001280CD0012052
:100E400084F824002046FFF7C7FD05004FF000019D
:100E500004D084F82410EBE70220EAE7A06A40F609
:100E60000162904340F48070A0622068B84218D1BB
:100E7000326812F4702F14D0A06A40F48010A0627F
:100E80003068400505D5A06A20F4005040F4805039
:100E9000A062A06AC0040AD5E06A20F00600E06201
:100EA00006E0A26A22F48012A2624068E9E7E162E9
:100EB00084F82410216A15488862216A1448C8629F
:100EC000216A1448086321686FF0020008602068F6
:100ED000816841F480718160216843464A464C3103
:100EE000206A00F0F3F820688168C1F342410729C5
:100EF000816803D041F48011816099E741F4A00139
:100F0000FAE70000002401400028014065090008BC
:100F1000CD090008B30900082DE9F05FC16B0B682B
:100F200001680A68046C4FF0040C0CFA04FC4A4D8A
:100F3000DFF828A14A4E4B4FDFF82CB1DFF82CE147
:100F40001CEA030F2DD05FEA427C2AD50A6892067C
:100F500003D40A6822F004020A600168A94201D1A0
:100F6000042119E0514501D1402115E0B14202D1DF
:100F70004FF4806110E0B94202D14FF480410BE0A0
:100F8000594502D14FF4802106E0714502D14FF45A
:100F9000800101E04FF080612F4A083A5160C16A38
:100FA0003BE04FF0020808FA04F818EA030F4FF08C
:100FB00000094FF0010C35D05FEA827832D50A681B
:100FC000920605D40A6822F00A020A6080F821C05D
:100FD0000168A94201D1022119E0514501D1202126
:100FE00015E0B14202D14FF4007110E0B94202D1D4
:100FF0004FF400510BE0594502D14FF4003106E0A7
:10100000714502D14FF4001101E04FF00071124A16
:10101000083A516080F82090816A00291AD0BDE812
:10102000F05F08470825A5401D4213D0120711D5CF
:101030000A6822F00E020A6090F84010C26B0CFAA7
:1010400001F15160C0F838C080F821C080F82090CC
:10105000016BE2E7BDE8F09F080002401C0002407F
:101060003000024044000240580002406C00024040
:1010700030B528B302C8134A14230A44B2FBF3F272
:101080009200C263104A8263022242770B6843F6E1
:10109000F0729343D0E900242243D0E902452C4367
:1010A00022430469224344692243846922431A4348
:1010B0000A6000214163012242770177084630BD72
:1010C000012030BDF8FFFDBF0000024070B50446AE
:1010D00090F82000002501280CD0012084F8200081
:1010E00094F821600020012E06D084F8200002250B
:1010F000284670BD022070BD022684F82160A063DE
:101100002068066826F0010606602046FFF7DCFC32
:10111000E06A00282068016802D041F00E0106E074
:1011200021F0040101602068016841F00A010160BA
:101130002068016841F001010160D9E770B50446FB
:1011400000F028F90546601C02D0044800780444E9
:1011500000F020F9401BA042FAD370BD30000020FF
:101160000C4910B50878401CC0B2087004280FD391
:101170000020087001F040FB012107A2084601F0A1
:1011800008FC0721BDE8104005A2042001F001BCC5
:1011900010BD0000080000204E6F726D616C0000F1
:1011A00020200000044910B50A68024202D00860FD
:1011B000FFF7D6FF10BD0000140401402DE9F84FE1
:1011C000DFF8A491002409F1040A0AF1040B234674
:1011D0004FF00F080BF1040EBEE00127A7403A4084
:1011E000BA4272D1DFF884C14D68A5EB0C066545A3
:1011F0002BD00DDC032D34D005DC35B3012D19D0F7
:10120000022D2FD11BE0112D16D0122D2AD119E05D
:10121000B6F5881F19D006DCB6F5803F15D0B6F5B7
:10122000801F1FD111E0B6F5001F0ED0B6F5041FC8
:1012300018D10AE0CB6815E0CB681B1D12E0CB6823
:1012400008330FE0CB680C330CE08B682BB1012B1B
:101250004FF0080303D0476104E0042302E0076174
:1012600000E00023FF2A01D8064601E000F1040651
:101270004FEA840501D9A5F12005376808FA05FC75
:1012800027EA0C0703FA05F547EA050737604D68BA
:10129000ED0060D5364DAE6946F00106AE61AD6930
:1012A00024F0030605F001050095324D7719BE685C
:1012B000A5072D0F08FA05FC26EA0C06DFF8B8C0D2
:1012C000604503D14FF0000C17E044E0DFF8ACC0FC
:1012D000604502D14FF0010C0FE0DFF8A4C060457B
:1012E00002D14FF0020C08E0DFF898C0604502D14F
:1012F0004FF0030C01E04FF0040C0CFA05FC4CEA33
:10130000060CC7F808C04D68D9F80060ED034D46DB
:1013100001D5164300E096432E604D68DAF8006070
:10132000AD03554601D5164300E096432E604D6847
:10133000DBF80060ED025D4601D5164300E0964300
:101340002E604D68DEF80060AD02754601D516438B
:1013500000E096432E60641C0A6832FA04F57FF4BC
:101360003CAFBDE8F88F0000000401400000111000
:10137000001002400000014000080140000C014044
:1013800000100140001401408068084000D0012096
:10139000704700000148806870470000300000205E
:1013A00070B5040025D094F83D00002520B984F8DC
:1013B0003C50204600F050F9242084F83D0020687D
:1013C000016821F0010101602068016841F40041D9
:1013D00001602068016821F40041016000F012FB07
:1013E0004D4B6168994201D84C4900E04C49884214
:1013F00001D2012070BD4B492268B0FBF1F1566863
:1014000026F03F060E43566062689A4206D94FF4B2
:10141000967251434FF47A72B1FBF2F12268491C83
:10142000166A26F03F06314311626168994210D86E
:101430004900401EB0FBF1F2521CC2F30B02042A19
:1014400001D2042022E0B0FBF1F0401CC0F30B00FD
:101450001CE0A268F2B301EBC10303EB0116431ECB
:10146000B3FBF6F35B1C43F480431B0549D092B3F6
:1014700001EBC10202EB0111401EB0FBF1F0401C78
:10148000C0F30B0040F4804040F400402168CA697A
:101490004CF6FF739A431043C861D4E90710014327
:1014A0002068026822F0C00211430160D4E9030100
:1014B00001432068826848F2FF339A4311438160F8
:1014C000D4E9051001432068C26822F0FF021143ED
:1014D000C16001E00EE016E02068016841F0010102
:1014E00001602564202084F83D00256384F83E5087
:1014F000002070BD01EB4106431EB3FBF6F35B1CFD
:10150000B3E70120C2E701EB4101401EB0FBF1F05F
:10151000401CC0F30B00B7E7A086010080841E00CA
:1015200000093D0040420F002DE9FF4F83B09A466D
:10153000DDE9119793460446DDF84080FFF72AFF66
:10154000054694F83D0020287FD119230122404907
:101550002046009500F02EFF002876D194F83C003C
:10156000012872D0012084F83C0020680168C90776
:1015700003D1016841F0010101602068016821F494
:1015800000610160212084F83D00402084F83E0085
:1015900000262664C4F82480A4F82A90608D208553
:1015A0002C48E062CDE9007553465A46204604991E
:1015B00000F086FE70B930E02A463946204600F039
:1015C00079FF58B1206C042804D12068016841F4E7
:1015D00000710160012007B0BDE8F08F606A2168EA
:1015E00000780861626A521C6262208D401E80B2DF
:1015F0002085618D491E618521684B69DB435B074E
:101600000BD468B110780861606A401C6062208D5C
:10161000401E2085608D401E6085208D0028CBD126
:101620002A463946204600F09FFE0028CAD154F8C9
:101630003D0B016841F400710160202004F81E098F
:10164000E67766770020C6E7FFE70220C3E70000E1
:10165000020010000000FFFF10B586B000210091CD
:1016600001910291039100680F4988421AD10F4CF1
:10167000A06940F00800A061A069694600F0080078
:101680000490C0200090122001900320039008488D
:10169000FFF794FDE06940F40010E061E06900F4B8
:1016A0000010049006B010BD00540040001002402D
:1016B000000C014002488168027811448160704743
:1016C00030000020074810B5016841F010010160AA
:1016D000032000F075F80F2000F006F800F024F861
:1016E000002010BD0020024070B50D4D04464FF49F
:1016F0007A712878B1FBF0F00A490968B1FBF0F083
:1017000000F062FB48B9102C07D200222146501E7F
:1017100000F036F800206C6070BD012070BD000044
:10172000300000203C0000200C4808B5816941F0E1
:1017300001018161816901F001010091C16941F0FC
:101740008051C161C069064900F08050009048682E
:1017500020F0E06040F00070486008BD00100240DA
:1017600000000140002809DB00F01F020121914028
:101770004009800000F1E020C0F80011704700002F
:10178000F0B40E4B1B68C3F30223C3F10704042C0F
:1017900000D904241D1D072D01D2002300E0DB1E0B
:1017A000012606FA04F56D1E0D409D409E40761EF2
:1017B000164045EA0601F0BC01F034BB0CED00E038
:1017C000064A00F0070110684FF6FF03184040EA90
:1017D0000120034908431060704700000CED00E051
:1017E0000000FA052DE9F84304460078344FC0079D
:1017F00052D0F8690025C00008D4F86940F0805044
:10180000F861F869012500F0805000902D480168CA
:10181000C90511D40168804641F480710160FFF769
:10182000B9FD064604E0FFF7B5FD801B642822D809
:10183000D8F80000C005F6D5386A10F4407020D002
:10184000A18801F4407181421BD0386A1E490122EF
:1018500020F440700A6000220A603862C00710D08D
:10186000FFF798FD064641F2883807E0FFF792FD42
:10187000811B414502D90320BDE8F883386A8007FF
:10188000F4D5386A616820F44070084338621DB1AD
:10189000F86920F08050F8612078800705D57868D5
:1018A000A16820F44040084378602078C00605D540
:1018B0007868E16820F48000084378600020DBE766
:1018C0000010024000700040400442422DE9F04701
:1018D0000D46040067D0DFF81881D8F8000000F04A
:1018E0000700A8420CD2D8F8001021F007012943C4
:1018F000C8F80010D8F8000000F00700A84252D144
:1019000020683C4E810712D5400703D5706840F42B
:10191000E06070602078000703D5706840F4605084
:1019200070607068A16820F0F00008437060207853
:10193000C00727D06068012810D03168022810D075
:10194000890700292FDA716821F0030101437160D2
:10195000FFF720FD074641F288390CE03168890322
:10196000EFE78901EDE7FFF715FDC11B494502D9F6
:101970000320BDE8F0877068616800F00C00B0EBF0
:10198000810FF0D1D8F80010404601F00701A942BC
:101990000BD9016821F0070129430160006800F0BC
:1019A0000700A84201D00120E3E72078400705D5D1
:1019B0007068E16820F4E0600843706020780007F8
:1019C00006D57068216920F4605040EAC10070605B
:1019D00000F038F87168084AC1F30311515CC8403F
:1019E0000649086006480068FFF77EFE0020C0E751
:1019F0000020024000100240004A00083C00002085
:101A0000340000200448054900684968044AC1F3CD
:101A10000221515CC84070473C0000200010024089
:101A2000104A00080448054900684968044AC1F39F
:101A3000C221515CC84070473C00002000100240A9
:101A4000104A000812A085B00FC88DE80F0014A03E
:101A5000144B006804905968134801F00C02042AE2
:101A600010D0082A0ED1C1F38342C9031DF8020029
:101A70000AD5596804AAC1F34041515C0A4A50434F
:101A8000B0FBF1F005B0704708494843FAE70000A1
:101A900002030405060708090A0B0C0D0E0F1010AF
:101AA000010200000010024000127A0000093D000F
:101AB0002DE9F84F04006FD02078BE4DC00747D005
:101AC0006868C0F38100012807D06868C0F381000E
:101AD000022809D16868C00306D52868800337D575
:101AE00060680028E7D033E06068B0F5803F0BD035
:101AF00010B1B0F5A02F11D0286820F480302860F4
:101B0000286820F4802002E0286840F480302860B3
:101B1000606888B1FFF73EFC064609E0286840F49B
:101B200080202860F0E7FFF735FC801B642873D81D
:101B300028688003F7D50BE0FFF72CFC064604E08D
:101B4000FFF728FC801B6428F1D828688003F7D4AD
:101B50002078DFF8648280074FF0010A4FF0000917
:101B600039D5686810F00C0F07D06868C0F38100A1
:101B7000022809D16868C00306D42868800714D5F4
:101B80002069012808D110E02069B0B1C8F800A090
:101B9000FFF700FC064605E007E1FFF7FBFB801BB3
:101BA0000228C4D828688007F7D52868616920F022
:101BB000F80040EAC10028600DE0C8F80090FFF787
:101BC000E9FB064604E0FFF7E5FB801B022823D86B
:101BD00028688007F7D4207800072CD57748A169BA
:101BE000D9B1C0F800A0FFF7D5FB064604E0FFF727
:101BF000D1FB801B02280FD8686A8007F7D5704890
:101C00004FF4FA510068B0FBF1F0009000BF00986B
:101C1000411E0091FAD20EE07CE0C0F80090FFF780
:101C2000B9FB064604E0FFF7B5FB801B022871D81C
:101C3000686A8007F7D4207840075BD5E8690027F9
:101C4000C00008D4E86940F08050E861E8690127E5
:101C500000F0805000905B480168C90511D401680C
:101C6000834641F480710160FFF794FB064604E06F
:101C7000FFF790FB801B64284CD8DBF80000C00500
:101C8000F6D5E06801280AD008B1052813D0286AE3
:101C900020F001002862286A20F0040002E0286A8F
:101CA00040F001002862E06841F2883B88B1FFF70C
:101CB00071FB064609E0286A40F004002862EEE75E
:101CC000FFF768FB811B59455BD8286A8007F7D569
:101CD0000BE0FFF75FFB064604E0FFF75BFB811BB1
:101CE00059454ED8286A8007F7D41FB1E86920F01B
:101CF0008050E861E069A8B36968C1F381010229F5
:101D000046D00228484606D0C8F86000FFF742FBDC
:101D1000044639E035E04746C8F86000FFF73AFB73
:101D2000064604E0FFF736FB801B022829D8286806
:101D30008001F7D4206AB0F5803F05D16868A168BA
:101D400020F4003008436860D4E90801084369685A
:101D500021F4741108436860C7F860A0FFF71AFB0C
:101D6000044605E023E0FFF715FB001B022808D816
:101D700028688001F7D51AE0FFF70CFB001B02284A
:101D800002D90320BDE8F88F28688001F4D40EE062
:101D90000128F7D06868226A00F48031914204D1AA
:101DA000616A00F47010884201D00120EAE7002047
:101DB000E8E7000000100240000042428004424276
:101DC0003C0000200070004010B5401EB0F1807F44
:101DD00001D3012010BD4FF0E02460610F21601796
:101DE00001F020F80020A06107202061002010BD34
:101DF00070B590F83C20012A26D0012580F83C508F
:101E0000022280F83D2002685368946823F070062F
:101E10000B68334353600D4B02689A4208D0B2F10D
:101E2000804F05D00A4B9A4202D00A4B9A4204D105
:101E3000496824F080031943916080F83D500021E7
:101E400080F83C10084670BD022070BD002C014097
:101E5000000400400008004010B5040003D094F8CE
:101E60003D0010B107E0012010BD002084F83C00C7
:101E7000204600F01FF8022084F83D00211D206854
:101E800000F030FE012084F8460084F83E0084F81B
:101E90003F0084F8400084F8410084F8420084F850
:101EA000430084F8440084F8450084F83D00002095
:101EB00010BD000008B50068B0F1804F08D105489A
:101EC000C16941F00101C161C06900F001000090E9
:101ED00008BD00000010024070B5044690F83C00B8
:101EE000012817D0012584F83C50022084F83D00D9
:101EF0002068826822F0770222F47F4282600868BC
:101F0000502830D00DDC20284DD005DC98B31028A7
:101F10003BD148E0022070BD302844D0402834D165
:101F200039E0602828D0702806D0B0F5805F2CD02A
:101F3000B0F5005F29D10AE0CB68D1E90121206822
:101F400000F013FE2068816841F0770109E0CB685A
:101F5000D1E90121206800F008FE2068816841F481
:101F60008041816011E0CA684968206800F0B8FECD
:101F70005021206807E016E0CA684968206800F030
:101F8000C0FE6021206800F0FAFD84F83D5000207A
:101F900084F83C0070BDCA684968206800F0A0FE63
:101FA00040212068EFE7226801461046EBE7000079
:101FB00000B585B000210091019102910391006864
:101FC000B0F1804F11D10A48816941F0040181616B
:101FD0008069694600F0040004900F200090022000
:101FE000019003900348FFF7E9F805B000BD000039
:101FF000001002400008014070B5044690F83C0013
:102000000D4601280AD0012084F83C0042B1042A80
:1020100018D0082A2AD00C2A4DD139E0022070BDF0
:10202000206800F0B5FD2068816941F008018161F8
:102030002068816921F004018161206881692A6931
:10204000114311E0206800F0CFFD2068816941F460
:10205000006181612068816921F48061816120686B
:1020600081692A6941EA0221816124E0206800F047
:10207000E9FD2068C16941F00801C1612068C169BA
:1020800021F00401C1612068C1692A69114311E08E
:10209000206800F003FE2068C16941F40061C1615D
:1020A0002068C16921F48061C1612068C1692A6921
:1020B00041EA0221C161002084F83C0070BD10B5E6
:1020C000040003D094F83D0010B107E0012010BDDA
:1020D000002084F83C00204600F01EF8022084F81E
:1020E0003D00211D206800F0FDFC012084F8460021
:1020F00084F83E0084F83F0084F8400084F84100F2
:1021000084F8420084F8430084F8440084F84500D1
:1021100084F83D00002010BD7047000010B5044653
:1021200049B104290AD008290BD094F841000128AC
:102130000AD0012010BD94F83E00F8E794F83F0063
:10214000F5E794F84000F2E7022041B3042929D0D2
:1021500008292AD084F841000122206800F0F8FC08
:1021600013492068884203D1426C42F40042426421
:102170002068884208D0B0F1804F05D00D498842D0
:1021800002D00D49884204D1816801F00701062977
:1021900003D0016841F001010160002010BD84F806
:1021A0003E00D9E784F83F00D6E784F84000D3E743
:1021B000002C0140000400400008004070B50400FD
:1021C00004D094F83D00002510B106E0012070BD58
:1021D00084F83C50204600F023F8242084F83D0089
:1021E0002068C16821F40051C160204600F09CFDC8
:1021F0002068016921F4904101612068416921F062
:102200002A0141612068C16841F40051C160256420
:10221000202084F83D0084F83E00002070BD0000BE
:1022200030B585B0002400940194029403940068B2
:102230001449884224D11448816941F48041816164
:10224000816901F480410491816941F00401816157
:1022500080690E4D00F0040004904FF4007000906F
:10226000022001900320039069462846FEF7A6FF4E
:102270002815CDE90004694628460294FEF79EFF22
:1022800005B030BD00380140001002400008014098
:10229000FEE701684A69D24352050FD46FF48062A9
:1022A0004A61002140F8301F202242738173026985
:1022B00042F0040202610173012070470020704760
:1022C0002DE9F843044600680D46DDE908970168EA
:1022D0009846164641F4807101604B4600224FF04B
:1022E00001112046009700F065F848B120680068A9
:1022F000C00502D54FF4007020640320BDE8F883C8
:10230000216805F0FE0008613B464A461549204613
:1023100000F084F888B920684169806900903A46E5
:102320004946204600F0C6F848B1206C042804D184
:102330002068016841F4007101600120DEE7F5B218
:10234000B8F1010F09D02168300A08613A464946C0
:10235000204600F0AFF80028E7D120680561002092
:10236000CCE700000200010070B516460D46044699
:102370000DE02046FFF78DFF08B1012070BD681CFD
:1023800005D0FFF707F8801BA84207D835B12068B1
:102390004069C0434007ECD4002070BD002044F8E1
:1023A000300F20216173A073216941F02001216168
:1023B0002073E2E72DE9F0471D4690460E4604469D
:1023C000C1F30747DDF8209008E0681C06D0FEF74F
:1023D000E1FFA0EB0900A8420FD875B12068012FDA
:1023E00018D0806926EA00000004000C14D00020F8
:1023F0004045EAD00020BDE8F087002044F8300FC7
:1024000020216173A073216941F0200121612073B3
:102410000120F0E74069E5E70120E9E72DE9F04711
:10242000984615460E4604464FF000094FF0200A24
:10243000C1F3074723E020684069C043400515D435
:102440002068016841F40071016021686FF48060C8
:102450004861C4F8309084F83DA084F83E90216C27
:1024600041F00401216484F83C901EE0681C06D011
:10247000FEF790FFA0EB0800A8420AD84DB12068F3
:10248000012F15D0806926EA00000004000C0DD051
:10249000D1E744F8309F84F80DA084F80E902169AC
:1024A00041F02001216184F80C900120BDE8F08703
:1024B0004069E8E770B516460D4604460DE0204633
:1024C000FFF7E7FE08B1012070BD681C05D0FEF7DC
:1024D00061FF801BA84207D835B120684069C0431E
:1024E0000006ECD4002070BD002044F8300F2021FD
:1024F0006173A073216941F0200121612073E2E73B
:102500002DE9F0418846044601690068FDF72CFE7C
:10251000606005466169FDF727FE01462846FDF724
:10252000ADFEE060A768064639464046FDF76EFE00
:102530003146FDF771FE3946FDF716FE0746A060ED
:1025400031464FF07E50FDF761FE2946FDF764FEEF
:1025500020603846BDE8F08170B50446DDE90456D8
:102560004FF07E50206000206060A060E06019465F
:102570001046FEF7D3F8206128463146FEF7CEF824
:10258000606170BD3EB500211C48009101911A4A5E
:102590000291026092158260012404730175032583
:1025A0004FF460220561C2614160FEF74BFB08B148
:1025B000FEF7A4FA0720CDE9000469460F4802940B
:1025C000FEF7BEFA08B1FEF799FA08200090022043
:1025D000019069460948FEF7B3FA08B1FEF78EFA92
:1025E0000920CDE9000569460448FEF7A9FA00284C
:1025F00001D0FEF783FA3EBD00240140AC0000206C
:10260000094808B5416941F0010141614069002272
:1026100000F00100009011460B20FFF7B1F8BDE873
:1026200008400B20FFF79EB80010024070B586B03E
:102630001C4800250395816941F020018161816971
:1026400001F020010491816941F0040181618169F7
:1026500001F004010491816941F008018161806900
:10266000012400F0080004904FF4805000900E48C0
:10267000CDE901040D4E69463046FEF79FFD182056
:10268000CDE90005694602943046FEF797FD002229
:1026900011462820FFF774F82820FFF763F806B0EA
:1026A00070BD00000010024000001110000C01403D
:1026B0000D4810B50B4901600C49416000214FF4F1
:1026C00080428160C0E9031241618161C1610162A0
:1026D000FEF766FE002803D0BDE81040FEF70EBAF4
:1026E00010BD00000054004020010020A086010021
:1026F00010B58EB000240794089409940A940B94A2
:102700001C2168460C94FDF724FD2B484FF08041B6
:1027100001604FF4E151C0E90114C821C0E903147C
:1027200080218161FFF798FB08B1FEF7E7F94FF4CC
:102730008050079007A92048FFF7CEFB08B1FEF7AD
:10274000DDF91D48FFF7BBFC08B1FEF7D7F90B9484
:102750000BA919480C94FFF74BFB08B1FEF7CEF913
:10276000602000906420CDE90104002269461248EF
:102770000494FFF741FC08B1FEF7C0F90422694652
:102780000D48FFF739FC08B1FEF7B8F90822694691
:102790000948FFF731FC08B1FEF7B0F90C22694691
:1027A0000548FFF729FC08B1FEF7A8F90248FFF732
:1027B000FFFB0EB010BD0000740100200C4810B5E6
:1027C0000A4901604FF4E1314160002181600C222F
:1027D000C160C0E904128161C161FFF7EFFC00280C
:1027E00003D0BDE81040FEF789B910BD00380140A4
:1027F000BC010020FEE7FEE770B500250021284659
:1028000000F061F80024002000F0E8F8641CE4B255
:10281000802CF8D36D1CEDB2082DEFD370BD10B530
:10282000C820FEF78BFCAE2000F0C6F8D52000F0E3
:10283000C3F8802000F0C0F8A82000F0BDF83F20C9
:1028400000F0BAF8D32000F0B7F8002000F0B4F898
:10285000402000F0B1F8A12000F0AEF8C82000F050
:10286000ABF8DA2000F0A8F8122000F0A5F88120DB
:1028700000F0A2F8CF2000F09FF8D92000F09CF8DB
:10288000F12000F099F8DB2000F096F8302000F0FD
:1028900093F8A42000F090F8A62000F08DF88D2089
:1028A00000F08AF8142000F087F8AF2000F084F8D8
:1028B000BDE81040FFF7A0BF0346012000E05843E9
:1028C000491EFCD2704710B50C4640F0B00000F035
:1028D00073F8102040EA141000F06EF804F00F00B6
:1028E000BDE8104000F068B82DE9F0410746CE0081
:1028F0004000083E801E15464FF0FF38F1B2C0B2CE
:10290000FFF7E1FF1148002400EB05152819A0F599
:10291000805090F8000E00F061F8641CE4B2082CBE
:10292000F4D308EB4700F1B2C0B2FFF7CCFF0024AC
:102930002819A0F5805090F8080E00F04FF8641C9C
:10294000E4B2082CF4D3BDE8F0810000503B00084D
:102950002DE9F0471D4616460F46814600244FF0EC
:102960000A0812E0291B0A20491EFFF7A5FFB6FB43
:10297000F0F1B1FBF8F208FB12123819C1B2484667
:102980003032FFF7B1FF641CE4B2AC42EAD3BDE8D9
:10299000F0872DE9F04115460E460746002406E073
:1029A0003019C1B23846FFF79FFF641CE4B22A5DBC
:1029B000002AF5D1BDE8F08101B584B0012104A859
:1029C00064228DE807000B46002278210248FEF7BA
:1029D000ABFD05B000BD00002001002001B584B0B2
:1029E000012104A864228DE807000B4640227821CB
:1029F0000248FEF799FD05B000BD0000200100204F
:102A000010B500210848FFF789FB04210648FFF7AD
:102A100085FB08210448FFF781FBBDE810400C212D
:102A20000148FFF77BBB00007401002070B504462D
:102A30000068FDF72DFE094D296848636068FDF7C1
:102A400027FE29688863A068FDF722FE2968C8630D
:102A5000E068FDF71DFE2968086470BD7401002060
:102A600070477047FEF726BE30B593B02821684600
:102A7000FDF76FFB14210AA8FDF76BFB0024012171
:102A80000F9410940804CDE900101194129402944C
:102A900002250491CDE907504FF4E01009906846F3
:102AA000FFF706F808B172B6FEE70F20CDE90A0578
:102AB0004FF48060CDE90C4002210AA80E94FEF785
:102AC00005FF08B172B6FEE74FF4004011900F9574
:102AD0000FA8FEF787FE002801D072B6FEE713B0FC
:102AE00030BD7047F0B50268164C174D174E4FF0C9
:102AF0008047A04205D0B84203D0A84201D0B042DE
:102B000003D122F070034A681A43A04205D0B842AC
:102B100003D0A84201D0B04203D122F44073CA6866
:102B20001A434B6922F080021A4302608A68C2622B
:102B30000A688262A04201D10969016301214161F1
:102B4000F0BD0000002C01400004004000080040DF
:102B500010B501F01F010123046A8B409C430462FD
:102B6000036A8A401343036210BD10B5846842EAC9
:102B7000032224F47F440A432243826010BD82680A
:102B800022F070020A4342F00701816070470000A2
:102B900030B5026A22F001020262036A4268846967
:102BA00024F073050C682C4323F002058B682B433B
:102BB0000C4DA84206D123F00805CB6843EA050373
:102BC00023F0040307D14D6922F4407245EA02055F
:102BD0008A6942EA0502426084614968416303628E
:102BE00030BD0000002C014030B5026A22F0100216
:102BF0000262026A436884690D6824F4E64444EA88
:102C000005248D6822F0200242EA05120C4DA842EC
:102C100006D1CD6822F0800242EA051222F040027D
:102C200007D14D6923F4406343EA85038D6943EA84
:102C300085034360846149688163026230BD00009E
:102C4000002C014030B5026A22F480720262036AED
:102C50004268C46923F4007324F073050C682C43A4
:102C60008D6843EA05230C4DA84206D1CD6823F4B4
:102C7000006343EA052323F4806307D14D6922F4FE
:102C8000405242EA05128D6942EA05124260C4616F
:102C90004968C163036230BD002C014030B5026A4F
:102CA00022F480520262036A4268C4690D6824F407
:102CB000E64444EA05248D6823F4005343EA0533CF
:102CC000064DA84204D14D6922F4804242EA8512A1
:102CD0004260C46149680164036230BD002C014058
:102CE00010B5046A036A23F001030362836923F0C9
:102CF000F00343EA021324F00A020A4383610262EA
:102D000010BD10B5036A23F0100303628469036ADF
:102D100024F4704444EA023223F0A00343EA011190
:102D20008261016210BD000070B50446006801694F
:102D3000E26821F4405111430161A1682069014317
:102D4000606901432068C26841F20C639A430A43F8
:102D5000C26020684169A26921F440711143416158
:102D60001E492068884202D1FEF75CFE01E0FEF7B2
:102D700049FE00EBC00101EB001160686422800095
:102D8000B1FBF0F3B3FBF2F36FF018067343B1FB42
:102D9000F0F5B1FBF0F605EB8305322303EB0515E7
:102DA000B5FBF2F5B6FBF2F605F0F00505EB0615FE
:102DB000B1FBF0F6B1FBF0F0B0FBF2F06FF01801F0
:102DC000484306EB800003EB0010B0FBF2F02168F3
:102DD00000F00F002844886070BD000000380140FA
:102DE000FEE710B50B46044611461846FDF746FAB5
:102DF00001462046BDE81040FFF782BB490050EA7B
:102E0000C12018BF04204A0D18BF40F0010040F255
:102E1000FF72B2EB515F08BF40F00200012808BF0B
:102E2000052070470907090E002804DB00F1E020A7
:102E300080F80014704700F00F0000F1E02080F8E7
:102E4000141D70472DE9F0414F1E00EBC7010446E9
:102E5000D1E9000115461E4637F006020DD02A467C
:102E60003346FDF7FCFA7F1E04EBC703D3E90023CA
:102E7000FDF74EFA37F00602F1D1022F25D0042FCC
:102E800013D0062F18BFBDE8F0812A463346FDF760
:102E9000E6FAD4E90A23FDF73BFA2A463346FDF762
:102EA000DEFAD4E90823FDF733FA2A463346FDF764
:102EB000D6FAD4E90623FDF72BFA2A463346FDF766
:102EC000CEFAD4E90423FDF723FA2A463346FDF768
:102ED000C6FAD4E90223FDF71BFA2A463346FDF76A
:102EE000BEFAD4E90023BDE8F041FDF711BA012292
:102EF000FDF7E5BC024A00201107FDF7E0BC000029
:102F000001FDFFFF02E008C8121F08C1002AFAD124
:102F100070477047002001E001C1121F002AFBD159
:102F2000704700002DE9F84F04460D4621F000409F
:102F300000917349814211DC7249884201DC06D15B
:102F40002CB120462946BDE8F84FFFF7D0BF6E48A8
:102F5000002DCCBF6D496E49BDE8F88F6D498142A7
:102F600011DD6D498142D8BF4FF0FF366DDD20463F
:102F70002946FFF743FF042808BFFFF7BBFF2046A1
:102F80002946BDE8F88F6549654F25F00045814227
:102F900033DD6449814219DD002632464FF080431B
:102FA00020462946FDF7B4F980468A46012220468C
:102FB0002946FDF784FC00223B46FDF74AFA4246CB
:102FC0005346FDF7BEFA04460D463EE001260022B8
:102FD000BA463B4620462946FDF79AF980460F46F9
:102FE0000022534620462946FDF733FA42463B4627
:102FF000FDF7A7FA04460D4627E04B4981421BDD49
:10300000DFF828A102260022534620462946FDF774
:1030100026FA00223B46FDF77BF980460F46002248
:10302000534620462946FDF714FA42463B46FDF733
:1030300088FA04460D4608E0032622462B46002067
:103040003B49FDF77EFA04460D4622462B461046C4
:103050001946FDF704FA8B46824602460B46FDF7F9
:10306000FEF907460246334888460B460621784457
:10307000FFF7E8FE52465B46FDF7F1F982462E481F
:103080008B463A46434605217844FFF7DBFE3A4635
:103090004346FDF7E4F902460B46002E50465946DA
:1030A0000CDAFDF735F922462B46FDF7D8F901B0C9
:1030B00022462B46BDE8F04FFDF7CEB9FDF728F9C3
:1030C00022462B46FDF7CBF91C4A7A4402EBC60395
:1030D000D3E90023FDF7BDF922462B46FDF7B9F9E8
:1030E000174A7A4402EBC603D3E90023FDF7B4F98B
:1030F000009A002AB8BF81F00041BDE8F88F0000B7
:10310000000010440000F07F182D4454FB21F93FCB
:10311000FB21F9BF0000DC3F0000203E0000F33F30
:103120000000F03F0000E63F008003400000F83F51
:103130000000F0BF0E1A0000CC1900006A19000050
:10314000321900002DE9FC4100204B490246CDE92F
:1031500000014A4B4A48FFF7FFF94B494948CDE97E
:1031600000014A4C4A4D464822462B461830FFF78C
:10317000F3F945494348CDE90001414822462B4631
:103180003030FFF7E9F940493E48CDE900013C48BD
:1031900022462B464830FFF7DFF903223D493E48DF
:1031A000FDF734FE3B4C3D4FA61DB51D2088FDF7B5
:1031B00040FA014632483A461830FFF712FEFDF752
:1031C00067FA30806088FDF734FA01462C483A46A9
:1031D0003030FFF706FEFDF75BFA7080A088FDF740
:1031E00028FA014626483A464830FFF7FAFDFDF72F
:1031F0004FFAB0800A20FDF7A1FF2088FDF719FAE9
:1032000001461F483A461830FFF7EBFDFDF740FA3C
:1032100028806088FDF70DFA014619483A4630309B
:10322000FFF7DFFDFDF734FA6880A088FDF701FAAB
:10323000014613483A464830FFF7D3FDFDF728FA18
:10324000A8802288042301210220FFF781FB308817
:1032500029888842AAD1708869888842A6D1B08816
:10326000A9888842A2D102B00121BDE8F0410CA298
:103270000846FFF78EBB00000000F03F0000E03F73
:103280004C0000207B14AE47E17A843F88855AD3F6
:10329000BCE3743F0A000020AC0000200000204185
:1032A0005359535F496E69745F454E4400000000F6
:1032B0002DE9F74FC54888B015460C46814202DC1F
:1032C00014F17F5F02D9002001461FE014F1FF4F87
:1032D0000ED2B4F1804F02DB0020BD4916E0B4F1FC
:1032E0007E5F4FF0000001DBBA490FE0BA490DE004
:1032F00014F1814F02D80020B84907E0B4F1404FE3
:103300004FF0000001D8B64900E0B649FDF706FAD3
:103310008046FDF7F0F9DFF8C0A289460646002294
:103320005346FDF796F8DFF8B8B20022CBF1000B58
:103330005B46CDE90201FCF7EBFFFDF7BDF907465F
:103340003046494600225346FCF7E2FF8146002200
:103350005B460091FCF7DCFFFDF7AEF9064618F07E
:10336000FF4F24D02046FDF7C6F902460B464846DB
:103370000099FDF76EF8FDF7D1F918F0FF4F0190B5
:1033800018D0DDE9028189462046FDF7B4F94246AE
:103390004B46FDF75EF8FDF7C1F903908B48854277
:1033A00002DC15F17F5F08D90020014625E00020EE
:1033B0000146E0E700200146EDE715F1FF4F0ED290
:1033C000B5F1804F02DB0020814916E0B5F17E5F48
:1033D0004FF0000001DB7F490FE07F490DE015F160
:1033E000814F02D800207D4907E0B5F1404F4FF0F2
:1033F000000001D87A4900E07A49FDF78FF980464C
:10340000FDF779F9044600225346D1460091FDF7B5
:1034100020F800225B46CDE90401FCF779FFFDF7B7
:103420004BF90690204600224B460099FCF770FFAE
:103430008946044600225B46FCF76AFFFDF73CF92B
:10344000824618F0FF4F7CD02846FDF754F92246FB
:103450004B46FDF701F8FDF761F918F0FF4F0090BA
:1034600070D0DDE9044188462846FDF744F943461B
:103470002246FCF7EEFFFDF751F98146014603981D
:10348000FCF7CAFEDFF860810246CAEBCA0502906B
:1034900008EB8500059050F826101046FCF7BCFE9E
:1034A000834600990398FCF7B7FE024604900698FD
:1034B000C0EBC00408EB8408104658F82610FCF74F
:1034C000ABFE824649460198FCF7A6FE02460390F1
:1034D000059850F827101046FCF79EFE8146DDE95E
:1034E0000010FCF799FE009058F82710FCF794FEA6
:1034F0004946FCF739FE5146FCF736FE5946FCF7C3
:1035000033FEDFF8E490834609F1C40909EB85082E
:10351000029858F82610FCF77FFE824609EB8400DB
:10352000049A019050F826101046FCF775FE81466B
:1035300058F827100398FCF76FFE8046DDE900205D
:1035400001E03DE03FE050F827101046FCF764FE34
:103550004146FCF709FE4946FCF706FE5146FCF7DA
:1035600003FEDFF888A081460AEB8505029855F82E
:103570002610FCF751FE0AEB8404804654F826100E
:103580000498FCF749FE064655F827100398FCF707
:1035900043FE054654F827100098FCF73DFE2946E7
:1035A000FCF7E2FD3146FCF7DFFD4146FCF7DCFDB0
:1035B0000899C1F800B0C1E901900BB0BDE8F08FE7
:1035C0000020014647E70020014654E70000404044
:1035D000000004400000F83F0000E03F0000E0BFB2
:1035E0000000F8BF000004C0043900088C3A00084D
:1035F000FEF768F8FFF738FAFFF718F8FFF700F85A
:10360000FEF7C0FFFFF7DAF8FFF772F8FFF750F8A0
:10361000FFF705F9FFF7F4F900210846FDF770FA06
:1036200001214EA20846FFF7B4F9FFF78BFDFFF723
:10363000E3F84E4E4C4F4E4DA6F1140477603760C0
:10364000207808B900F0A0F8207801282CD10021BA
:103650000846FDF755FA012146A20846FFF799F9F9
:1036600046A201210220FFF794F946A2012104207D
:10367000FFF78FF9042142A20846FFF78AF940A21A
:1036800007210420FFF785F908212846FDF77CFE75
:1036900010B92820FDF752FD10212846FDF774FED1
:1036A00010B92820FDF74AFD2078022828D10121F1
:1036B00030A20846FFF76DF930A201210220FFF782
:1036C00068F92FA201210420FFF763F904212DA23C
:1036D0000846FFF75EF92AA207210420FFF759F9EF
:1036E00008212846FDF750FE10B92820FDF726FDD9
:1036F00010212846FDF748FE10B92820FDF71EFDD1
:10370000207803289AD101211AA20846FFF741F92F
:103710001AA201210220FFF73CF919A2012104207D
:10372000FFF737F9042116A20846FFF732F915A270
:1037300007210420FFF72DF908212846FDF724FE74
:1037400010B92820FDF7FAFC10212846FDF71CFED1
:103750000028D7D12820FDF7F1FC6FE75379737467
:10376000656D5F496E697400000020421C000020F6
:10377000000C014044656275672000002020202075
:10378000202000002A2A00002DE9F0412A4D288837
:10379000FCF74FFF294E04463088FCF74AFF284FBC
:1037A00001463A462748FFF71CFB2146FCF72EFD51
:1037B000FCF76EFF244C2080A888FCF73AFF0546F2
:1037C000B088FCF736FF01463A462048FFF709FB70
:1037D0002946FCF71BFDFCF75BFF80B2A080218827
:1037E000401AFCF71DFF1A4C2060FCF738FF00B2AE
:1037F000FDF730F902462060002316491648FDF710
:1038000041F9164908600146002000F02FF81449DC
:10381000144F044608603946FCF7A6FC124E0546D4
:10382000214630603846FCF7F1FC014670602846BE
:10383000BDE8F041FDF764B9160000200A00002041
:1038400000002041640000201000002094000020AF
:10385000240000200000D642666603432C000020AE
:1038600028000020000020421C0000202DE9FE4F0F
:10387000FCF7CCFC214C81466068FCF7D1FE494640
:10388000FCF7C7FC05462068FCF7CAFE4946FCF772
:103890006BFCFCF7E4FE20604846FCF7E0FE60604D
:1038A0002A4649466846FFF703FDDDE9017188466F
:1038B000009E2068FCF7B4FE114C824639466068D1
:1038C000FCF752FC5146FCF7A7FC07464146A068AE
:1038D000FCF74AFC2946FCF79FFC05463146206868
:1038E000FCF742FC4946FCF797FC2946FCF73CFCF8
:1038F00003B03946BDE8F04FFCF736BC00000020AD
:103900004000002000004040000040400000004017
:10391000000000400000803F0000803F00000000E9
:103920000000404000004040000000400000004017
:103930000000803F00000000000000000000004088
:1039400000000040000000400000803F0000000038
:10395000000080BF000000C0000000400000803F69
:103960000000803F00000000000080BF000000C099
:10397000000000C00000803F0000803F0000000009
:10398000000080BF000080BF000000C0000000C039
:103990000000000000000000000080BF000000C028
:1039A000000000C0000000C0000040C00000000097
:1039B000000080BF000080BF000000C0000000C009
:1039C000000040C0000040C0000040C0000040C0F7
:1039D000000040C0000000C0000000C00000000067
:1039E00000000000000040C0000040C0000000C017
:1039F000000000C0000080BF0000000000000000C8
:103A0000000000C0000000C0000080BF000080BFB8
:103A1000000000000000803F0000803F000000C068
:103A2000000080BF000080BF000000000000803F59
:103A30000000803F00000040000080BF000080BF09
:103A4000000000000000803F0000803F00000040B8
:103A50000000004000000000000000000000803F67
:103A600000000040000000400000404000004040D6
:103A700000000000000000000000803F0000004047
:103A80000000404000004040000040400000803FF7
:103A90000000803F00000000000000000000000067
:103AA0000000404000004040000080BF000080BF98
:103AB000000080BF000080BF00000000000080BF49
:103AC00000000040000040C0000040C0000000C0F6
:103AD000000080BF000000000000803F00000040A8
:103AE000000040C0000000C0000000C0000080BF17
:103AF000000000000000803F00000040000040C0C7
:103B0000000000C0000080BF000080BF0000000077
:103B10000000803F0000803F000000C0000080BF28
:103B2000000080BF000080BF000000000000803F58
:103B30000000803F0000803F000000000000000007
:103B40000000000000000000000040400000404075
:103B50000000000000000000000000000000000065
:103B6000000000F8000000000000003330000000FA
:103B700000100C06100C0600000000000000000001
:103B800040C07840C0784000043F04043F04040073
:103B9000007088FC08300000001820FF211E000083
:103BA000F008F000E018000000211C031E211E0098
:103BB00000F00888700000001E212324192721101E
:103BC00010160E00000000000000000000000000C1
:103BD000000000E018040200000000071820400068
:103BE00000020418E0000000004020180700000058
:103BF000404080F0804040000202010F01020200BC
:103C0000000000F0000000000101011F010101009F
:103C1000000000000000000080B070000000000004
:103C2000000000000000000000010101010101018D
:103C30000000000000000000003030000000000024
:103C400000000000806018040060180601000000F9
:103C500000E010080810E000000F102020100F00F6
:103C6000001010F8000000000020203F202000007D
:103C700000700808088870000030282422213000D5
:103C800000300888884830000018202020110E00DD
:103C90000000C02010F8000000070424243F240086
:103CA00000F80888880808000019212020110E005B
:103CB00000E0108888180000000F112020110E006D
:103CC00000380808C83808000000003F0000000065
:103CD0000070880808887000001C222121221C0026
:103CE00000E010080810E0000000312222110F004F
:103CF000000000C0C00000000000003030000000E4
:103D00000000008000000000000080600000000053
:103D1000000080402010080000010204081020006C
:103D200040404040404040000404040404040400B7
:103D3000000810204080000000201008040201004C
:103D4000007048080808F00000000030360100004C
:103D5000C030C828E810E0000718272423140B00FF
:103D60000000C038E0000000203C23020227382079
:103D700008F8888888700000203F202020110E005D
:103D8000C030080808083800071820202010080054
:103D900008F808080810E000203F202020100F003D
:103DA00008F88888E8081000203F20202320180009
:103DB00008F88888E8081000203F20000300000071
:103DC000C03008080838000007182020221E020012
:103DD00008F808000008F808203F210101213F20D1
:103DE000000808F8080800000020203F20200000FC
:103DF00000000808F8080800C08080807F000000EC
:103E000008F888C028180800203F20012638200024
:103E100008F8080000000000203F2020202030008B
:103E200008F8F800F8F80800203F003F003F2000A5
:103E300008F830C00008F808203F200007183F00AD
:103E4000E01008080810E0000F10202020100F00DC
:103E500008F808080808F000203F210101010000CF
:103E6000E01008080810E0000F18242438504F0014
:103E700008F8888888887000203F2000030C3020D4
:103E800000708808080838000038202121221C0012
:103E9000180808F8080818000000203F200000005B
:103EA00008F808000008F808001F202020201F0044
:103EB0000878880000C83808000007380E010000A4
:103EC000F80800F80008F800033C0700073C03006E
:103ED000081868808068180820302C03032C3020D4
:103EE0000838C800C83808000000203F2000000043
:103EF00010080808C838080020382621202018009B
:103F0000000000FE020202000000007F404040006E
:103F1000000C30C000000000000000010638C000A6
:103F200000020202FE000000004040407F0000004E
:103F30000000040202020400000000000000000073
:103F40000000000000000000808080808080808071
:103F50000002020400000000000000000000000059
:103F600000008080808000000019242222223F204F
:103F700008F8008080000000003F112020110E0092
:103F80000000008080800000000E11202020110021
:103F9000000000808088F800000E112020103F20D3
:103FA0000000808080800000001F22222222130057
:103FB000008080F0888888180020203F20200000A2
:103FC0000000808080808000006B94949493600057
:103FD00008F8008080800000203F210000203F2062
:103FE00000809898000000000020203F2020000062
:103FF000000000809898000000C08080807F000052
:1040000008F8000080808000203F24022D3020002E
:10401000000808F8000000000020203F20200000D9
:104020008080808080808000203F20003F20003FF3
:104030008080008080800000203F210000203F2001
:104040000000808080800000001F202020201F00B2
:10405000808000808000000080FFA12020110E00E1
:104060000000008080808000000E112020A0FF80D2
:10407000808080008080800020203F21200001007F
:1040800000008080808080000033242424241900D4
:10409000008080E0808000000000001F20200000E1
:1040A0008080000000808000001F202020103F2022
:1040B000808080000080808000010E3008060100B2
:1040C00080800080008080800F300C030C300F0057
:1040D00000808000808080000020312E0E31200082
:1040E000808080000080808080818E7018060100B2
:1040F00000808080808080000021302C22213000D0
:1041000000000000807C020200000000003F4040F0
:1041100000000000FF00000000000000FF000000A1
:104120000002027C800000000040403F00000000D0
:10413000000601010202040400000000000000006B
:10414000000202020202C2FC222222222222E222D7
:1041500000008040300C0700000040C080E07F007D
:1041600018D452515048CC1800007F48444442783B
:1041700000FF0A8A8A8AFF00007F8888848482E0A0
:1041800022222AAAAAAAAABFAAAAAAAAAA2A2B3083
:10419000000000FF1212121212129292FF00000091
:1041A0002010CC8745444444F844444444644404C7
:1041B0000404070704040404FF04040404040406BC
:1041C0000808F04B48C80810CC4744C424242404F1
:1041D000601F4180C07F0000FF8040471C62C38198
:1041E0000000FEFE0202020202FB4B424242424239
:1041F00080601F0100FCFC44444744444444FCFCF0
:1042000000000000000000000000000000000000AE
:10421000000000000000000000000000000000009E
:10422000000000000000000000000000000000008E
:10423000000000000000000000000000000000007E
:10424000000000000000000000000000000000006E
:10425000000000000000000000000000000000005E
:10426000000000000000000000000000000000004E
:10427000000000000000000000000000000000003E
:10428000000000000000000000000000000000002E
:10429000000000000000000000000000000000001E
:1042A000000000000000000000000000000000000E
:1042B00000000000000000000000000000000000FE
:1042C00000000000000000000000000000000000EE
:1042D00000000000000000000000000000000000DE
:1042E00000000000000000000000000000000000CE
:1042F00000000000000000000000000000000000BE
:10430000000000000000000000808080C0C080002D
:10431000000000000000000000000000000000009D
:1043200000C00000000000000000000000000000CD
:10433000000000000000000000000000000000007D
:1043400000000000000000000000C0C000000000ED
:10435000000000000000000000000000000000203D
:10436000C00000000000000000000000000000008D
:10437000800000600080601000000000000000006D
:10438000000000000020C00020311111D03E0C08B8
:1043900088F020000000000080800040584EC66277
:1043A0004F25EC7023212020200000000000000099
:1043B0000000040C8CFC2606060000000000000033
:1043C000000000003030100BFE00F03F101A0C808F
:1043D00080000000000000000000002060E0F0BF4E
:1043E0009D0C0606000000000000000000E0000434
:1043F00007043412D3B1D981450600000000000043
:10440000000000000000010602020202030302068F
:10441000030000000000000000000000000009058B
:1044200007030302040C080000000000000002065D
:104430000202020301010101010101010300000068
:104440000000000E06060203030101010101010143
:104450000103000000000000000808080403000039
:1044600001010103060C080000000000000000002C
:104470000014131030100F070000000000000000AF
:10448000000000000000000000000000000000002C
:10449000000000000000000000000000000000001C
:1044A000000000000000000000000000000000000C
:1044B00000000000000000000000000000000000FC
:1046900000000000F000000000000000000000002A
:1046A000000000000000000000000000000000000A
:1046B00000000000000000000000000000000000FA
:1046C000000000000000000000000000000080402A
:1046D000400000000000000000000000000000009A
:1046E00000000000000000000000000000000000CA
:1046F0000000C000000000000000000000000000FA
:1047000000000000000000000000000000000000A9
:104710000000A008020000040C0000C0000000001F
:10472000000000000000000000000030E000000079
:1047300040402010080000000000008060180C04B9
:1047400000000000000040404020E07C1301000019
:10475000F058602020000040C06020303020000071
:1047600080E07070300000000000E0B09098888019
:10477000E09BC00000808000804040C060000000DE
:104780000000000000000000000000000000000029
:10479000F00A80C020300CC63E00001F1010101020
:1047A000181F30202020606030100804020303042A
:1047B000082040F80000000000000003020202028E
:1047C000030100000000000080700F0000000003E3
:1047D00001000000000000000102020201010101CD
:1047E000000302020202020202060703030302019F
:1047F000010101010100004020140300000000003D
:1048000000000000000000000000000000000000A8
:104810000101000000000001000000000000000095
:104820000000000000000000000000000000000088
:104830000000000000000000000000000000000078
:104840000000000000000F06010000000000000052
:104850000000000000000000000000000000000058
:1048600000000000000000D80000000000008040B0
:1048700040200800040001000000000000000000CB
:104880000000000000000000000000000000000028
:104890000000000000000000000000000000000018
:1048A0000000000000000000000000000000000008
:1048B00000000000000000000000000000000000F8
:1048C00000000000000000000000000000000000E8
:1048D00000000000000000000000000000000000D8
:1048E00000000000000000030202020201010000BB
:1048F00000000000000000000000000000000000B8
:1049000000000000000000000000000000000000A7
:104910000000000000000000000000000000000097
:104920000000000000000000000000000000000087
:104930000000000000000000000000000000000077
:104940000000000000000000000000000000000067
:104950000000000000000000000000000000000057
:104960000000000000000000000000000000000047
:104970000000000000000000000000000000000037
:104980000000000000000000000000000000000027
:104990000000000000000000000000000000000017
:1049A0000000000000000000000000000000000007
:1049B00000000000000000000000000000000000F7
:1049C00000000000000000000000000000000000E7
:1049D00000000000000000000000000000000000D7
:1049E00000000000000000000000000000000000C7
:1049F00000000000000000000000000000000000B7
:104A0000000000000000000001020304060708097E
:104A100000000000010203044FBB610567ACDD3FED
:104A2000182D4454FB21E93F9BF681D20B73EF3FD5
:104A3000182D4454FB21F93FE2652F227F2B7A3C4D
:104A4000075C143326A6813CBDCBF07A8807703C06
:104A5000075C143326A6913CC4EB98999999C9BF79
:104A6000711623FEC671BCBF6D9A74AFF2B0B3BFAE
:104A70009AFDDE522DDEADBF2F6C6A2C44B4A2BF6E
:104A80000D5555555555D53FFF8300922449C23FDA
:104A90006E204CC5CD45B73F513DD0A0660DB13F0E
:104AA000EB0D76244B7BA93F11DA22E33AAD903F20
:104AB000D04A00080000002040000000042F000839
:104AC000104B000840000020C0050000142F000813
:104AD00000000000000000000000000000000000D6
:104AE00000000000000000000000000000000000C6
:104AF00000000000000000000000000000000000B6
:104B00000100000010000000000000000024F4007C
:04000005080000ED02
:00000001FF
